:020000040800F2
:10000000000002208D180008A9090008AF090008A7
:10001000B5090008BB090008C1090008000000007C
:10002000000000000000000000000000C7090008F8
:10003000D509000800000000E3090008F1090008E4
:10004000DD180008DD180008DD180008DD180008BC
:10005000DD180008DD180008DD180008DD180008AC
:10006000DD180008DD180008DD180008DD1800089C
:10007000DD180008DD180008DD180008DD1800088C
:10008000DD180008DD180008DD180008DD1800087C
:10009000DD180008DD180008DD180008DD1800086C
:1000A000DD180008DD180008DD180008DD1800085C
:1000B000DD180008DD180008DD180008DD1800084C
:1000C000DD180008DD180008DD180008DD1800083C
:1000D000DD180008DD180008DD180008DD1800082C
:1000E000DD180008DD180008DD180008DD1800081C
:1000F000DD180008DD180008DD180008DD1800080C
:10010000DD180008DD180008DD180008DD180008FB
:10011000DD180008DD180008DD180008DD180008EB
:10012000DD180008DD180008DD180008DD180008DB
:10013000DD180008DD180008DD180008DD180008CB
:10014000DD180008DD180008DD180008DD180008BB
:10015000DD180008DD180008DD180008DD180008AB
:10016000DD180008DD180008DD180008DD1800089B
:10017000DD180008DD180008DD1800080000000088
:08018000DD180008DD1800087D
:1001880010B5054C237833B9044B13B10448AFF3C9
:1001980000800123237010BD0C0000200000000027
:1001A8003819000808B5034B1BB103490348AFF3DE
:1001B800008008BD00000000100000203819000869
:1001C80053B94AB9002908BF00281CBF4FF0FF31B6
:1001D8004FF0FF3000F07AB9ADF1080C6DE904CEAC
:1001E80000F006F8DDF804E0DDE9022304B070470A
:1001F8002DE9F0478C460D460446089E002B51D148
:100208008A4217466DD9B2FA82FEBEF1000F0BD0B2
:10021800CEF1200C01FA0EF520FA0CFC02FA0EF7CA
:100228004CEA050C00FA0EF44FEA174A250CBCFB01
:10023800FAF81FFA87F90AFB18CC45EA0C4508FBBF
:1002480009F3AB420AD9ED1908F1FF3280F0238196
:10025800AB4240F22081A8F102083D44ED1AA4B255
:10026800B5FBFAF00AFB105544EA054400FB09F90E
:10027800A14509D9E41900F1FF3380F00A81A145AD
:1002880040F2078102383C44A4EB090440EA0840E4
:100298000021002E61D024FA0EF40023346073602C
:1002A800BDE8F0878B4207D9002E54D0002186E89C
:1002B80021000846BDE8F087B3FA83F1002940F031
:1002C8008E80AB4202D3824200F2FA80841A65EB38
:1002D80003050120AC46002E3FD086E81010BDE88B
:1002E800F08712B90127B7FBF2F7B7FA87FEBEF11C
:1002F800000F34D1EB1B3A0C1FFA87FC0121B3FB2A
:10030800F2F8250C02FB183345EA03450CFB08F309
:10031800AB4207D9ED1908F1FF3002D2AB4200F227
:10032800D1808046ED1AA3B2B5FBF2F002FB10555E
:1003380043EA05440CFB00FCA44507D9E41900F185
:10034800FF3302D2A44500F2B8801846A4EB0C048F
:1003580040EA08409DE731463046BDE8F087CEF1D7
:10036800200405FA0EF307FA0EF720FA04F83A0CFF
:1003780025FA04F448EA0308B4FBF2F14FEA1845F9
:1003880002FB11441FFA87FC45EA044501FB0CF304
:10039800AB4200FA0EF409D9ED1901F1FF3080F0F3
:1003A8008A80AB4240F2878002393D44EB1A1FFA3B
:1003B80088F5B3FBF2F002FB103345EA034500FB76
:1003C8000CF3AB4207D9ED1900F1FF386FD2AB42FD
:1003D8006DD902383D44EB1A40EA01418FE7C1F17B
:1003E800200722FA07F88B4005FA01F448EA0303CC
:1003F80020FA07FE4FEA134CFD404EEA040EB5FB07
:10040800FCF94FEA1E440CFB19551FFA83F844EA1D
:10041800054509FB08F4AC4202FA01F200FA01FAB8
:1004280008D9ED1809F1FF3043D2AC4241D9A9F1FE
:1004380002091D442D1B1FFA8EFEB5FBFCF00CFBB8
:1004480010554EEA054400FB08F8A04507D9E41802
:1004580000F1FF3529D2A04527D902381C4440EACB
:100468000940A4EB0804A0FB02894C45C6464D464A
:1004780015D312D056B1BAEB0E0364EB050404FA97
:1004880007F7CB401F43CC40376074600021BDE8BC
:10049800F0871846F8E69046E0E6C245EAD2B8EB9F
:1004A800020E69EB03050138E4E72846D7E7404622
:1004B80091E78146BEE7014678E702383C4445E7C4
:1004C800084608E7A8F102083D442BE7704700BF3B
:1004D80080B582B000AF10237B6001220121B848AB
:1004E80000F0A2FD0121B74800F086FD0346012B6C
:1004F8000CD100BF0121B34800F07EFD0346012B5B
:10050800F8D001237B60B04B01221A600221AD486C
:1005180000F072FD0346012B0CD100BF0221A9484F
:1005280000F06AFD0346012BF8D004237B60A64B3C
:1005380004221A600421A34800F05EFD0346012B43
:100548000CD100BF04219F4800F056FD0346012B43
:10055800F8D007237B609C4B07221A600821994832
:1005680000F04AFD0346012B0CD100BF0821954835
:1005780000F042FD0346012BF8D00E237B60924B1E
:100588000E221A60002201218D4800F04DFD012243
:1005980002218B4800F048FD01218A4800F02CFD1B
:1005A8000346012B0CD100BF0121864800F024FD31
:1005B8000346012BF8D002237B60834B02221A608A
:1005C8000221804800F018FD0346012B0CD100BF22
:1005D80002217C4800F010FD0346012BF8D00523CA
:1005E8007B60794B05221A600421764800F004FDEF
:1005F8000346012B0CD100BF0421724800F0FCFC1B
:100608000346012BF8D008237B606F4B08221A6041
:1006180008216C4800F0F0FC0346012B0CD100BF08
:100628000821684800F0E8FC0346012BF8D00023B5
:100638007B60654B00221A6000220221604800F0AE
:10064800F3FC012204215E4800F0EEFC01215D4824
:1006580000F0D2FC0346012B0CD100BF0121594800
:1006680000F0CAFC0346012BF8D003237B60564BED
:1006780003221A600221534800F0BEFC0346012BF6
:100688000CD100BF02214F4800F0B6FC0346012BF5
:10069800F8D006237B604C4B06221A600421494897
:1006A80000F0AAFC0346012B0CD100BF04214548E9
:1006B80000F0A2FC0346012BF8D009237B60424BD3
:1006C80009221A6008213F4800F096FC0346012BD6
:1006D8000CD100BF08213B4800F08EFC0346012BDB
:1006E800F8D00F237B60384B0F221A6000220421B8
:1006F800334800F099FC01220821314800F094FCAD
:100708000121304800F078FC0346012B0CD100BFD2
:1007180001212C4800F070FC0346012BF8D00A2375
:100728007B60294B0A221A600221264800F064FCEB
:100738000346012B0CD100BF0221224800F05CFCCB
:100748000346012BF8D00B237B601F4B0B221A604A
:1007580004211C4800F050FC0346012B0CD100BFBB
:100768000421184800F048FC0346012BF8D00C235C
:100778007B60154B0C221A600821124800F03CFCE3
:100788000346012B0CD100BF08210E4800F034FCB1
:100798000346012BF8D00D237B600B4B0D221A600A
:1007A80000220821064800F03FFC7B680F2B01D887
:1007B8007B6801E0044B1B6818460837BD4680BDBE
:1007C80000000240000C02402C00002080B500AF61
:1007D80000F022F900F00AF800F066F8FFF778FE5A
:1007E8000246014B1A60F9E72800002080B594B052
:1007F80000AF07F1200330220021184601F090F8DD
:1008080007F10C0300221A605A609A60DA601A61D4
:100818000023BB60224A224B1B6C43F080531364B5
:100828001F4B1B6C03F08053BB60BB6800237B60CD
:100838001C4A1C4B1B6843F480431360194B1B680C
:1008480003F480437B607B6802233B620123FB62E5
:1008580010233B630023BB6307F12003184600F015
:10086800FDFB0346002B01D000F06EF80F23FB6060
:1008780000233B6100237B610023BB610023FB61F4
:1008880007F10C030021184600F060FE0346002B18
:1008980001D000F059F800BF5037BD4680BD00BFF9
:1008A800003802400070004080B588B000AF07F102
:1008B8000C0300221A605A609A60DA601A610023F9
:1008C800BB601E4A1D4B1B6B43F0010313631B4B9C
:1008D8001B6B03F00103BB60BB6800237B60174AF6
:1008E800164B1B6B43F008031363144B1B6B03F08D
:1008F80008037B607B6800220F21114800F094FBFD
:100908000F23FB6001233B6100237B610023BB6154
:1009180007F10C0319460A4800F0D4F90F23FB60CD
:1009280000233B6102237B6107F10C03194605484C
:1009380000F0C8F900BF2037BD4680BD003802402E
:1009480000000240000C024080B400AF72B6FEE71F
:1009580080B483B000AF00237B60104A0F4B5B6C00
:1009680043F4804353640D4B5B6C03F480437B601A
:100978007B6800233B60094A084B1B6C43F080539B
:100988001364064B1B6C03F080533B603B6800BF4D
:100998000C37BD465DF8047B704700BF0038024045
:1009A80080B400AFFEE780B400AFFEE780B400AFCC
:1009B800FEE780B400AFFEE780B400AFFEE780B486
:1009C80000AF00BFBD465DF8047B704780B400AF40
:1009D80000BFBD465DF8047B704780B400AF00BF20
:1009E800BD465DF8047B704780B500AF00F066F83F
:1009F80000BF80BD80B400AF064A064BD3F88830EC
:100A080043F47003C2F8883000BFBD465DF8047B2C
:100A1800704700BF00ED00E080B500AF0E4A0E4BF6
:100A28001B6843F4007313600B4A0B4B1B6843F4B9
:100A380080631360084A084B1B6843F48073136093
:100A4800032000F00BF9002000F008F8FFF780FF02
:100A58000023184680BD00BF003C024080B582B02C
:100A680000AF7860124B1A68124B1B7819464FF486
:100A78007A73B3FBF1F3B2FBF3F3184600F015F900
:100A88000346002B01D001230EE07B680F2B0AD808
:100A9800002279684FF0FF3000F0EBF8064A7B68D7
:100AA8001360002300E0012318460837BD4680BDC7
:100AB80000000020080000200400002080B400AFDF
:100AC800064B1B781A46064B1B681344044A1360EE
:100AD80000BFBD465DF8047B704700BF08000020DA
:100AE8003000002080B400AF034B1B681846BD4699
:100AF8005DF8047B704700BF3000002080B485B0EB
:100B080000AF78607B6803F00703FB600C4BDB6881
:100B1800BB60BA684FF6FF031340BB60FB681A025C
:100B2800BB68134343F0BF6343F40033BB60044A1C
:100B3800BB68D36000BF1437BD465DF8047B7047BF
:100B480000ED00E080B400AF044BDB681B0A03F043
:100B580007031846BD465DF8047B704700ED00E0CA
:100B680080B483B000AF03463960FB7197F9073052
:100B7800002B0ADB0D4997F907303A68D2B2120107
:100B8800D2B20B4483F800230AE00949FB7903F049
:100B98000F03043B3A68D2B21201D2B20B441A7660
:100BA80000BF0C37BD465DF8047B704700E100E0EC
:100BB80000ED00E080B489B000AFF860B9607A60F9
:100BC800FB6803F00703FB61FB69C3F10703042B10
:100BD80028BF0423BB61FB690433062B02D9FB69D8
:100BE800033B00E000237B610122BB6902FA03F3A7
:100BF8005A1EBB681A407B699A4001217B6901FA39
:100C080003F3591E7B680B40134318462437BD462F
:100C18005DF8047B7047000080B582B000AF786053
:100C28007B68013BB3F1807F01D301230FE00A4ABF
:100C38007B68013B53600F214FF0FF30FFF790FFB7
:100C4800054B00229A60044B07221A6000231846BD
:100C58000837BD4680BD00BF10E000E080B582B017
:100C680000AF78607868FFF749FF00BF0837BD46D6
:100C780080BD80B586B000AF0346B9607A60FB736B
:100C880000237B61FFF75EFF78617A68B96878694D
:100C9800FFF790FF024697F90F3011461846FFF705
:100CA8005FFF00BF1837BD4680BD80B582B000AF7A
:100CB80078607868FFF7B0FF034618460837BD46E6
:100CC80080BD000080B489B000AF7860396000232F
:100CD8007B6100233B610023BB610023FB616BE167
:100CE8000122FB6902FA03F37B613B681A687B699E
:100CF80013403B613A697B699A4240F05A813B68EC
:100D08005B6803F00303012B05D03B685B6803F0C5
:100D18000303022B30D17B689B68BB61FB695B00D6
:100D2800032202FA03F3DB43BA691340BB613B6851
:100D3800DA68FB695B0002FA03F3BA691343BB6123
:100D48007B68BA699A607B685B68BB610122FB6952
:100D580002FA03F3DB43BA691340BB613B685B6883
:100D68001B0903F00102FB6902FA03F3BA69134392
:100D7800BB617B68BA695A603B685B6803F0030330
:100D8800032B17D07B68DB68BB61FB695B00032220
:100D980002FA03F3DB43BA691340BB613B689A6804
:100DA800FB695B0002FA03F3BA691343BB617B6812
:100DB800BA69DA603B685B6803F00303022B23D14E
:100DC800FB69DA087B68083253F82230BB61FB699B
:100DD80003F007039B000F2202FA03F3DB43BA690F
:100DE8001340BB613B681A69FB6903F007039B006A
:100DF80002FA03F3BA691343BB61FB69DA087B683B
:100E08000832B96943F822107B681B68BB61FB692B
:100E18005B00032202FA03F3DB43BA691340BB61A8
:100E28003B685B6803F00302FB695B0002FA03F3AB
:100E3800BA691343BB617B68BA691A603B685B682F
:100E480003F44033002B00F0B4800023FB605F4ABA
:100E58005E4B5B6C43F4804353645C4B5B6C03F404
:100E68008043FB60FB685A4AFB699B08023352F8CF
:100E78002330BB61FB6903F003039B000F2202FAD6
:100E880003F3DB43BA691340BB617B68514A934261
:100E98002BD07B68504A934225D07B684F4A9342B7
:100EA8001FD07B684E4A934219D07B684D4A9342C3
:100EB80013D07B684C4A93420DD07B684B4A9342CF
:100EC80007D07B684A4A934201D107230EE00823E2
:100ED8000CE006230AE0052308E0042306E00323C8
:100EE80004E0022302E0012300E00023FA6902F093
:100EF800030292009340BA691343BB613449FB690A
:100F08009B080233BA6941F823203A4B1B68BB613E
:100F18003B69DB43BA691340BB613B685B6803F418
:100F28008033002B03D0BA693B691343BB61314A54
:100F3800BB6913602F4B5B68BB613B69DB43BA69D4
:100F48001340BB613B685B6803F40033002B03D09C
:100F5800BA693B691343BB61264ABB695360254B99
:100F68009B68BB613B69DB43BA691340BB613B6863
:100F78005B6803F48013002B03D0BA693B69134301
:100F8800BB611C4ABB6993601A4BDB68BB613B6958
:100F9800DB43BA691340BB613B685B6803F4001329
:100FA800002B03D0BA693B691343BB61114ABB6983
:100FB800D360FB690133FB61FB690F2B7FF690AEB1
:100FC80000BF2437BD465DF8047B704700380240F7
:100FD80000380140000002400004024000080240BE
:100FE800000C0240001002400014024000180240A9
:100FF800001C0240003C014080B485B000AF78601E
:101008000B467B807B681A697B881340002B02D0D3
:101018000123FB7301E00023FB73FB7B18461437A5
:10102800BD465DF8047B704780B483B000AF78603C
:101038000B467B8013467B707B78002B03D07A8825
:101048007B689A6103E07B881A047B689A6100BF19
:101058000C37BD465DF8047B7047000080B586B04C
:1010680000AF78607B68002B01D1012364E27B68C4
:101078001B6803F00103002B75D0A34B9B6803F09A
:101088000C03042B0CD0A04B9B6803F00C03082B1B
:1010980012D19D4B5B6803F48003B3F5800F0BD12D
:1010A800994B1B6803F40033002B5BD07B685B68AB
:1010B800002B57D101233FE27B685B68B3F5803F83
:1010C80006D1914A904B1B6843F4803313601DE0AE
:1010D8007B685B68B3F5A02F0CD18B4A8A4B1B68E1
:1010E80043F480231360884A874B1B6843F480339A
:1010F80013600BE0844A844B1B6823F4803313602D
:10110800814A814B1B6823F4802313607B685B68EA
:10111800002B13D0FFF7E6FC386108E0FFF7E2FC8C
:1011280002463B69D31A642B01D9032304E2764BA8
:101138001B6803F40033002BF0D014E0FFF7D2FC57
:10114800386108E0FFF7CEFC02463B69D31A642BEE
:1011580001D90323F0E16C4B1B6803F40033002B27
:10116800F0D100E000BF7B681B6803F00203002B8E
:1011780063D0654B9B6803F00C03002B0BD0624BCC
:101188009B6803F00C03082B1CD15F4B5B6803F4CE
:101198008003002B16D15C4B1B6803F00203002B65
:1011A80005D07B68DB68012B01D00123C4E15649D7
:1011B800554B1B6823F0F8027B681B69DB0013435F
:1011C8000B603AE07B68DB68002B20D04F4B012294
:1011D8001A60FFF787FC386108E0FFF783FC0246D6
:1011E8003B69D31A022B01D90323A5E1464B1B689F
:1011F80003F00203002BF0D04349434B1B6823F054
:10120800F8027B681B69DB0013430B6015E03F4B5A
:1012180000221A60FFF766FC386108E0FFF762FCFD
:1012280002463B69D31A022B01D9032384E1364BCA
:101238001B6803F00203002BF0D17B681B6803F0E6
:101248000803002B30D07B685B69002B16D0304B2D
:1012580001221A60FFF746FC386108E0FFF742FCFC
:1012680002463B69D31A022B01D9032364E1264BBA
:101278005B6F03F00203002BF0D015E0244B002233
:101288001A60FFF72FFC386108E0FFF72BFC0246D5
:101298003B69D31A022B01D903234DE11A4B5B6F2B
:1012A80003F00203002BF0D17B681B6803F00403F2
:1012B800002B00F0A0800023FB75134B1B6C03F080
:1012C8008053002B0FD10023BB600F4A0E4B1B6CC1
:1012D80043F0805313640C4B1B6C03F08053BB60CA
:1012E800BB680123FB750B4B1B6803F48073002B51
:1012F80021D1084A074B1B6843F480731360FFF73A
:10130800F1FB386111E000BF00380240000047429D
:10131800800E474200700040FFF7E4FB02463B693D
:10132800D31A022B01D9032306E1854B1B6803F46A
:101338008073002BF0D07B689B68012B06D1814A13
:10134800804B1B6F43F0010313671CE07B689B68AD
:10135800052B0CD17B4A7B4B1B6F43F004031367AF
:10136800784A784B1B6F43F0010313670BE0754A0B
:10137800744B1B6F23F001031367724A714B1B6F89
:1013880023F0040313677B689B68002B15D0FFF7D5
:10139800A9FB38610AE0FFF7A5FB02463B69D31AAF
:1013A80041F28832934201D90323C5E0654B1B6F94
:1013B80003F00203002BEED014E0FFF793FB386133
:1013C8000AE0FFF78FFB02463B69D31A41F28832E5
:1013D800934201D90323AFE05A4B1B6F03F002037A
:1013E800002BEED1FB7D012B05D1564A554B1B6CCA
:1013F80023F0805313647B689B69002B00F09B806B
:10140800504B9B6803F00C03082B5CD07B689B69EE
:10141800022B41D14C4B00221A60FFF763FB386165
:1014280008E0FFF75FFB02463B69D31A022B01D99C
:10143800032381E0434B1B6803F00073002BF0D1BA
:1014480040497B68DA697B681B6A1A437B685B6A78
:101458009B011A437B689B6A5B08013B1B041A4388
:101468007B68DB6A1B0613434B60374B01221A600B
:10147800FFF738FB386108E0FFF734FB02463B69A9
:10148800D31A022B01D9032356E02E4B1B6803F015
:101498000073002BF0D04EE02B4B00221A60FFF7B0
:1014A80021FB386108E0FFF71DFB02463B69D31AB0
:1014B800022B01D903233FE0224B1B6803F0007382
:1014C800002BF0D137E07B689B69012B01D1012308
:1014D80032E01C4B5B68FB607B689B69012B28D062
:1014E800FB6803F480027B68DB699A4221D1FB68C0
:1014F80003F03F027B681B6A9A421AD1FA6847F6E2
:10150800C07313407A68526A9201934211D1FB6802
:1015180003F440327B689B6A5B08013B1B049A42D8
:1015280007D1FB6803F070627B68DB6A1B069A428E
:1015380001D0012300E0002318461837BD4680BDBE
:1015480000700040003802406000474280B584B017
:1015580000AF786039607B68002B01D10123CCE0B3
:10156800684B1B6803F007023B689A420CD2654B34
:101578003A68D2B21A70634B1B6803F007023B68E3
:101588009A4201D00123B8E07B681B6803F002038C
:10159800002B20D07B681B6803F00403002B05D0C8
:1015A800594A594B9B6843F4E05393607B681B6826
:1015B80003F00803002B05D0534A534B9B6843F4B0
:1015C800604393605049504B9B6823F0F0027B685E
:1015D8009B6813438B607B681B6803F00103002B37
:1015E80044D07B685B68012B07D1474B1B6803F429
:1015F8000033002B19D101237FE07B685B68022B45
:1016080003D07B685B68032B07D13F4B1B6803F053
:101618000073002B09D101236FE03B4B1B6803F0DB
:101628000203002B01D1012367E03749364B9B6841
:1016380023F003027B685B6813438B60FFF752FA61
:10164800F8600AE0FFF74EFA0246FB68D31A41F247
:101658008832934201D903234FE02B4B9B6803F058
:101668000C027B685B689B009A42EBD1254B1B6898
:1016780003F007023B689A420CD9224B3A68D2B26F
:101688001A70204B1B6803F007023B689A4201D08E
:10169800012332E07B681B6803F00403002B08D0A9
:1016A8001949194B9B6823F4E0527B68DB681343A4
:1016B8008B607B681B6803F00803002B09D0124974
:1016C800114B9B6823F460427B681B69DB00134362
:1016D8008B6000F021F801460B4B9B681B0903F057
:1016E8000F030A4AD35C21FA03F3094A1360094B32
:1016F8001B681846FFF7B2F9002318461037BD4695
:1017080080BD00BF003C024000380240501900086C
:1017180000000020040000202DE9F04F87B000AF42
:101728000022FA6000227A610022BA6000223A613F
:10173800514A926802F00C02042A07D0082A08D0FD
:10174800002A40F090804D4B3B618FE04C4B3B6151
:101758008CE0494A526802F03F02FA60464A5268F1
:1017680002F48002002A23D0434B5B689B094FF0A8
:10177800000440F2FF114FF0000203EA010304EAFB
:1017880002043F4A02FB04F1002202FB03F20A446E
:101798003B49A3FB010153181946FB684FF00004AD
:1017A8001A462346FEF70CFD03460C467B614CE0C7
:1017B800314A5268920911464FF0000240F2FF1573
:1017C8004FF0000605EA010506EA020629463246F8
:1017D8004FEA421B4BEAD16B4FEA411A51465A462F
:1017E800AA46B34655465E464D1B62EB0606294699
:1017F8003246940144EA91648B015B1A64EB02045B
:101808004FEAC40949EA53794FEAC30843464C46AC
:1018180055465E46ED1846EB04062B463446A202B2
:101828007A607A6842EA93527A609B023B6097E852
:10183800180018462146FB684FF000041A46234654
:10184800FEF7BEFC03460C467B610B4B5B681B0C2A
:1018580003F0030301335B00BB607A69BB68B2FB2A
:10186800F3F33B6102E0054B3B6100BF3B6918465F
:101878001C37BD46BDE8F08F003802400024F40054
:1018880040787D01DFF834D00D480E490E4A002318
:1018980002E0D458C4500433C4188C42F9D30B4A1C
:1018A8000B4C002301E013600432A242FBD3FFF784
:1018B800A1F800F011F8FEF789FF70470000022038
:1018C800000000200C000020701900080C00002007
:1018D80034000020FEE7000070B50D4E0D4CA41B2F
:1018E800A4100025A54209D10B4E0C4C00F020F89D
:1018F800A41BA4100025A54205D170BD56F82530BB
:1019080098470135EEE756F8253098470135F2E754
:101918006819000868190008681900086C19000897
:1019280002440346934200D1704703F8011BF9E7CC
:10193800F8B500BFF8BC08BC9E467047F8B500BFB4
:08194800F8BC08BC9E46704784
:10195000000000000000000001020304060708095F
:0819600098E8FF7F0100000080
:04196800AD010008C5
:04196C0089010008E5
:0C1970000024F400100000000100000042
:040000050800188D4A
:00000001FF
