:020000040800F2
:1000000000000220F92B0008B9150008BF150008F0
:10001000C5150008CB150008D11500080000000028
:10002000000000000000000000000000D7150008DC
:10003000E515000800000000F3150008011600088F
:10004000492C0008492C0008492C0008492C0008BC
:10005000492C0008492C0008492C0008492C0008AC
:10006000492C0008492C0008492C0008492C00089C
:10007000492C0008492C0008492C0008492C00088C
:10008000492C0008492C0008492C0008492C00087C
:10009000492C0008492C0008492C0008492C00086C
:1000A000492C0008492C0008492C0008492C00085C
:1000B000492C0008492C0008492C0008492C00084C
:1000C000492C0008492C0008492C0008492C00083C
:1000D000492C0008492C0008492C0008492C00082C
:1000E000492C0008492C0008492C0008492C00081C
:1000F000492C0008492C0008492C0008492C00080C
:10010000492C0008492C0008492C0008492C0008FB
:10011000492C0008492C0008492C0008492C0008EB
:10012000492C0008492C0008492C0008492C0008DB
:10013000492C0008492C0008492C0008492C0008CB
:10014000492C0008492C0008492C0008492C0008BB
:10015000492C0008492C0008492C0008492C0008AB
:10016000492C0008492C0008492C0008492C00089B
:10017000492C0008492C0008492C00080000000008
:08018000492C0008492C00087D
:1001880010B5054C237833B9044B13B10448AFF3C9
:1001980000800123237010BD7400002000000000BF
:1001A800683D000808B5034B1BB103490348AFF38A
:1001B800008008BD0000000078000020683D0008AD
:1001C80081F0004102E000BF83F0004330B54FEA00
:1001D80041044FEA430594EA050F08BF90EA020F6D
:1001E8001FBF54EA000C55EA020C7FEA645C7FEA00
:1001F800655C00F0E2804FEA5454D4EB5555B8BF23
:100208006D420CDD2C4480EA020281EA030382EA93
:10021800000083EA010180EA020281EA0303362D25
:1002280088BF30BD11F0004F4FEA01314FF4801CF8
:100238004CEA113102D0404261EB410113F0004F0A
:100248004FEA03334CEA133302D0524263EB4303C1
:1002580094EA050F00F0A780A4F10104D5F1200E5F
:100268000DDB02FA0EFC22FA05F2801841F10001BA
:1002780003FA0EF2801843FA05F359410EE0A5F18E
:1002880020050EF1200E012A03FA0EFC28BF4CF0BF
:10029800020C43FA05F3C01851EBE37101F0004575
:1002A80007D54FF0000EDCF1000C7EEB00006EEB82
:1002B8000101B1F5801F1BD3B1F5001F0CD349080C
:1002C8005FEA30004FEA3C0C04F101044FEA445263
:1002D80012F5800F80F09A80BCF1004F08BF5FEAEA
:1002E800500C50F1000041EB045141EA050130BDCA
:1002F8005FEA4C0C404141EB010111F4801FA4F16D
:100308000104E9D191F0000F04BF01460020B1FAC1
:1003180081F308BF2033A3F10B03B3F120020CDAF9
:100328000C3208DD02F1140CC2F10C0201FA0CF0D7
:1003380021FA02F10CE002F11402D8BFC2F1200C3C
:1003480001FA02F120FA0CFCDCBF41EA0C019040F2
:10035800E41AA2BF01EB0451294330BD6FEA04043B
:100368001F3C1CDA0C340EDC04F11404C4F1200226
:1003780020FA04F001FA02F340EA030021FA04F338
:1003880045EA030130BDC4F10C04C4F1200220FA8F
:1003980002F001FA04F340EA0300294630BD21FACD
:1003A80004F0294630BD94F0000F83F4801306BF93
:1003B80081F480110134013D4EE77FEA645C18BF87
:1003C8007FEA655C29D094EA050F08BF90EA020F1E
:1003D80005D054EA000C04BF1946104630BD91EA16
:1003E800030F1EBF0021002030BD5FEA545C05D119
:1003F8004000494128BF41F0004130BD14F5800458
:100408003CBF01F5801130BD01F0004545F0FE41CB
:1004180041F470014FF0000030BD7FEA645C1ABF00
:10042800194610467FEA655C1CBF0B46024650EA37
:10043800013406BF52EA033591EA030F41F4002163
:1004480030BD00BF90F0000F04BF0021704730B5E9
:100458004FF4806404F132044FF000054FF00001BE
:1004680050E700BF90F0000F04BF0021704730B57F
:100478004FF4806404F1320410F0004548BF404254
:100488004FF000013EE700BF42004FEAE2014FEAA9
:1004980031014FEA02701FBF12F07F4393F07F4F84
:1004A80081F06051704792F0000F14BF93F07F4FB6
:1004B800704730B54FF4607401F0004521F00041F9
:1004C80020E700BF50EA010208BF704730B54FF07F
:1004D80000050AE050EA010208BF704730B511F084
:1004E800004502D5404261EB41014FF4806404F1BC
:1004F80032045FEA915C3FF4DCAE4FF003025FEA3E
:10050800DC0C18BF03325FEADC0C18BF033202EBC5
:10051800DC02C2F1200300FA03FC20FA02F001FA1F
:1005280003FE40EA0E0021FA02F11444C1E600BFBE
:1005380070B54FF0FF0C4CF4E06C1CEA11541DBF71
:100548001CEA135594EA0C0F95EA0C0F00F0DEF83C
:100558002C4481EA030621EA4C5123EA4C5350EA21
:10056800013518BF52EA033541F4801143F4801372
:1005780038D0A0FB02CE4FF00005E1FB02E506F003
:100588000042E0FB03E54FF00006E1FB03569CF058
:10059800000F18BF4EF0010EA4F1FF04B6F5007F5E
:1005A80064F5407404D25FEA4E0E6D4146EB0606D0
:1005B80042EAC62141EA55514FEAC52040EA5E5059
:1005C8004FEACE2EB4F1FD0C88BFBCF5E06F1ED803
:1005D800BEF1004F08BF5FEA500E50F1000041EB3A
:1005E800045170BD06F0004646EA010140EA0200E7
:1005F80081EA0301B4EB5C04C2BFD4EB0C0541EA09
:10060800045170BD41F480114FF0000E013C00F31D
:10061800AB8014F1360FDEBF002001F0004170BD41
:10062800C4F10004203C35DA0C341BDC04F114045A
:10063800C4F1200500FA05F320FA04F001FA05F2E6
:1006480040EA020001F0004221F0004110EBD370B3
:1006580021FA04F642EB06015EEA430E08BF20EADF
:10066800D37070BDC4F10C04C4F1200500FA04F382
:1006780020FA05F001FA04F240EA020001F0004114
:1006880010EBD37041F100015EEA430E08BF20EA87
:10069800D37070BDC4F1200500FA05F24EEA020ECF
:1006A80020FA04F301FA05F243EA020321FA04F0FE
:1006B80001F0004121FA04F220EA020000EBD370B5
:1006C8005EEA430E08BF20EAD37070BD94F0000FB5
:1006D8000FD101F00046400041EB010111F4801FE9
:1006E80008BF013CF7D041EA060195F0000F18BF9A
:1006F800704703F00046520043EB030313F4801FD6
:1007080008BF013DF7D043EA0603704794EA0C0F8F
:100718000CEA135518BF95EA0C0F0CD050EA4106A5
:1007280018BF52EA4306D1D181EA030101F0004122
:100738004FF0000070BD50EA410606BF104619464A
:1007480052EA430619D094EA0C0F02D150EA013656
:1007580013D195EA0C0F05D152EA03361CBF104697
:1007680019460AD181EA030101F0004141F0FE4136
:1007780041F470014FF0000070BD41F0FE4141F4BA
:10078800780170BD70B54FF0FF0C4CF4E06C1CEABA
:1007980011541DBF1CEA135594EA0C0F95EA0C0F6F
:1007A80000F0A7F8A4EB050481EA030E52EA03352A
:1007B8004FEA013100F088804FEA03334FF080554B
:1007C80045EA131343EA12634FEA022245EA111578
:1007D80045EA10654FEA00260EF000419D4208BF29
:1007E800964244F1FD0404F5407402D25B084FEAD6
:1007F8003202B61A65EB03055B084FEA32024FF482
:1008080080104FF4002CB6EB020E75EB030E22BFDE
:10081800B61A754640EA0C005B084FEA3202B6EB9E
:10082800020E75EB030E22BFB61A754640EA5C004D
:100838005B084FEA3202B6EB020E75EB030E22BFDD
:10084800B61A754640EA9C005B084FEA3202B6EBDE
:10085800020E75EB030E22BFB61A754640EADC009D
:1008680055EA060E18D04FEA051545EA16754FEAFF
:1008780006164FEAC30343EA52734FEAC2025FEA1D
:100888001C1CC0D111F4801F0BD141EA00014FF0AC
:1008980000004FF0004CB6E711F4801F04BF01437D
:1008A8000020B4F1FD0C88BFBCF5E06F3FF6AFAE99
:1008B800B5EB030C04BFB6EB020C5FEA500C50F129
:1008C800000041EB045170BD0EF0004E4EEA1131AC
:1008D80014EB5C04C2BFD4EB0C0541EA045170BDB3
:1008E80041F480114FF0000E013C90E645EA060EF7
:1008F8008DE60CEA135594EA0C0F08BF95EA0C0F25
:100908003FF43BAF94EA0C0F0AD150EA01347FF46C
:1009180034AF95EA0C0F7FF425AF104619462CE743
:1009280095EA0C0F06D152EA03353FF4FDAE1046A6
:10093800194622E750EA410618BF52EA43067FF4F7
:10094800C5AE50EA41047FF40DAF52EA43057FF487
:10095800EBAE12E74FF0FF3C06E000BF4FF0010C92
:1009680002E000BF4FF0010C4DF804CD4FEA410CF6
:100978007FEA6C5C4FEA430C18BF7FEA6C5C1BD0C3
:1009880001B050EA410C0CBF52EA430C91EA030F44
:1009980002BF90EA020F0020704710F1000F91EAA1
:1009A800030F58BF994208BF90422CBFD8176FEA6F
:1009B800E37040F0010070474FEA410C7FEA6C5C3D
:1009C80002D150EA013C07D14FEA430C7FEA6C5C44
:1009D800D6D152EA033CD3D05DF8040B704700BF70
:1009E8008446104662468C461946634600E000BFBE
:1009F80001B5FFF7B7FF002848BF10F1000F01BD90
:100A08004DF808EDFFF7F4FF0CBF012000205DF85A
:100A180008FB00BF4DF808EDFFF7EAFF34BF0120DF
:100A280000205DF808FB00BF4DF808EDFFF7E0FF78
:100A380094BF012000205DF808FB00BF4DF808EDC9
:100A4800FFF7CEFF94BF012000205DF808FB00BF30
:100A58004DF808EDFFF7C4FF34BF012000205DF812
:100A680008FB00BF4FEA410C7FEA6C5C02D150EAF8
:100A7800013C0AD14FEA430C7FEA6C5C02D152EA8E
:100A8800033C02D14FF0000070474FF0010070475F
:100A98004FEA410212F5001215D211D56FF478739E
:100AA800B3EB625212D94FEAC12343F0004343EA41
:100AB800505311F0004F23FA02F018BF404270471C
:100AC8004FF00000704750EA013005D111F00040A6
:100AD80008BF6FF0004070474FF00000704700BF3C
:100AE8004A0011D212F5001211D20DD56FF47873A5
:100AF800B3EB62520ED44FEAC12343F0004343EAFA
:100B0800505323FA02F070474FF00000704750EA44
:100B1800013002D14FF0FF3070474FF000007047AE
:100B28004FEA4102B2F1E04324BFB3F5001CDCF107
:100B3800FE5C0DD901F0004C4FEAC0024CEA50703F
:100B4800B2F1004F40EB830008BF20F0010070476E
:100B580011F0804F21D113F13872BCBF01F0004071
:100B6800704741F480114FEA5252C2F11802C2F1A3
:100B7800200C10FA0CF320FA02F018BF40F0010024
:100B88004FEAC1234FEAD32303FA0CFC40EA0C00D6
:100B980023FA02F34FEA4303CCE77FEA625307D113
:100BA80050EA01331EBF4FF0FE4040F4400070474A
:100BB80001F0004040F0FE4040F40000704700BFE4
:100BC80080B500AF00F006FC00BF80BD80B500AF67
:100BD80000F0ACF9054BD3ED007AB2EE047AC7EE1B
:100BE800876AF0EE667AB0EE670A80BDD000002012
:100BF80080B582B000AF0346FB71FB79184600F060
:100C080015FA044B1B6807EE903AB0EE670A0837EE
:100C1800BD4680BDD400002090B583B000AF034628
:100C2800FB71FB791846FFF7E3FF1D4BD3ED007A04
:100C38009FED1C7AC7EE876A16EE900AFFF724FC30
:100C480003460C469FED121B44EC103B02F024F8BF
:100C580054EC103B1A4623464FF000001249FFF7A8
:100C6800B3FA03460C46184621460BA3D3E90023E2
:100C7800FFF75EFC03460C4618462146FFF750FF77
:100C8800034607EE903AB0EE670A0C37BD4690BDB2
:100C98006C45D9CC955BC83F0000000040A5E540F5
:100CA800D400002080E6C5470000F03F80B582B040
:100CB80000AF2E23FB710023BB80F979381D042374
:100CC800542200F0E1F83B791B021AB27B791BB27F
:100CD80013431BB29BB218460837BD4680BD80B58A
:100CE80084B000AF0346FB71FB799B01DBB2343360
:100CF800FB73FB79F97B07F10C00502200F0C4F874
:100D08003B7B1A047B7B1B021344BA7B1A44FB7996
:100D1800C3F1080342FA03F39BB218461037BD46E5
:100D280080BD000080B483B000AF78607B681B781A
:100D38001B021AB27B6801331B781BB213431AB229
:100D4800464B1A807B6802331B781B021AB27B68F9
:100D580003331B781BB213431AB2414B1A807B68CA
:100D680004331B781B021AB27B6805331B781BB24D
:100D780013431AB23B4B1A807B6806331B781B025D
:100D88001AB27B6807331B781BB213431BB29AB2A3
:100D9800354B1A807B6808331B781B021AB27B68B4
:100DA80009331B781BB213431BB29AB22F4B1A801C
:100DB8007B680A331B781B021AB27B680B331B78DB
:100DC8001BB213431BB29AB2294B1A807B680C33AF
:100DD8001B781B021AB27B680D331B781BB21343B6
:100DE8001AB2244B1A807B680E331B781B021AB286
:100DF8007B680F331B781BB213431AB21E4B1A8041
:100E08007B6810331B781B021AB27B6811331B787E
:100E18001BB213431AB2194B1A807B6812331B7822
:100E28001B021AB27B6813331B781BB213431AB226
:100E3800134B1A807B6814331B781B021AB27B6829
:100E480015331B781BB213431AB20E4B1A8000BF1E
:100E58000C37BD465DF8047B704700BF900000204A
:100E680092000020940000209600002098000020A6
:100E78009A0000209C0000209E000020A000002076
:100E8800A2000020A400002080B588B004AF7860DC
:100E9800084611461A460346FB700B46BB701346BC
:100EA8007B704FF47A73029301230193FB1C009328
:100EB8000123F422EE211C4801F000F8BB78502BE6
:100EC8001AD10323FB737B78002B02D1052000F095
:100ED8001DFC7B78012B02D1082000F017FC7B78E1
:100EE800022B02D10E2000F011FC7B78032B08D1D5
:100EF8001A2000F00BFC04E00223FB73052000F02D
:100F080005FCFB7B9BB24FF47A72029201937B68DB
:100F180000930123F622EE21034801F0C9F800BF2F
:100F28001037BD4680BD00BFD8000020B0B500AF67
:100F3800FFF7BCFE03461A46304B1A602F4B1B685E
:100F48002F4A12889B1A2F4A128802FB03F318466D
:100F5800FFF788FA4FF000022B4BFFF713FC03460C
:100F68000C4618462146FFF793FD0246274B1A60A8
:100F7800274BB3F900301846FFF774FA4FF0000218
:100F8800244BFFF7D5FA03460C4625461C46224B50
:100F9800B3F900301A461D4B1B6813441846FFF777
:100FA80061FA02460B4620462946FFF7EBFB03464B
:100FB8000C4618462146FFF76BFD0246174B1A6090
:100FC800124B1A68154B1B681344154A1360144BCF
:100FD8001B6808331846FFF745FA4FF00002114B1B
:100FE800FFF7D0FB03460C4618462146FFF798FD4D
:100FF80002460D4B1A6000BFB0BD00BFA80000201C
:101008009A000020980000200000E040B000002076
:10101800A20000200000A040A4000020B40000208E
:10102800C000002000003040D0000020B0B582B0E1
:1010380000AF0346FB71FB791846FFF750FE0346E5
:101048001A467F4B1A607F4B1B68A3F57A637E4A6A
:1010580013607E4BB3F900301846FFF703FA0446D5
:101068000D46794B1B68784A126802FB03F3184651
:10107800FFF7F8F94FF00002754BFFF783FB0246C4
:101088000B4620462946FFF753FA03460C461846F6
:1010980021464FF000026F4BFFF774FB03460C46E6
:1010A80018462146FFF7F4FC02466B4B1A606B4B5F
:1010B800B3F900301A46644B1B6803FB02F3184669
:1010C800FFF7D0F94FF00002624BFFF75BFB0346D6
:1010D8000C4618462146FFF7DBFC0246604B1A60B7
:1010E8005D4B1A685E4B1B6813445E4A13605E4B87
:1010F800B3F900309A005B4B1B681A44FB7902FA7B
:1011080003F30233002B00DA03339B101A46574BC4
:101118001A60574BB3F900301A464B4B1B6803FB58
:1011280002F31846FFF79EF94FF00002514BFFF704
:1011380029FB03460C4618462146FFF7A9FC024640
:10114800454B1A604C4BB3F900301846FFF78AF943
:1011580004460D463C4B1B683B4A126802FB03F3EE
:101168001846FFF77FF94FF00002394BFFF70AFBEB
:1011780002460B4620462946FFF7DAF903460C4695
:10118800184621464FF000023C4BFFF7FBFA034696
:101198000C4618462146FFF77BFC0246304B1A6086
:1011A8002D4B1A682E4B1B68134402331846FFF761
:1011B80059F94FF00002324BFFF7E4FA03460C46A8
:1011C80018462146FFF764FC0246264B1A602D4B51
:1011D8001B881A46234B1B6803F5004303FB02F3E5
:1011E8001846FFF72FF94FF00002274BFFF7CAFA0E
:1011F80003460C4618462146FFF772FC0246234B6D
:101208001A600F4B1B681A46184B1B68D31AFA79D9
:101218004CF2503141FA02F202FB03F31C4A13600C
:101228001B4B1B68002B35DB194B1B685A00174BEF
:101238001B68B2FBF3F307EE903AF8EE677A34E0F6
:10124800AC000020C0000020C80000209E00002044
:101258000000B0400000A040B00000209200002034
:10126800B4000020B800002090000020BC0000203E
:10127800940000200000C0409C0000200000F040C6
:1012880000001040960000200000E040C40000204C
:10129800CC000020464B1A68464B1B68B2FBF3F3A0
:1012A8005B0007EE903AF8EE677A434BC3ED007A9D
:1012B800414B1B681846FFF7E7F84FF000023F4B19
:1012C800FFF760FA03460C4625461C463A4B1B6856
:1012D8001846FFF7D9F84FF00002384BFFF752FADB
:1012E80002460B4620462946FFF722F903460C46DC
:1012F80018462146FFF7CCFB0246314B1A60304BAB
:101308001B6840F6DE3202FB03F31846FFF7AAF823
:101318004FF000022B4BFFF735FA03460C461846F0
:101328002146FFF7B5FB0246254B1A60224BD3ED49
:10133800007A9FED257A67EE877A17EE900AFFF715
:10134800A3F84FF000021F4BFFF71CFA03460C46A8
:1013580018462146FFF79CFB02461C4B1A60164BA9
:101368001B681846FFF790F804460D46144B1A6898
:10137800164B1B68134403F6CF631846FFF772F841
:101388004FF00002124BFFF7FDF902460B462046CC
:101398002946FEF71BFF03460C4618462146FFF771
:1013A800BFFB0246044B1A6000BF0837BD46B0BDFC
:1013B800CC000020C4000020D400002000007040B1
:1013C800B00000200000F04000E8E5C5B4000020AF
:1013D8000000304080B58AB004AF3B4600221A6056
:1013E8005A609A60DA601A619A824FF47A730293AB
:1013F800162301933B4600930123AA22EE210548B8
:1014080000F056FE3B461846FFF78CFC00BF183725
:10141800BD4680BDD800002080B500AF00F004F9BB
:1014280000F024F8FFF7CCFBFFF7D0FBF0EE407A92
:101438000B4BC3ED007A0020FFF7DAFBF0EE407AA1
:10144800084BC3ED007A0020FFF7E6FBF0EE407A88
:10145800054BC3ED007A4FF47A7000F057F9E3E7D3
:101468002C010020340100203001002080B500AF9D
:10147800124B134A1A60114B124A5A600F4B002242
:101488009A600E4B0022DA600C4B4FF480421A61CE
:101498000A4B00225A61094B00229A61074B00222D
:1014A800DA61064B00221A62044800F0CFFB0346BB
:1014B800002B01D000F008F800BF80BDD800002044
:1014C80000540040A086010080B400AF72B6FEE769
:1014D80080B483B000AF00237B60104A0F4B5B6C75
:1014E80043F4804353640D4B5B6C03F480437B608F
:1014F8007B6800233B60094A084B1B6C43F0805310
:101508001364064B1B6C03F080533B603B6800BFC1
:101518000C37BD465DF8047B704700BF00380240B9
:1015280080B58AB000AF786007F1140300221A6012
:101538005A609A60DA601A617B681B68194A93429C
:101548002CD100233B61184A174B1B6B43F0020355
:101558001363154B1B6B03F002033B613B694FF4AC
:1015680040637B611223BB610123FB6103233B6260
:1015780004237B6207F1140319460C4800F0CCF9E8
:101588000023FB60084A084B1B6C43F48003136478
:10159800054B1B6C03F48003FB60FB6800BF283716
:1015A800BD4680BD0058004000380240000402409B
:1015B80080B400AFFEE780B400AFFEE780B400AFB0
:1015C800FEE780B400AFFEE780B400AFFEE780B46A
:1015D80000AF00BFBD465DF8047B704780B400AF24
:1015E80000BFBD465DF8047B704780B400AF00BF04
:1015F800BD465DF8047B704780B500AF00F066F823
:1016080000BF80BD80B400AF064A064BD3F88830CF
:1016180043F47003C2F8883000BFBD465DF8047B10
:10162800704700BF00ED00E080B500AF0E4A0E4BDA
:101638001B6843F4007313600B4A0B4B1B6843F49D
:1016480080631360084A084B1B6843F48073136077
:10165800032000F02DF9002000F008F8FFF738FF0C
:101668000023184680BD00BF003C024080B582B010
:1016780000AF7860124B1A68124B1B7819464FF46A
:101688007A73B3FBF1F3B2FBF3F3184600F037F9C2
:101698000346002B01D001230EE07B680F2B0AD8EC
:1016A800002279684FF0FF3000F00DF9064A7B6898
:1016B8001360002300E0012318460837BD4680BDAB
:1016C80000000020080000200400002080B400AFC3
:1016D800064B1B781A46064B1B681344044A1360D2
:1016E80000BFBD465DF8047B704700BF08000020BE
:1016F8003801002080B400AF034B1B681846BD4674
:101708005DF8047B704700BF3801002080B584B0C5
:1017180000AF7860FFF7EEFFB8607B68FB60FB689E
:10172800B3F1FF3F05D0094B1B781A46FB681344F9
:10173800FB6000BFFFF7DEFF0246BB68D21AFB68FA
:101748009A42F7D300BF1037BD4680BD080000207D
:1017580080B485B000AF78607B6803F00703FB6056
:101768000C4BDB68BB60BA684FF6FF031340BB60E5
:10177800FB681A02BB68134343F0BF6343F40033AA
:10178800BB60044ABB68D36000BF1437BD465DF830
:10179800047B704700ED00E080B400AF044BDB68C9
:1017A8001B0A03F007031846BD465DF8047B704723
:1017B80000ED00E080B483B000AF03463960FB71F0
:1017C80097F90730002B0ADB0D4997F907303A687B
:1017D800D2B21201D2B20B4483F800230AE00949BD
:1017E800FB7903F00F03043B3A68D2B21201D2B27C
:1017F8000B441A7600BF0C37BD465DF8047B704772
:1018080000E100E000ED00E080B489B000AFF860CE
:10181800B9607A60FB6803F00703FB61FB69C3F1F9
:101828000703042B28BF0423BB61FB690433062B81
:1018380002D9FB69033B00E000237B610122BB69FD
:1018480002FA03F35A1EBB681A407B699A400121C9
:101858007B6901FA03F3591E7B680B401343184652
:101868002437BD465DF8047B7047000080B582B020
:1018780000AF78607B68013BB3F1807F01D301231F
:101888000FE00A4A7B68013B53600F214FF0FF309D
:10189800FFF790FF054B00229A60044B07221A605D
:1018A800002318460837BD4680BD00BF10E000E0A1
:1018B80080B582B000AF78607868FFF749FF00BF55
:1018C8000837BD4680BD80B586B000AF0346B96015
:1018D8007A60FB7300237B61FFF75EFF78617A68AB
:1018E800B9687869FFF790FF024697F90F301146FB
:1018F8001846FFF75FFF00BF1837BD4680BD80B5AB
:1019080082B000AF78607868FFF7B0FF03461846EA
:101918000837BD4680BD000080B489B000AF78604C
:10192800396000237B6100233B610023BB610023F6
:10193800FB616BE10122FB6902FA03F37B613B68FF
:101948001A687B6913403B613A697B699A4240F0A7
:101958005A813B685B6803F00303012B05D03B68A1
:101968005B6803F00303022B30D17B689B68BB6183
:10197800FB695B00032202FA03F3DB43BA691340F5
:10198800BB613B68DA68FB695B0002FA03F3BA697A
:101998001343BB617B68BA699A607B685B68BB610B
:1019A8000122FB6902FA03F3DB43BA691340BB6106
:1019B8003B685B681B0903F00102FB6902FA03F349
:1019C800BA691343BB617B68BA695A603B685B6854
:1019D80003F00303032B17D07B68DB68BB61FB694B
:1019E8005B00032202FA03F3DB43BA691340BB61CD
:1019F8003B689A68FB695B0002FA03F3BA69134310
:101A0800BB617B68BA69DA603B685B6803F0030313
:101A1800022B23D1FB69DA087B68083253F822309D
:101A2800BB61FB6903F007039B000F2202FA03F373
:101A3800DB43BA691340BB613B681A69FB6903F071
:101A480007039B0002FA03F3BA691343BB61FB69FE
:101A5800DA087B680832B96943F822107B681B688A
:101A6800BB61FB695B00032202FA03F3DB43BA693B
:101A78001340BB613B685B6803F00302FB695B00D2
:101A880002FA03F3BA691343BB617B68BA691A6047
:101A98003B685B6803F44033002B00F0B4800023FC
:101AA800FB605F4A5E4B5B6C43F4804353645C4B62
:101AB8005B6C03F48043FB60FB685A4AFB699B0834
:101AC800023352F82330BB61FB6903F003039B0028
:101AD8000F2202FA03F3DB43BA691340BB617B6848
:101AE800514A93422BD07B68504A934225D07B6859
:101AF8004F4A93421FD07B684E4A934219D07B6865
:101B08004D4A934213D07B684C4A93420DD07B6870
:101B18004B4A934207D07B684A4A934201D1072334
:101B28000EE008230CE006230AE0052308E004235E
:101B380006E0032304E0022302E0012300E000237F
:101B4800FA6902F0030292009340BA691343BB6139
:101B58003449FB699B080233BA6941F823203A4BA0
:101B68001B68BB613B69DB43BA691340BB613B68D7
:101B78005B6803F48033002B03D0BA693B691343D5
:101B8800BB61314ABB6913602F4B5B68BB613B6922
:101B9800DB43BA691340BB613B685B6803F40033FD
:101BA800002B03D0BA693B691343BB61264ABB6962
:101BB8005360254B9B68BB613B69DB43BA691340A3
:101BC800BB613B685B6803F48013002B03D0BA69E0
:101BD8003B691343BB611C4ABB6993601A4BDB68C2
:101BE800BB613B69DB43BA691340BB613B685B6817
:101BF80003F40013002B03D0BA693B691343BB619C
:101C0800114ABB69D360FB690133FB61FB690F2B88
:101C18007FF690AE00BF2437BD465DF8047B704761
:101C28000038024000380140000002400004024031
:101C380000080240000C024000100240001402405C
:101C480000180240001C0240003C014090B585B0DD
:101C580000AF78607B68002B01D101231FE17B680E
:101C680093F83D30DBB2002B06D17B68002283F865
:101C78003C207868FFF754FC7B68242283F83D20D9
:101C88007B681B687A681268126822F001021A6081
:101C98007B681B687A681268126842F400421A600E
:101CA8007B681B687A681268126822F400421A601E
:101CB80000F08AFFF8607B685B687B4A934207D82C
:101CC800FB687A4A934294BF01230023DBB206E003
:101CD800FB68774A934294BF01230023DBB2002BB1
:101CE80001D00123DBE0FB68724AA2FB03239B0CB3
:101CF800BB607B681B687A681268526822F03F01F3
:101D0800BA680A435A607B681A687B681B681B6A52
:101D180023F03F017B685B686348834202D8BB6855
:101D2800013309E0BB684FF4967000FB03F3624887
:101D3800A0FB03039B0901330B4313627B681868FC
:101D48007B681B68DB6923F44F4222F0FF027B6843
:101D58005B6855498B420DD8FB68591E7B685B68E8
:101D68005B00B1FBF3F30133C3F30B03042B38BF60
:101D780004234FE07B689B68002B11D1FB685C1E35
:101D88007B6859680B465B000B44B4FBF3F30133E3
:101D9800C3F30B03002B0CBF01230023DBB212E0BB
:101DA800FB685C1E7B6859680B469B000B449900D6
:101DB8000B44B4FBF3F30133C3F30B03002B0CBF49
:101DC80001230023DBB2002B01D0012322E07B6832
:101DD8009B68002B0ED1FB685C1E7B6859680B461C
:101DE8005B000B44B4FBF3F30133C3F30B0343F47D
:101DF80000430FE0FB685C1E7B6859680B469B003C
:101E08000B4499000B44B4FBF3F30133C3F30B0306
:101E180043F440431343C3617B681B687A681268C4
:101E2800126822F0C0017A68D0697A68126A02439F
:101E38000A431A607B681A687B681B689B6823F4EE
:101E4800034323F0FF03796808697968C968014387
:101E58000B4393607B681B687A681268D26822F02B
:101E6800FF017A6850697A68926902430A43DA6026
:101E78007B681B687A681268126842F001021A606F
:101E88007B6800221A647B68202283F83D207B68E7
:101E980000221A637B68002283F83E20002318463C
:101EA8001437BD4690BD00BFA08601007F841E0088
:101EB800FF083D0083DE1B43D34D621080B588B018
:101EC80002AFF860084611461A4603467B810B4666
:101ED8003B811346FB80FFF70DFC7861FB6893F8A4
:101EE8003D30DBB2202B40F0D9807B690093192369
:101EF80001226D49F86800F07DFC0346002B01D0F3
:101F08000223CCE0FB6893F83C30012B01D102237B
:101F1800C5E0FB68012283F83C20FB681B681B684E
:101F280003F00103012B07D0FB681B68FA681268ED
:101F3800126842F001021A60FB681B68FA681268AE
:101F4800126822F400621A60FB68212283F83D209F
:101F5800FB68402283F83E20FB6800221A64FB6875
:101F68003A6A5A62FB68BA8C5A85FB685B8D9AB2EA
:101F7800FB681A85FB684D4ADA62F8883A897989DC
:101F88007B690193BB6A00930346F86800F0B6FAD0
:101F98000346002B52D0012381E07A69B96AF868B8
:101FA80000F0FEFC0346002B0DD0FB681B6C042BD5
:101FB80007D1FB681B68FA681268126842F400725D
:101FC8001A6001236BE0FB681B68FA68526A127892
:101FD8001A61FB685B6A5A1CFB685A62FB681B8DB6
:101FE800013B9AB2FB681A85FB685B8D9BB2013B8B
:101FF8009AB2FB685A85FB681B685B6903F00403A7
:10200800042B1BD1FB681B8D002B17D0FB681B68AA
:10201800FA68526A12781A61FB685B6A5A1CFB6894
:102028005A62FB681B8D013B9AB2FB681A85FB68F4
:102038005B8D9BB2013B9AB2FB685A85FB681B8D8E
:10204800002BAAD17A69B96AF86800F0EAFC03465D
:10205800002B0DD0FB681B6C042B07D1FB681B6899
:10206800FA681268126842F400721A60012316E0D6
:10207800FB681B68FA681268126842F400721A60FA
:10208800FB68202283F83D20FB68002283F83E206D
:10209800FB68002283F83C20002300E00223184656
:1020A8001837BD4680BD00BF020010000000FFFFCA
:1020B80080B58CB002AFF860084611461A46034650
:1020C8007B810B463B811346FB80FFF713FB78624D
:1020D800FB6893F83D30DBB2202B40F008827B6A26
:1020E8000093192301227B49F86800F083FB03461B
:1020F800002B01D00223FBE1FB6893F83C30012B55
:1021080001D10223F4E1FB68012283F83C20FB683B
:102118001B681B6803F00103012B07D0FB681B68D1
:10212800FA681268126842F001021A60FB681B68BC
:10213800FA681268126822F400621A60FB682222A8
:1021480083F83D20FB68402283F83E20FB6800228C
:102158001A64FB683A6B5A62FB68BA8E5A85FB6848
:102168005B8D9AB2FB681A85FB685B4ADA62F8886D
:102178003A8979897B6A0193BB6B00930346F868B7
:1021880000F050FA0346002B01D00123B0E1FB68B0
:102198001B8D002B13D100233B62FB681B685B6916
:1021A8003B62FB681B689B693B623B6AFB681B6878
:1021B800FA681268126842F400721A6084E1FB68D7
:1021C8001B8D012B1BD1FB681B68FA68126812680B
:1021D80022F480621A600023FB61FB681B685B695C
:1021E800FB61FB681B689B69FB61FB69FB681B68FB
:1021F800FA681268126842F400721A6064E1FB68B7
:102208001B8D022B1BD1FB681B68FA6812681268C9
:1022180022F480621A60FB681B68FA681268126808
:1022280042F400621A600023BB61FB681B685B69AB
:10223800BB61FB681B689B69BB61BB6944E1002308
:102248007B61FB681B685B697B61FB681B689B693A
:102258007B617B6938E1FB681B8D032B00F2F18001
:10226800FB681B8D012B23D17A6AB96BF86800F0E3
:1022780019FC0346002B01D0012339E1FB685B6A96
:10228800FA6812681269D2B21A70FB685B6A5A1C43
:10229800FB685A62FB681B8D013B9AB2FB681A8582
:1022A800FB685B8D9BB2013B9AB2FB685A850BE1D8
:1022B800FB681B8D022B4ED17B6A0093BB6B0022FF
:1022C8000649F86800F096FA0346002B08D0012367
:1022D8000EE100BF020010000000FFFF0400010033
:1022E800FB681B68FA681268126842F400721A6088
:1022F800FB685B6AFA6812681269D2B21A70FB68E6
:102308005B6A5A1CFB685A62FB681B8D013B9AB2D8
:10231800FB681A85FB685B8D9BB2013B9AB2FB6830
:102328005A85FB685B6AFA6812681269D2B21A7039
:10233800FB685B6A5A1CFB685A62FB681B8D013B91
:102348009AB2FB681A85FB685B8D9BB2013B9AB217
:10235800FB685A85B8E07B6A0093BB6B002266492C
:10236800F86800F047FA0346002B01D00123BFE0CC
:10237800FB681B68FA681268126822F480621A60A7
:10238800FB685B6AFA6812681269D2B21A70FB6855
:102398005B6A5A1CFB685A62FB681B8D013B9AB248
:1023A800FB681A85FB685B8D9BB2013B9AB2FB68A0
:1023B8005A857B6A0093BB6B00224F49F86800F08E
:1023C80019FA0346002B01D0012391E0FB681B6832
:1023D800FA681268126842F400721A60FB685B6A55
:1023E800FA6812681269D2B21A70FB685B6A5A1CE2
:1023F800FB685A62FB681B8D013B9AB2FB681A8521
:10240800FB685B8D9BB2013B9AB2FB685A85FB68FF
:102418005B6AFA6812681269D2B21A70FB685B6A62
:102428005A1CFB685A62FB681B8D013B9AB2FB6819
:102438001A85FB685B8D9BB2013B9AB2FB685A8593
:1024480042E07A6AB96BF86800F02CFB0346002B6F
:1024580001D001234CE0FB685B6AFA6812681269D4
:10246800D2B21A70FB685B6A5A1CFB685A62FB6836
:102478001B8D013B9AB2FB681A85FB685B8D9BB28A
:10248800013B9AB2FB685A85FB681B685B6903F0DD
:102498000403042B18D1FB685B6AFA681268126996
:1024A800D2B21A70FB685B6A5A1CFB685A62FB68F6
:1024B8001B8D013B9AB2FB681A85FB685B8D9BB24A
:1024C800013B9AB2FB685A85FB681B8D002B7FF491
:1024D800C2AEFB68202283F83D20FB68002283F807
:1024E8003E20FB68002283F83C20002300E0022302
:1024F80018462837BD4680BD0400010080B588B065
:1025080002AFF860084611461A4603467B810B461F
:102518003B811346FB80FB681B68FA6812681268E7
:1025280042F480721A607B6A00933B6A00224FF083
:102538000111F86800F05EF90346002B0DD0FB6826
:102548001B681B6803F48073B3F5807F03D1FB68B5
:102558004FF400721A6403235EE0FB681B687A89F3
:10256800D2B202F0FE021A617B6A3A6A2C49F86814
:1025780000F097F90346002B01D001234CE000231B
:102588007B61FB681B685B697B61FB681B689B69F7
:102598007B617B697A6A396AF86800F001FA034658
:1025A800002B0DD0FB681B6C042B07D1FB681B6844
:1025B800FA681268126842F400721A6001232BE06C
:1025C800FB88012B05D1FB681B683A89D2B21A61D6
:1025D80021E0FB681B683A89120A92B2D2B21A61EA
:1025E8007A6A396AF86800F0DBF90346002B0DD0E7
:1025F800FB681B6C042B07D1FB681B68FA68126820
:10260800126842F400721A60012305E0FB681B6837
:102618003A89D2B21A61002318461837BD4680BDE0
:102628000200010080B588B002AFF8600846114684
:102638001A4603467B810B463B811346FB80FB68A9
:102648001B68FA681268126842F480621A60FB68B4
:102658001B68FA681268126842F480721A607B6A12
:1026680000933B6A00224FF00111F86800F0C2F8AD
:102678000346002B0DD0FB681B681B6803F48073AE
:10268800B3F5807F03D1FB684FF400721A6403230B
:10269800A9E0FB681B687A89D2B202F0FE021A61CF
:1026A8007B6A3A6A5249F86800F0FBF80346002B47
:1026B80001D0012397E000237B61FB681B685B69FD
:1026C8007B61FB681B689B697B617B697A6A396AF5
:1026D800F86800F065F90346002B0DD0FB681B6C09
:1026E800042B07D1FB681B68FA681268126842F469
:1026F80000721A60012376E0FB88012B05D1FB6884
:102708001B683A89D2B21A6121E0FB681B683A89D2
:10271800120A92B2D2B21A617A6A396AF86800F07B
:102728003FF90346002B0DD0FB681B6C042B07D127
:10273800FB681B68FA681268126842F400721A6033
:10274800012350E0FB681B683A89D2B21A617A6AA1
:10275800396AF86800F024F90346002B0DD0FB68AD
:102768001B6C042B07D1FB681B68FA681268126897
:1027780042F400721A60012335E0FB681B68FA68AE
:102788001268126842F480721A607B6A00933B6A8E
:1027980000224FF00111F86800F02CF80346002BD6
:1027A8000DD0FB681B681B6803F48073B3F5807F4A
:1027B80003D1FB684FF400721A64032313E0FB682B
:1027C8001B687A89D2B242F00102D2B21A617B6ADE
:1027D8003A6A0749F86800F064F80346002B01D00C
:1027E800012300E0002318461837BD4680BD00BF0E
:1027F8000200010080B584B000AFF860B9603B60AA
:102808001346FB7125E03B68B3F1FF3F21D0FEF78B
:1028180071FF0246BB69D21A3B689A4202D83B68EC
:10282800002B16D1FB6800221A63FB68202283F86C
:102838003D20FB68002283F83E20FB681B6C43F0B8
:102848002002FB681A64FB68002283F83C200123FD
:1028580023E0BB681B0CDBB2012B0DD1FB681B68A6
:102868005B69DA43BB6813409BB2002B0CBF0123A2
:102878000023DBB21A460CE0FB681B689B69DA434D
:10288800BB6813409BB2002B0CBF01230023DBB2B3
:102898001A46FB799A42B6D0002318461037BD462F
:1028A80080BD80B584B000AFF860B9607A603B60E5
:1028B80051E0FB681B685B6903F48063B3F5806FC4
:1028C80023D1FB681B68FA681268126842F4007228
:1028D8001A60FB681B686FF480625A61FB6800220B
:1028E8001A63FB68202283F83D20FB68002283F8E6
:1028F8003E20FB681B6C43F00402FB681A64FB680B
:10290800002283F83C20012346E07B68B3F1FF3FB7
:1029180021D0FEF7EFFE02463B68D21A7B689A4246
:1029280002D87B68002B16D1FB6800221A63FB686B
:10293800202283F83D20FB68002283F83E20FB68B4
:102948001B6C43F02002FB681A64FB68002283F8C2
:102958003C20012320E0BB681B0CDBB2012B0CD10F
:10296800FB681B685B69DA43BB6813409BB2002BAA
:1029780014BF01230023DBB20BE0FB681B689B69D3
:10298800DA43BB6813409BB2002B14BF012300231A
:10299800DBB2002B8DD1002318461037BD4680BD11
:1029A80080B584B000AFF860B9607A602DE0F8684F
:1029B80000F0CEF80346002B01D001232DE0BB68C0
:1029C800B3F1FF3F21D0FEF795FE02467B68D21A8D
:1029D800BB689A4202D8BB68002B16D1FB6800225C
:1029E8001A63FB68202283F83D20FB68002283F8E5
:1029F8003E20FB681B6C43F02002FB681A64FB68EE
:102A0800002283F83C20012307E0FB681B685B6910
:102A180003F08003802BCAD1002318461037BD4627
:102A280080BD80B584B000AFF860B9607A602DE0F1
:102A3800F86800F08DF80346002B01D001232DE043
:102A4800BB68B3F1FF3F21D0FEF754FE02467B6816
:102A5800D21ABB689A4202D8BB68002B16D1FB6811
:102A680000221A63FB68202283F83D20FB680022BD
:102A780083F83E20FB681B6C43F02002FB681A6455
:102A8800FB68002283F83C20012307E0FB681B68F1
:102A98005B6903F00403042BCAD1002318461037DE
:102AA800BD4680BD80B584B000AFF860B9607A607B
:102AB80042E0FB681B685B6903F01003102B19D117
:102AC800FB681B686FF010025A61FB6800221A63EA
:102AD800FB68202283F83D20FB68002283F83E2013
:102AE800FB681A6CFB681A64FB68002283F83C20B8
:102AF800012329E0FEF7FEFD02467B68D21ABB6877
:102B08009A4202D8BB68002B16D1FB6800221A63D0
:102B1800FB68202283F83D20FB68002283F83E20D2
:102B2800FB681B6C43F02002FB681A64FB680022F8
:102B380083F83C20012307E0FB681B685B6903F00E
:102B48004003402BB5D1002318461037BD4680BD41
:102B580080B483B000AF78607B681B685B6903F45E
:102B68008063B3F5806F1BD17B681B686FF480624C
:102B78005A617B6800221A637B68202283F83D2013
:102B88007B68002283F83E207B681B6C43F00402BC
:102B98007B681A647B68002283F83C20012300E0EC
:102BA800002318460C37BD465DF8047B70470000CB
:102BB80080B400AF034B1B681846BD465DF8047B24
:102BC800704700BF0000002080B500AFFFF7F0FF9E
:102BD8000146054B9B689B0A03F00703034AD35C35
:102BE80021FA03F3184680BD00380240803D0008F2
:102BF800DFF834D00D480E490E4A002302E0D458BD
:102C0800C4500433C4188C42F9D30B4A0B4C00232C
:102C180001E013600432A242FBD3FEF7F3FC00F09C
:102C280017F8FEF7F9FB70470000022000000020AB
:102C380074000020D83D0008740000203C010020EA
:102C4800FEE70000014B1868704700BF0C00002029
:102C580070B50D4E0D4CA41BA4100025A54209D13A
:102C68000B4E0C4C01F07CF8A41BA4100025A542C7
:102C780005D170BD56F8253098470135EEE756F86E
:102C8800253098470135F2E7D03D0008D03D0008CF
:102C9800D03D0008D43D00082DE9F04F2DED048B00
:102CA8008DB057EC106B55EC114B00F06DF9AE4B35
:102CB800B0EE408AF0EE608A93F90090B9F1FF3FD8
:102CC80098465FD022462B4620462946FDF7CAFE85
:102CD8008346002856D132463B4630463946FDF7F2
:102CE800C1FE0190E8B10022002320462946FDF7E5
:102CF80087FE002846D0012302939C4B03939C4BEC
:102D0800CDF828B00022B9F1020FCDE90467CDE96A
:102D18000645CDE9082333D002A800F006FF48BBDA
:102D28005EE04FF0000A4FF0000B52465B4630461B
:102D38003946FDF765FE4BEC19AB002855D05246D5
:102D48005B4620462946FDF75BFE804618B3012303
:102D58000293864B0393019B0A93CDE90467CDE95F
:102D68000645CDE908ABB9F1000FD5D0804B00225C
:102D7800CDE908230A9B1BB1FFF764FF0A9B036098
:102D88009DED088BB0EE480AF0EE680A0DB0BDEC78
:102D9800048BBDE8F08F45EC104B00F0BEFE002818
:102DA800F0D052465B4620462946FDF733FE002800
:102DB800E8D0012302936D4B03936B4BCDF8288029
:102DC80093F90030CDE90467CDE9064513B9CDE99B
:102DD80008ABA1E767490020CDE90801022B9BD188
:102DE800FFF730FF21230360C4E7B0EE480AF0EE96
:102DF800680A00F092FE0190002840F08A8047ECB3
:102E0800106B00F08AFE002800F0838045EC104B20
:102E180000F083FE00287CD053EC182B18EE100A23
:102E28001946FDF71FFE98F90090504BB0B10122EA
:102E38000393019B02920A93CDE90467CDE9064505
:102E4800B9F1000FC3D052465B4650465946FDF7CC
:102E580099FCB9F1020FCDE90801C0E703220292FB
:102E680003930A90CDE90467CDE90645B9F1000F4F
:102E78002CD1414B4FF06042CDE9082330465246F1
:102E88005B463946FDF7C6FD002866D000223B4B5D
:102E980020462946FDF74CFB04460D4645EC104BF1
:102EA80000F04EFE204653EC102B2946FDF7A8FDF6
:102EB80020B9334B4FF06042CDE9082398F9003030
:102EC800022B4AD1FFF7BEFE22238CE72D4B0022AE
:102ED800CDE90823304652465B463946FDF79AFD50
:102EE8000028EBD00022254B20462946FDF720FB81
:102EF80004460D4645EC104B00F022FE204653ECEC
:102F0800102B2946FDF77CFD0028D7D10022194B4C
:102F1800D2E70022002351EC180BFDF771FD0028C1
:102F28003FF430AF47EC106B00F0F7FD00283FF49A
:102F380029AF45EC104B00F0F0FD00283FF422AF1C
:102F480004230293094B039300230A93CDE90467F2
:102F5800CDE906458DED089BB0E702A800F0E5FD38
:102F680000287FF407AFADE770000020883D000817
:102F78000000F03F0000F0FFFFFFEF470000E03FD8
:102F8800FFFFEFC70000F07F2DE9F04F91B08DED06
:102F9800001B9DE8040257EC106B29F0004858EA22
:102FA800020310EE10AA3D4600F0BD84784B27F0CE
:102FB80000449C4209DC03D13EB9A0450DDC01E088
:102FC800984502DC98450ED16AB104F1404404F5F5
:102FD800801454EA0A0300F0A6846E4811B0BDE8D4
:102FE800F04F00F0A5BD002D53DA6B4B98454DDC32
:102FF800A3F1547398454CDD4FEA2853A3F2FF33ED
:10300800142B26DDC3F1340322FA03F101FA03F38A
:103018009A423ED101F00101C1F1020B002A5BD1B5
:103028005B4B984524D104F1404303F5801353EAE0
:103038000A0300F07884594B9C422DDDB9F1000F4A
:1030480080F275840020002141EC100B11B0BDE81E
:10305800F08F002A3ED1C3F1140348FA03F101FAB4
:1030680003F3984540F06B8401F00101C1F1020BB4
:103078004B4B984518D1B9F1000F80F25C84484950
:1030880032463B460020FDF77DFBDDE74FF0020BA3
:10309800C4E74FF0000BC1E7B9F1000FD2DA9DE8A1
:1030A800090003F10041CFE7B9F1804F06D132465C
:1030B8003B4610461946FDF73BFAC5E7394B99459B
:1030C8000AD1002D08DB47EC106B11B0BDE8F04FBA
:1030D80000F06CBC4FF0000B47EC106B00F016FDD5
:1030E80051EC100BBAF1000F27D124B12C4B25F06D
:1030F80040429A4221D1B9F1000F05DA02460B4647
:1031080000202749FDF73EFB002D9DDA04F14044DD
:1031180004F5801454EA0B0308D102460B46104606
:103128001946FDF751F802460B46ACE7BBF1010F13
:103138008AD101F10043194686E7ED0F6B1E0D9306
:103148005BEA030302D132463B46E8E7164B984553
:1031580040F3FE8003F1047398450ADD0F4B9C424F
:103168000DDCB9F1000FBFF66DAF07A3D3E900235B
:103178009FE70E4B9C42F4DD094B9C4218DDB9F1E8
:10318800000FF2DC5EE700BF9C7500883CE4377EE8
:103198000000F07F8B3D0008FFFF3F43FFFFEF3F3C
:1031A8000000F03F0000E03F0000E041FEFFEF3F7D
:1031B8000022634BFDF708F855A3D3E90023044622
:1031C8000D46FDF7B5F954A3D3E9002306460F468B
:1031D80020462946FDF7ACF90022CDE90201594BFA
:1031E80020462946FDF7A4F902460B464CA1D1E931
:1031F8000001FCF7E9FF22462B46FDF799F9024644
:103208000B4600205049FCF7DFFF22462B4680463C
:10321800894620462946FDF78BF902460B4640466B
:103228004946FDF785F940A3D3E90023FDF780F966
:1032380002460B46DDE90201FCF7C6FF02460B46D3
:1032480004460D4630463946FCF7C0FF0020CDE95C
:10325800040132463B46FCF7B7FF02460B462046C0
:103268002946FCF7B1FF0D9A0BF1FF3313430646CD
:103278000F4640F0EB819FED2E7BDDE900450024F1
:1032880022462B46DDE900018DED027BFCF79CFF11
:10329800DDE90423FDF74CF9DDE900238046894682
:1032A80030463946FDF744F902460B464046494642
:1032B800FCF78CFF22462B4680468946DDE904014F
:1032C800FDF736F90B4604460D4602464946404688
:1032D800CDE90045FCF77AFF1C4B994206460F469C
:1032E8008B4640F3F78201F13F4303F5E0030343C4
:1032F80000F0EA8110A3D3E90023DDE90201FDF71C
:1033080017F90DA3D3E90023D5E600BFAFF300807A
:10331800000000604715F73F44DF5DF80BAE543EF0
:10332800555555555555D53FFE822B654715F73FE1
:10333800000000000000F0BF9C7500883CE4377E68
:103348000000F03F0000D03F0000E03FFFFF8F404B
:10335800B4F5801F4FF0000205DAD34BFDF7E8F80B
:103368006FF034020C462315A3F2FF33134407937E
:10337800CE4BC4F3130444F07F559C4245F44015EA
:1033880008DDCB4B9C4240F35E81079B01330793DA
:10339800A5F580154FF0000A4FEACA030C930C9A62
:1033A800C44B134493ED007B294653EC172B8DED4A
:1033B8000A7BCDE90801FCF707FFDDE90A23064689
:1033C8000F46DDE90801FCF701FF02460B46002025
:1033D800B949FDF7D7F9CDE90E0102460B4630464B
:1033E8003946FDF7A5F8CDE90401DDE90434CDE956
:1033F800023400230293DDE902896D1045F000557F
:1034080005F50025002205EB8A4340464946144647
:103418001D46FDF78DF802460B4630463946FCF747
:10342800D3FEDDE90A2306460F4620462946FCF767
:10343800CBFE02460B46DDE90801FCF7C5FE424615
:103448004B46FDF775F802460B4630463946FCF701
:10345800BBFEDDE90E23FDF76BF8DDE90423CDE9BA
:10346800080110461946FDF763F87BA3D3E900234A
:1034780004460D46FDF75CF879A3D3E90023FCF771
:10348800A5FE22462B46FDF753F877A3D3E9002380
:10349800FCF79CFE22462B46FDF74AF874A3D3E9B5
:1034A8000023FCF793FE22462B46FDF741F872A352
:1034B800D3E90023FCF78AFE22462B46FDF738F8AD
:1034C8006FA3D3E90023FCF781FE224606460F4688
:1034D8002B4620462946FDF72BF802460B46304678
:1034E8003946FDF725F8424604460D464B46DDE9C8
:1034F8000401FCF76BFEDDE90823FDF719F8224605
:103508002B46FCF763FE424606460F464B464046AE
:103518004946FDF70DF80022684BCDE90A01FCF792
:1035280055FE32463B46FCF751FE02980D460446CE
:1035380002460B4640464946FCF7FAFF0022804601
:1035480089465E4B20462946FCF73EFEDDE90A2304
:10355800FCF73AFE02460B4630463946FCF734FE85
:10356800DDE90423FCF7E4FF224606460F462B4616
:10357800DDE90801FCF7DCFF02460B463046394618
:10358800FCF724FE06460F4602460B4640464946CF
:10359800FCF71CFE02983CA3D3E9002304460D4621
:1035A800FCF7C6FF4246CDE908014B4620462946AE
:1035B800FCF70AFE02460B4630463946FCF704FE85
:1035C80033A3D3E90023FCF7B3FF33A3D3E90023E4
:1035D80006460F4620462946FCF7AAFF02460B4638
:1035E80030463946FCF7F2FD0C9A354B1344D3E9C3
:1035F8000023FCF7EBFD044607980D46FCF732FF65
:103608000C9A304B1344D3E9008906460F462246EC
:103618002B46DDE90801FCF7D9FD42464B46FCF78D
:10362800D5FD32463B46FCF7D1FD029832463B4673
:10363800CDE90401FCF7C8FD42464B46FCF7C4FD42
:10364800DDE9082307E64FF0010AA5E69FED147BA4
:1036580013E600BFAFF30080EF4E454A287ECA3F0D
:1036680065DBC9934A86CD3F01411DA96074D13FEE
:103678004D268F515555D53FFFAB6FDBB66DDB3F00
:10368800033333333333E33F000000E009C7EE3F31
:10369800FD033ADC09C7EE3FF5015B14E02F3EBE9F
:1036A800000000000000F03F000040438E98030037
:1036B80079B60B00903D00080000F03F000008407C
:1036C800B03D0008A03D0008B6A3D3E9002340465A
:1036D8004946FCF77BFD2246CDE904012B463046DE
:1036E8003946FCF771FD02460B46DDE90401FDF79A
:1036F800AFF900287FF4FEADA54A2BF000439342B2
:1037080040F30C811B154FF4801AA3F2FE334AFADA
:1037180003F35B44C3F30A529E4EA2F2FF321641F2
:10372800C3F3130A002023EA0601C2F114024AF483
:10373800801A4AFA02FABBF1000F02460B462046ED
:103748002946B8BFCAF1000AFCF73EFDCDE90001E1
:1037580042464B46DDE90001FCF738FD00207AA31C
:10376800D3E9002304460D46FCF7E2FEDDE9002319
:1037780006460F4620462946FCF726FD02460B461C
:1037880040464946FCF720FD71A3D3E90023FCF726
:10379800CFFE71A3D3E900238046894620462946F7
:1037A800FCF7C6FE02460B4640464946FCF70EFDAE
:1037B80004460D4602460B4630463946FCF706FDE0
:1037C80032463B4680468946FCF7FEFC02460B46DD
:1037D80020462946FCF7F8FC424606460F464B466B
:1037E80040464946FCF7A4FE5DA3D3E900230446FE
:1037F8000D46FCF79DFE5CA3D3E90023FCF7E4FC2F
:1038080022462B46FCF794FE59A3D3E90023FCF784
:10381800DDFC22462B46FCF78BFE57A3D3E9002399
:10382800FCF7D2FC22462B46FCF782FE54A3D3E9D0
:103838000023FCF7CBFC22462B46FCF779FE024618
:103848000B4640464946FCF7BFFC04460D46024677
:103858000B4640464946FCF76BFE0022CDE90001C5
:103868004FF0804320462946FCF7AEFC02460B4643
:10387800DDE90001FCF786FF324604460D463B466B
:1038880040464946FCF754FE32463B46FCF79EFC50
:1038980002460B4620462946FCF796FC42464B4614
:1038A800FCF792FC02460B4600203B49FCF78CFCD7
:1038B80001EB0A54B4F5801F02460B4631DA504634
:1038C80043EC102B00F0C4F951EC100BDDE9022396
:1038D800FFF7F1BB314B21F000469E427FF70CAF5A
:1038E8002F4B0B4403430BD027A3D3E90023DDE977
:1038F8000201FCF71DFE24A3D3E90023FFF7DBBB7D
:1039080022462B46FCF760FC02460B4640464946D9
:10391800FDF78AF800283FF4EFAEE5E74FF0000A1C
:1039280016E72146D2E700201B49FFF78DBBDDE9EA
:103938000001FFF789BB30463946FFF785BB934640
:10394800FFF796BBAFF3008000000000432EE63F70
:10395800EF39FAFE422EE63F396CA80C615C20BEB6
:10396800D0A4BE726937663EF16BD2C541BDBB3E7D
:103978002CDE25AF6A56113F93BDBE166CC1663F5B
:103988003E5555555555C53F59F3F8C21F6EA5010B
:103998000000E03FFFFF0F000000F03FFFCB90402A
:1039A80000346F3FFE822B654715973C2DE9F041A7
:1039B80055EC104B544EAE4310EE100A2B462A46D7
:1039C800214613D110EE102A2B4610EE100A294674
:1039D800FCF7AEFD02460B4620462946FCF7F6FBEF
:1039E80004460D4645EC104BBDE8F081002D10DC77
:1039F80025F000463043F5D05DB110EE102A2B4675
:103A080020462946FCF7E0FB02460B46FCF7BAFEC7
:103A1800E6E71B150CD1002A6DD00020D6026ED522
:103A2800441E1B1BC0F1200421FA04F422438140E8
:103A3800A3F2FF33C2F31302DD0742F4801242BF40
:103A4800520002EBD17249005810002502EBD173E5
:103A58001A44490016232C464FF40016A71997421A
:103A6800DEBFD21BBC19AD195200013B02EBD1726B
:103A78004FEA56064FEA4101F0D14FF0200E9C461E
:103A88004FF00046A24206EB0C0702DC12D18F422F
:103A980010D8002F07EB060C34DABCF1000F31DB2D
:103AA80004F10108121B8F4288BF02F1FF32C91BC3
:103AB8003344444602EBD177BEF1010E3A444FEA53
:103AC80041014FEA5606DDD10A4306D05C1C13BFFC
:103AD80001330135734623F001036A105B08E907D7
:103AE80002F17F5202F5001248BF43F0004302EB97
:103AF80000551C4676E7CA0A153B49058BE7520074
:103B080001308BE7A046CDE70000F07F53EC102B87
:103B180023F0004343EC102B704710EE903A43F02B
:103B2800004000F58010C00F70470020704700006B
:103B38009FED010B704700BF000000000000F87FF8
:103B4800F7B551EC100BC1F30A54A4F2FF36132E4B
:103B580010EE107A0B4602464FEAD17558DC002E5B
:103B68002BDA21F00042024323D0C1F313020243AF
:103B780051421143090B5B0C01F400215B0441EA3B
:103B88000307314B03EBC5033946D3E9006710EE51
:103B9800100A32463B46FCF719FBCDE900013B46CB
:103BA8003246DDE90001FCF70FFB21F0004343EA50
:103BB800C57141EC100B03B0F0BD244C344101EA4F
:103BC80004070743F5D0610803EA010002430BD05C
:103BD80023EA01014FF48023132E43FA06F30CBFA6
:103BE8004FF0004200220B431946174B03EBC50563
:103BF800D5E9004510462B462246FCF7E7FACDE901
:103C0800000122462B46DDE90001FCF7DDFAD0E78A
:103C1800332E08DDB6F5806FCBD110EE102A0B4697
:103C2800FCF7D4FAC5E7A4F213464FF0FF34F4408A
:103C38002042BED061080F421FBF4FF0804227EAE2
:103C4800010132410A43CFE7C03D0008FFFF0F00E2
:103C580070B555EC104BC5F30A5206462B46B2B95F
:103C680025F0004323433CD00022334B294610EE75
:103C7800100AFCF75DFC314A964204460D460B4695
:103C880013DA29A3D3E90023FCF752FC0AE040F237
:103C9800FF718A420CD110EE102A2B462046294685
:103CA800FCF794FA04460D461BE0C1F30A52363A73
:103CB800324440F2FE718A420BDD45EC114B9FED18
:103CC8001C0B00F03FF81AA3D3E9002351EC100BAA
:103CD800DAE7002A08DD23F0FF4323F4E00343EA90
:103CE800025545EC104B70BD12F1350F0DDA4CF250
:103CF80050339E4245EC114BE1DC9FED0B0B00F07D
:103D080021F809A3D3E90023E0E723F0FF43363283
:103D180023F4E00343EA0255204629460022084BD3
:103D2800B2E700BFAFF3008059F3F8C21F6EA501D8
:103D38009C7500883CE4377E00005043B03CFFFF90
:103D48000000903C53EC102B11EE900A23F0004138
:103D580000F0004041EA000343EC102B70470000DC
:103D6800F8B500BFF8BC08BC9E467047F8B500BF60
:083D7800F8BC08BC9E46704730
:103D80000000000001020304706F770000000000D3
:103D9000000000000000F03F000000000000F83FBD
:103DA00000000000000000000000004003B8E23FF7
:103DB000000000000000000006D0CF43EBFD4C3EA9
:103DC000000000000000304300000000000030C38D
:043DD000AD01000839
:043DD4008901000859
:103DD8000024F40010000000010000001000002082
:103DE80000000000000000000000000000000000CB
:103DF80000000000000000000000000000000000BB
:103E080000000000000000000000000000000000AA
:103E1800000000000000000000000000000000009A
:103E2800000000000000000000000000000000008A
:103E3800000000000000000000000000000000007A
:043E48000100000075
:0400000508002BF9CB
:00000001FF
