:020000040800F2
:1000000000000220CD1F0008B1080008B708000852
:10001000BD080008C3080008C90800080000000067
:10002000000000000000000000000000CF080008F1
:10003000DD08000800000000EB080008F9080008CF
:100040001D2000081D2000081D2000081D2000089C
:100050001D2000081D2000081D2000081D2000088C
:100060001D2000081D2000081D2000081D2000087C
:100070001D2000081D2000081D2000081D2000086C
:100080001D2000081D2000081D2000081D2000085C
:100090001D2000081D2000081D2000081D2000084C
:1000A0001D2000081D2000081D2000081D2000083C
:1000B0001D2000081D2000081D2000081D2000082C
:1000C0001D2000081D2000081D2000081D2000081C
:1000D0001D2000081D2000081D2000081D2000080C
:1000E0001D2000081D2000081D2000081D200008FC
:1000F0001D2000081D2000081D2000081D200008EC
:100100001D2000081D2000081D2000081D200008DB
:100110001D2000081D2000081D2000081D200008CB
:100120001D2000081D2000081D2000081D200008BB
:100130001D2000081D2000081D2000081D200008AB
:100140001D2000081D2000081D2000081D2000089B
:100150001D2000081D2000081D2000081D2000088B
:100160001D2000081D2000081D2000081D2000087B
:100170001D2000081D2000081D20000800000000B0
:080180001D2000081D200008ED
:1001880010B5054C237833B9044B13B10448AFF3C9
:1001980000800123237010BD0C0000200000000027
:1001A8007820000808B5034B1BB103490348AFF397
:1001B800008008BD00000000100000207820000822
:1001C80053B94AB9002908BF00281CBF4FF0FF31B6
:1001D8004FF0FF3000F07AB9ADF1080C6DE904CEAC
:1001E80000F006F8DDF804E0DDE9022304B070470A
:1001F8002DE9F0478C460D460446089E002B51D148
:100208008A4217466DD9B2FA82FEBEF1000F0BD0B2
:10021800CEF1200C01FA0EF520FA0CFC02FA0EF7CA
:100228004CEA050C00FA0EF44FEA174A250CBCFB01
:10023800FAF81FFA87F90AFB18CC45EA0C4508FBBF
:1002480009F3AB420AD9ED1908F1FF3280F0238196
:10025800AB4240F22081A8F102083D44ED1AA4B255
:10026800B5FBFAF00AFB105544EA054400FB09F90E
:10027800A14509D9E41900F1FF3380F00A81A145AD
:1002880040F2078102383C44A4EB090440EA0840E4
:100298000021002E61D024FA0EF40023346073602C
:1002A800BDE8F0878B4207D9002E54D0002186E89C
:1002B80021000846BDE8F087B3FA83F1002940F031
:1002C8008E80AB4202D3824200F2FA80841A65EB38
:1002D80003050120AC46002E3FD086E81010BDE88B
:1002E800F08712B90127B7FBF2F7B7FA87FEBEF11C
:1002F800000F34D1EB1B3A0C1FFA87FC0121B3FB2A
:10030800F2F8250C02FB183345EA03450CFB08F309
:10031800AB4207D9ED1908F1FF3002D2AB4200F227
:10032800D1808046ED1AA3B2B5FBF2F002FB10555E
:1003380043EA05440CFB00FCA44507D9E41900F185
:10034800FF3302D2A44500F2B8801846A4EB0C048F
:1003580040EA08409DE731463046BDE8F087CEF1D7
:10036800200405FA0EF307FA0EF720FA04F83A0CFF
:1003780025FA04F448EA0308B4FBF2F14FEA1845F9
:1003880002FB11441FFA87FC45EA044501FB0CF304
:10039800AB4200FA0EF409D9ED1901F1FF3080F0F3
:1003A8008A80AB4240F2878002393D44EB1A1FFA3B
:1003B80088F5B3FBF2F002FB103345EA034500FB76
:1003C8000CF3AB4207D9ED1900F1FF386FD2AB42FD
:1003D8006DD902383D44EB1A40EA01418FE7C1F17B
:1003E800200722FA07F88B4005FA01F448EA0303CC
:1003F80020FA07FE4FEA134CFD404EEA040EB5FB07
:10040800FCF94FEA1E440CFB19551FFA83F844EA1D
:10041800054509FB08F4AC4202FA01F200FA01FAB8
:1004280008D9ED1809F1FF3043D2AC4241D9A9F1FE
:1004380002091D442D1B1FFA8EFEB5FBFCF00CFBB8
:1004480010554EEA054400FB08F8A04507D9E41802
:1004580000F1FF3529D2A04527D902381C4440EACB
:100468000940A4EB0804A0FB02894C45C6464D464A
:1004780015D312D056B1BAEB0E0364EB050404FA97
:1004880007F7CB401F43CC40376074600021BDE8BC
:10049800F0871846F8E69046E0E6C245EAD2B8EB9F
:1004A800020E69EB03050138E4E72846D7E7404622
:1004B80091E78146BEE7014678E702383C4445E7C4
:1004C800084608E7A8F102083D442BE7704700BF3B
:1004D80080B500AF00F024FA00F022F800F008F927
:1004E80000F088F800F0DAF80A4800F0CFFA0021A6
:1004F800094800F0D0FE074800F09AFB0346DAB23C
:10050800064B1A70054B1B7808220021024800F0A0
:1005180015FFF0E72C0000207400002028000020C0
:1005280080B594B000AF07F12003302200211846AF
:1005380001F096FD07F10C0300221A605A609A60D8
:10054800DA601A610023BB60284A284B1B6C43F011
:1005580080531364254B1B6C03F08053BB60BB684E
:1005680000237B60224A224B1B6843F480431360BC
:100578001F4B1B6803F480437B607B6802233B624C
:100588000123FB6210233B630223BB630023FB634D
:1005980008233B64A8237B640223BB640423FB6415
:1005A80007F12003184601F0D7F80346002B01D0C5
:1005B80000F0C6F80F23FB6002233B6100237B6138
:1005C8004FF4A053BB614FF48053FB6107F10C0358
:1005D8000521184601F038FB0346002B01D000F036
:1005E800AFF800BF5037BD4680BD00BF003802409D
:1005F8000070004080B584B000AF3B4600221A600E
:100608005A609A60DA60224B224A1A60204B4FF4F3
:1006180080325A601E4B4FF000729A601C4B0022C9
:100628001A611B4B01221A76194B002283F82020ED
:10063800174B0022DA62164B174A9A62144B0022B3
:10064800DA60134B0122DA61114B002283F8302063
:100658000F4B01225A610E4800F0D4F90346002BD3
:1006680001D000F06DF800233B6001237B60032379
:10067800BB603B461946064800F0E8FA0346002BE3
:1006880001D000F05DF800BF1037BD4680BD00BF47
:100698002C000020002001400100000F80B582B02E
:1006A80000AF3B4600221A605A600F4B0F4A1A608F
:1006B8000D4800F0CEFD0346002B01D000F040F8B5
:1006C80000233B6000237B603B4600221946064816
:1006D80000F059FE0346002B01D000F031F800BFAE
:1006E8000837BD4680BD00BF74000020007400407C
:1006F80080B483B000AF00237B60104A0F4B1B6BA4
:1007080043F0800313630D4B1B6B03F080037B6086
:100718007B6800233B60094A084B1B6B43F00103CD
:100728001363064B1B6B03F001033B603B6800BF80
:100738000C37BD465DF8047B704700BF00380240A7
:1007480080B400AF72B6FEE780B483B000AF002378
:100758007B60104A0F4B5B6C43F4804353640D4B32
:100768005B6C03F480437B607B6800233B60094A31
:10077800084B1B6C43F080531364064B1B6C03F04F
:1007880080533B603B6800BF0C37BD465DF8047B77
:10079800704700BF0038024080B58AB000AF78606B
:1007A80007F1140300221A605A609A60DA601A612D
:1007B8007B681B68174A934227D100233B61164A7E
:1007C800154B5B6C43F480735364134B5B6C03F4FD
:1007D80080733B613B690023FB600F4A0E4B1B6B28
:1007E80043F0010313630C4B1B6B03F00103FB6025
:1007F800FB6801237B610323BB610023FB6107F1D5
:1008080014031946054800F00DFE00BF2837BD4601
:1008180080BD00BF002001400038024000000240B7
:1008280080B58AB000AF786007F1140300221A601F
:100838005A609A60DA601A617B681B68174A9342AB
:1008480027D100233B61164A154B1B6C43F000531C
:100858001364134B1B6C03F000533B613B6900238B
:10086800FB600F4A0E4B1B6B43F0010313630C4BE9
:100878001B6B03F00103FB60FB6810237B61032300
:10088800BB610023FB6107F114031946054800F01A
:10089800C9FD00BF2837BD4680BD00BF00740040B9
:1008A800003802400000024080B400AFFEE780B488
:1008B80000AFFEE780B400AFFEE780B400AFFEE70C
:1008C80080B400AFFEE780B400AF00BFBD465DF85E
:1008D800047B704780B400AF00BFBD465DF8047B61
:1008E800704780B400AF00BFBD465DF8047B704719
:1008F80080B500AF00F066F800BF80BD80B400AFDF
:10090800064A064BD3F8883043F47003C2F888309F
:1009180000BFBD465DF8047B704700BF00ED00E0F6
:1009280080B500AF0E4A0E4B1B6843F4007313608A
:100938000B4A0B4B1B6843F480631360084A084B4F
:100948001B6843F480731360032000F04FFC002001
:1009580000F008F8FFF7F8FE0023184680BD00BF36
:10096800003C024080B582B000AF7860124B1A6834
:10097800124B1B7819464FF47A73B3FBF1F3B2FBB1
:10098800F3F3184600F059FC0346002B01D001236D
:100998000EE07B680F2B0AD8002279684FF0FF30F1
:1009A80000F02FFC064A7B681360002300E0012357
:1009B80018460837BD4680BD00000020080000200A
:1009C8000400002080B400AF064B1B781A46064B83
:1009D8001B681344044A136000BFBD465DF8047BDE
:1009E800704700BF080000208800002080B400AFD6
:1009F800034B1B681846BD465DF8047B704700BF73
:100A08008800002080B584B000AF78600023FB73B5
:100A18007B68002B01D1012333E07B681B6C002B22
:100A280009D17868FFF7B8FE7B6800225A647B68B2
:100A3800002283F83C207B681B6C03F01003002B1A
:100A480018D17B681B6C23F4885323F0020343F00E
:100A580002027B681A64786800F01CFA7B6800223E
:100A68005A647B681B6C23F0030343F001027B6824
:100A78001A6401E00123FB737B68002283F83C20A1
:100A8800FB7B18461037BD4680BD000080B485B09A
:100A980000AF78600023BB607B6893F83C30012B83
:100AA80001D10223B2E07B68012283F83C207B68F5
:100AB8001B689B6803F00103012B18D07B681B6837
:100AC8007A681268926842F001029A60524B1B6879
:100AD800524AA2FB03239A0C13465B001344BB60E3
:100AE80002E0BB68013BBB60BB68002BF9D17B68A7
:100AF8001B689B6803F00103012B7AD17B681B6C90
:100B080023F4E06323F0010343F480727B681A64E2
:100B18007B681B685B6803F48063002B07D07B68E5
:100B28001B6C23F4405343F480527B681A647B683F
:100B38001B6C03F48053B3F5805F06D17B685B6C54
:100B480023F006027B685A6402E07B6800225A643C
:100B58007B68002283F83C20314BFB607B681B6874
:100B68006FF022021A60FB685B6803F01F03002B1A
:100B78002AD17B681B682B4A934215D07B681B6877
:100B8800294A934205D1264B5B6803F01F03002BCB
:100B98000AD07B681B68254A934236D1204B5B6894
:100BA80003F01F030F2B30D87B681B689B6803F08A
:100BB8004053002B29D17B681B687A6812689268B9
:100BC80042F080429A6020E07B681B68154A934295
:100BD8001BD17B681B689B6803F04053002B14D122
:100BE8007B681B687A681268926842F080429A6053
:100BF8000BE07B681B6C43F010027B681A647B680F
:100C08005B6C43F001027B685A6400231846143772
:100C1800BD465DF8047B70470000002083DE1B435F
:100C28000023014000200140002101400022014032
:100C380080B483B000AF78607B681B68DB6C1846B3
:100C48000C37BD465DF8047B7047000090B484B053
:100C580000AF786039600023BB607B6893F83C3054
:100C6800012B01D1022307E17B68012283F83C2094
:100C78003B681B68092B26D97B681A687B681B6848
:100C8800D9683B681B689BB2184603465B0003445F
:100C98001E3B072000FA03F3DB430B40D3607B685D
:100CA8001A687B681B68D9683B6898683B681B684A
:100CB8009BB21C4623465B0023441E3B00FA03F309
:100CC8000B43D36023E07B681A687B681B6819694B
:100CD8003B681B689BB2184603465B000344072029
:100CE80000FA03F3DB430B4013617B681A687B68E7
:100CF8001B6819693B6898683B681B689BB21C466F
:100D080023465B00234400FA03F30B4313613B685B
:100D18005B68062B24D87B6819687B681B68586B4E
:100D28003B685A6813469B001344053B1F2202FA8E
:100D380003F3DB4303404B637B6819687B681B68DC
:100D4800586B3B681B689BB21C463B685A68134645
:100D58009B001344053B04FA03F303434B634CE045
:100D68003B685B680C2B24D87B6819687B681B6818
:100D7800186B3B685A6813469B001344233B1F2299
:100D880002FA03F3DB4303400B637B6819687B6853
:100D98001B68186B3B681B689BB21C463B685A680B
:100DA80013469B001344233B04FA03F303430B63EA
:100DB80023E07B6819687B681B68D86A3B685A68B7
:100DC80013469B001344413B1F2202FA03F3DB4303
:100DD8000340CB627B6819687B681B68D86A3B68EC
:100DE8001B689BB21C463B685A6813469B00134419
:100DF800413B04FA03F30343CB62224BFB607B685D
:100E08001B68214A934209D13B681B68122B05D104
:100E1800FB685B6843F48002FB685A607B681B6868
:100E2800194A934223D13B681B68102B03D03B68B7
:100E38001B68112B1BD1FB685B6843F40002FB683D
:100E48005A603B681B68102B11D1104B1B68104A65
:100E5800A2FB03239A0C13469B0013445B00BB6060
:100E680002E0BB68013BBB60BB68002BF9D17B6823
:100E7800002283F83C20002318461037BD4690BC5A
:100E8800704700BF002301400020014000000020FF
:100E980083DE1B4380B485B000AF7860794BFB607C
:100EA800FB685B6823F44032FB685A60FB685A6849
:100EB8007B685B681A43FB685A607B681B687A68C2
:100EC8001268526822F480725A607B681B687A68DC
:100ED800126851687A68126912020A435A607B687C
:100EE8001B687A681268526822F040725A607B6800
:100EF8001B687A68126851687A6892680A435A606F
:100F08007B681B687A681268926822F400629A60AB
:100F18007B681B687A68126891687A68D2680A43A5
:100F28009A607B689B6A584A934222D07B681B6808
:100F38007A681268926822F070629A607B681B680F
:100F48007A68126891687A68926A0A439A607B683C
:100F58001B687A681268926822F040529A607B682F
:100F68001B687A68126891687A68D26A0A439A603C
:100F78000FE07B681B687A681268926822F07062DA
:100F88009A607B681B687A681268926822F04052FF
:100F98009A607B681B687A681268926822F002027D
:100FA8009A607B681B687A68126891687A68127E12
:100FB80052000A439A607B6893F82030002B1BD0BC
:100FC8007B681B687A681268526842F400625A604B
:100FD8007B681B687A681268526822F460425A601B
:100FE8007B681B687A68126851687A68526A013AA5
:100FF80052030A435A6007E07B681B687A681268E4
:10100800526822F400625A607B681B687A6812682A
:10101800D26A22F47002DA627B681B687A68126806
:10102800D16A7A68D269013A12050A43DA627B68A2
:101038001B687A681268926822F400729A607B686A
:101048001B687A68126891687A6892F830205202B0
:101058000A439A607B681B687A681268926822F46F
:1010680080629A607B681B687A68126891687A68FF
:10107800526992020A439A6000BF1437BD465DF870
:10108800047B7047002301400100000F80B485B045
:1010980000AF78607B6803F00703FB600C4BDB68EC
:1010A800BB60BA684FF6FF031340BB60FB681A02C7
:1010B800BB68134343F0BF6343F40033BB60044A87
:1010C800BB68D36000BF1437BD465DF8047B70472A
:1010D80000ED00E080B400AF044BDB681B0A03F0AE
:1010E80007031846BD465DF8047B704700ED00E035
:1010F80080B483B000AF03463960FB7197F90730BD
:10110800002B0ADB0D4997F907303A68D2B2120171
:10111800D2B20B4483F800230AE00949FB7903F0B3
:101128000F03043B3A68D2B21201D2B20B441A76CA
:1011380000BF0C37BD465DF8047B704700E100E056
:1011480000ED00E080B489B000AFF860B9607A6063
:10115800FB6803F00703FB61FB69C3F10703042B7A
:1011680028BF0423BB61FB690433062B02D9FB6942
:10117800033B00E000237B610122BB6902FA03F311
:101188005A1EBB681A407B699A4001217B6901FAA3
:1011980003F3591E7B680B40134318462437BD469A
:1011A8005DF8047B7047000080B582B000AF7860BE
:1011B8007B68013BB3F1807F01D301230FE00A4A2A
:1011C8007B68013B53600F214FF0FF30FFF790FF22
:1011D800054B00229A60044B07221A600023184628
:1011E8000837BD4680BD00BF10E000E080B582B082
:1011F80000AF78607868FFF749FF00BF0837BD4641
:1012080080BD80B586B000AF0346B9607A60FB73D5
:1012180000237B61FFF75EFF78617A68B9687869B7
:10122800FFF790FF024697F90F3011461846FFF76F
:101238005FFF00BF1837BD4680BD80B582B000AFE4
:1012480078607868FFF7B0FF034618460837BD4650
:1012580080BD80B582B000AF78607B68002B01D17B
:10126800012314E07B681B79DBB2002B05D17B6876
:1012780000225A717868FFF7D3FA7B6802221A7144
:101288007B6800221A617B6801221A7100231846C4
:101298000837BD4680BD80B483B000AF7860396040
:1012A8007B685B79012B01D1022341E07B68012235
:1012B8005A717B6802221A717B681B687A68126807
:1012C80011683A6802F01002012000FA02F20A439B
:1012D8001A603B68002B0FD17B681B681B6803F002
:1012E8003C033C2B1DD17B681B687A6812685268E6
:1012F80042F001025A6014E07B681B681B6803F423
:1013080070123B6803F010033C2101FA03F39A4280
:1013180007D17B681B687A681268526842F002023B
:101328005A607B6801221A717B6800225A71002377
:1013380018460C37BD465DF8047B704780B487B00B
:1013480000AFF860B9607A603B6000237B61FB689E
:101358001B687B61BB68002B05D17A697B681344E5
:1013680008337B6104E07A697B68134414337B613A
:101378007B691A463B681360002318461C37BD4634
:101388005DF8047B704780B487B000AFF860B9603F
:101398007A60FB685B79012B01D102233CE0FB6892
:1013A80001225A71FB6802221A71FB681B681B68CC
:1013B8007B617B6803F0100340F6FE7202FA03F3C8
:1013C800DB437A6913407B61BB681A68BB685B685A
:1013D80013433B617B6803F010033A6902FA03F395
:1013E8007A6913437B61FB681B687A691A60FB683A
:1013F8001B68FA68126811687A6802F01002C02047
:1014080000FA02F2D2430A401A60FB6801221A71FC
:10141800FB6800225A71002318461C37BD465DF848
:10142800047B704780B489B000AF786039600023CE
:101438007B6100233B610023BB610023FB616BE1FF
:101448000122FB6902FA03F37B613B681A687B6936
:1014580013403B613A697B699A4240F05A813B6884
:101468005B6803F00303012B05D03B685B6803F05E
:101478000303022B30D17B689B68BB61FB695B006F
:10148800032202FA03F3DB43BA691340BB613B68EA
:10149800DA68FB695B0002FA03F3BA691343BB61BC
:1014A8007B68BA699A607B685B68BB610122FB69EB
:1014B80002FA03F3DB43BA691340BB613B685B681C
:1014C8001B0903F00102FB6902FA03F3BA6913432B
:1014D800BB617B68BA695A603B685B6803F00303C9
:1014E800032B17D07B68DB68BB61FB695B000322B9
:1014F80002FA03F3DB43BA691340BB613B689A689D
:10150800FB695B0002FA03F3BA691343BB617B68AA
:10151800BA69DA603B685B6803F00303022B23D1E6
:10152800FB69DA087B68083253F82230BB61FB6933
:1015380003F007039B000F2202FA03F3DB43BA69A7
:101548001340BB613B681A69FB6903F007039B0002
:1015580002FA03F3BA691343BB61FB69DA087B68D3
:101568000832B96943F822107B681B68BB61FB69C4
:101578005B00032202FA03F3DB43BA691340BB6141
:101588003B685B6803F00302FB695B0002FA03F344
:10159800BA691343BB617B68BA691A603B685B68C8
:1015A80003F44033002B00F0B4800023FB605F4A53
:1015B8005E4B5B6C43F4804353645C4B5B6C03F49D
:1015C8008043FB60FB685A4AFB699B08023352F868
:1015D8002330BB61FB6903F003039B000F2202FA6F
:1015E80003F3DB43BA691340BB617B68514A9342FA
:1015F8002BD07B68504A934225D07B684F4A934250
:101608001FD07B684E4A934219D07B684D4A93425B
:1016180013D07B684C4A93420DD07B684B4A934267
:1016280007D07B684A4A934201D107230EE008237A
:101638000CE006230AE0052308E0042306E0032360
:1016480004E0022302E0012300E00023FA6902F02B
:10165800030292009340BA691343BB613449FB69A2
:101668009B080233BA6941F823203A4B1B68BB61D7
:101678003B69DB43BA691340BB613B685B6803F4B1
:101688008033002B03D0BA693B691343BB61314AED
:10169800BB6913602F4B5B68BB613B69DB43BA696D
:1016A8001340BB613B685B6803F40033002B03D035
:1016B800BA693B691343BB61264ABB695360254B32
:1016C8009B68BB613B69DB43BA691340BB613B68FC
:1016D8005B6803F48013002B03D0BA693B6913439A
:1016E800BB611C4ABB6993601A4BDB68BB613B69F1
:1016F800DB43BA691340BB613B685B6803F40013C2
:10170800002B03D0BA693B691343BB61114ABB691B
:10171800D360FB690133FB61FB690F2B7FF690AE49
:1017280000BF2437BD465DF8047B7047003802408F
:101738000038014000000240000402400008024056
:10174800000C024000100240001402400018024041
:10175800001C0240003C014080B586B000AF7860B4
:101768007B68002B01D1012364E27B681B6803F0CE
:101778000103002B75D0A34B9B6803F00C03042BCB
:101788000CD0A04B9B6803F00C03082B12D19D4B87
:101798005B6803F48003B3F5800F0BD1994B1B688A
:1017A80003F40033002B5BD07B685B68002B57D1B8
:1017B80001233FE27B685B68B3F5803F06D1914A1D
:1017C800904B1B6843F4803313601DE07B685B68B3
:1017D800B3F5A02F0CD18B4A8A4B1B6843F48023A6
:1017E8001360884A874B1B6843F4803313600BE00F
:1017F800844A844B1B6823F480331360814A814BED
:101808001B6823F4802313607B685B68002B13D06C
:10181800FFF7ECF8386108E0FFF7E8F802463B69A3
:10182800D31A642B01D9032304E2764B1B6803F413
:101838000033002BF0D014E0FFF7D8F8386108E047
:10184800FFF7D4F802463B69D31A642B01D9032366
:10185800F0E16C4B1B6803F40033002BF0D100E07F
:1018680000BF7B681B6803F00203002B63D0654B45
:101878009B6803F00C03002B0BD0624B9B6803F0B2
:101888000C03082B1CD15F4B5B6803F48003002B0F
:1018980016D15C4B1B6803F00203002B05D07B6854
:1018A800DB68012B01D00123C4E15649554B1B6865
:1018B80023F0F8027B681B69DB0013430B603AE0F6
:1018C8007B68DB68002B20D04F4B01221A60FFF7A2
:1018D8008DF8386108E0FFF789F802463B69D31AAA
:1018E800022B01D90323A5E1464B1B6803F0020331
:1018F800002BF0D04349434B1B6823F0F8027B6868
:101908001B69DB0013430B6015E03F4B00221A6094
:10191800FFF76CF8386108E0FFF768F802463B69A2
:10192800D31A022B01D9032384E1364B1B6803F039
:101938000203002BF0D17B681B6803F00803002B1F
:1019480030D07B685B69002B16D0304B01221A60BF
:10195800FFF74CF8386108E0FFF748F802463B69A2
:10196800D31A022B01D9032364E1264B5B6F03F0E2
:101978000203002BF0D015E0244B00221A60FFF779
:1019880035F8386108E0FFF731F802463B69D31AA9
:10199800022B01D903234DE11A4B5B6F03F00203BD
:1019A800002BF0D17B681B6803F00403002B00F0C8
:1019B800A0800023FB75134B1B6C03F08053002B96
:1019C8000FD10023BB600F4A0E4B1B6C43F08053B2
:1019D80013640C4B1B6C03F08053BB60BB68012382
:1019E800FB750B4B1B6803F48073002B21D1084A4D
:1019F800074B1B6843F480731360FEF7F7FF3861E9
:101A080011E000BF0038024000004742800E474204
:101A180000700040FEF7EAFF02463B69D31A022B2A
:101A280001D9032306E1854B1B6803F48073002B5F
:101A3800F0D07B689B68012B06D1814A804B1B6FD5
:101A480043F0010313671CE07B689B68052B0CD1EE
:101A58007B4A7B4B1B6F43F004031367784A784B30
:101A68001B6F43F0010313670BE0754A744B1B6F40
:101A780023F001031367724A714B1B6F23F00403B1
:101A880013677B689B68002B15D0FEF7AFFF3861A2
:101A98000AE0FEF7ABFF02463B69D31A41F28832EF
:101AA800934201D90323C5E0654B1B6F03F0020382
:101AB800002BEED014E0FEF799FF38610AE0FEF73C
:101AC80095FF02463B69D31A41F28832934201D905
:101AD8000323AFE05A4B1B6F03F00203002BEED138
:101AE800FB7D012B05D1564A554B1B6C23F08053C7
:101AF80013647B689B69002B00F09B80504B9B68AC
:101B080003F00C03082B5CD07B689B69022B41D146
:101B18004C4B00221A60FEF769FF386108E0FEF7B7
:101B280065FF02463B69D31A022B01D9032381E0E2
:101B3800434B1B6803F00073002BF0D140497B68CE
:101B4800DA697B681B6A1A437B685B6A9B011A43E4
:101B58007B689B6A5B08013B1B041A437B68DB6A52
:101B68001B0613434B60374B01221A60FEF73EFFFA
:101B7800386108E0FEF73AFF02463B69D31A022BA8
:101B880001D9032356E02E4B1B6803F00073002B8A
:101B9800F0D04EE02B4B00221A60FEF727FF386189
:101BA80008E0FEF723FF02463B69D31A022B01D94E
:101BB80003233FE0224B1B6803F00073002BF0D196
:101BC80037E07B689B69012B01D1012332E01C4B74
:101BD8005B68FB607B689B69012B28D0FB6803F47A
:101BE80080027B68DB699A4221D1FB6803F03F02DF
:101BF8007B681B6A9A421AD1FA6847F6C073134089
:101C08007A68526A9201934211D1FB6803F4403218
:101C18007B689B6A5B08013B1B049A4207D1FB68FF
:101C280003F070627B68DB6A1B069A4201D00123CD
:101C380000E0002318461837BD4680BD00700040FC
:101C4800003802406000474280B584B000AF786039
:101C580039607B68002B01D10123CCE0684B1B68FD
:101C680003F007023B689A420CD2654B3A68D2B23D
:101C78001A70634B1B6803F007023B689A4201D055
:101C88000123B8E07B681B6803F00203002B20D017
:101C98007B681B6803F00403002B05D0594A594B95
:101CA8009B6843F4E05393607B681B6803F0080368
:101CB800002B05D0534A534B9B6843F46043936011
:101CC8005049504B9B6823F0F0027B689B68134394
:101CD8008B607B681B6803F00103002B44D07B6892
:101CE8005B68012B07D1474B1B6803F40033002BBB
:101CF80019D101237FE07B685B68022B03D07B68E6
:101D08005B68032B07D13F4B1B6803F00073002B64
:101D180009D101236FE03B4B1B6803F00203002B42
:101D280001D1012367E03749364B9B6823F0030252
:101D38007B685B6813438B60FEF758FEF8600AE027
:101D4800FEF754FE0246FB68D31A41F288329342EA
:101D580001D903234FE02B4B9B6803F00C027B68EF
:101D68005B689B009A42EBD1254B1B6803F0070286
:101D78003B689A420CD9224B3A68D2B21A70204B6F
:101D88001B6803F007023B689A4201D0012332E046
:101D98007B681B6803F00403002B08D01949194B12
:101DA8009B6823F4E0527B68DB6813438B607B6895
:101DB8001B6803F00803002B09D01249114B9B68DC
:101DC80023F460427B681B69DB0013438B6000F0DF
:101DD80021F801460B4B9B681B0903F00F030A4AC5
:101DE800D35C21FA03F3094A1360094B1B681846B0
:101DF800FEF7B8FD002318461037BD4680BD00BF6A
:101E0800003C0240003802409020000800000020FA
:101E1800040000202DE9F04F8FB000AF0023FB62D3
:101E280000237B630023BB6200233B63624B9B68F8
:101E380003F00C03042B07D0082B08D0002B40F02C
:101E4800B2805E4B3B63B1E05D4B3B63AEE05A4B07
:101E58005B6803F03F03FB62574B5B6803F4800346
:101E6800002B4ED0544B5B689B094FF0000440F2A6
:101E7800FF114FF0000201EA030102EA04020B46D7
:101E8800144660017862786A40EAD36078625B0140
:101E98003B62D7E908345B1A64EB02044FEA841901
:101EA80049EA93694FEA8318B8EB030869EB040918
:101EB8004FEAC903FB61FB6943EA5873FB614FEAC8
:101EC800C803BB61D7E9068918EB010849EB020989
:101ED8004FEA49237B617B6943EAD8537B614FEA28
:101EE80048233B61D7E9048940464946FB6A4FF0DD
:101EF80000041A462346FEF763F903460C467B6343
:101F080043E02D4B5B689B094FF0000440F2FF1142
:101F18004FF0000201EA030102EA04020B461446EC
:101F28006001F860F86840EAD360F8605B01BB6064
:101F3800D7E902345B1A64EB0204A60146EA936609
:101F48009D01ED1A66EB0406F3007B607B6843EAAB
:101F580055737B60EB003B6097E860006D1846EBBB
:101F680002064FEA862B4BEA955B4FEA852A5546CF
:101F78005E4628463146FB6A4FF000041A4623465F
:101F8800FEF71EF903460C467B630B4B5B681B0C84
:101F980003F0030301335B00BB627A6BBB6AB2FBDD
:101FA800F3F33B6302E0054B3B6300BF3B6B184612
:101FB8003C37BD46BDE8F08F003802400024F400ED
:101FC80000127A00DFF834D00D480E490E4A00237B
:101FD80002E0D458C4500433C4188C42F9D30B4AD5
:101FE8000B4C002301E013600432A242FBD3FEF73E
:101FF80085FC00F011F8FEF76BFA7047000002202C
:10200800000000200C000020B02000080C00002078
:102018008C000020FEE7000070B50D4E0D4CA41B8F
:10202800A4100025A54209D10B4E0C4C00F020F855
:10203800A41BA4100025A54205D170BD56F8253073
:1020480098470135EEE756F8253098470135F2E70D
:10205800A8200008A8200008A8200008AC20000834
:1020680002440346934200D1704703F8011BF9E785
:10207800F8B500BFF8BC08BC9E467047F8B500BF6D
:08208800F8BC08BC9E4670473D
:102090000000000000000000010203040607080918
:0820A00058E1FF7F0100000080
:0420A800AD0100087E
:0420AC00890100089E
:0C20B0000024F4001000000001000000FB
:0400000508001FCD03
:00000001FF
