:020000040800F2
:100000000000022049260008C1100008C71000089F
:10001000CD100008D3100008D9100008000000001F
:10002000000000000000000000000000DF100008D9
:10003000ED10000800000000FB1000080911000886
:100040009926000899260008992600089926000894
:100050009926000899260008992600089926000884
:100060009926000899260008992600089926000874
:100070009926000899260008992600089926000864
:100080009926000899260008992600089926000854
:100090009926000899260008992600089926000844
:1000A0009926000899260008992600089926000834
:1000B0009926000899260008992600089926000824
:1000C0009926000899260008992600089926000814
:1000D0009926000899260008992600089926000804
:1000E00099260008992600089926000899260008F4
:1000F00099260008992600089926000899260008E4
:1001000099260008992600089926000899260008D3
:1001100099260008992600089926000899260008C3
:1001200099260008992600089926000899260008B3
:1001300099260008992600089926000899260008A3
:100140009926000899260008992600089926000893
:100150009926000899260008992600089926000883
:100160009926000899260008992600089926000873
:10017000992600089926000899260008000000002A
:080180009926000899260008E9
:1001880010B5054C237833B9044B13B10448AFF3C9
:1001980000800123237010BD100000200000000023
:1001A800F426000808B5034B1BB103490348AFF315
:1001B800008008BD0000000014000020F42600089C
:1001C80081F0004102E000BF83F0004330B54FEA00
:1001D80041044FEA430594EA050F08BF90EA020F6D
:1001E8001FBF54EA000C55EA020C7FEA645C7FEA00
:1001F800655C00F0E2804FEA5454D4EB5555B8BF23
:100208006D420CDD2C4480EA020281EA030382EA93
:10021800000083EA010180EA020281EA0303362D25
:1002280088BF30BD11F0004F4FEA01314FF4801CF8
:100238004CEA113102D0404261EB410113F0004F0A
:100248004FEA03334CEA133302D0524263EB4303C1
:1002580094EA050F00F0A780A4F10104D5F1200E5F
:100268000DDB02FA0EFC22FA05F2801841F10001BA
:1002780003FA0EF2801843FA05F359410EE0A5F18E
:1002880020050EF1200E012A03FA0EFC28BF4CF0BF
:10029800020C43FA05F3C01851EBE37101F0004575
:1002A80007D54FF0000EDCF1000C7EEB00006EEB82
:1002B8000101B1F5801F1BD3B1F5001F0CD349080C
:1002C8005FEA30004FEA3C0C04F101044FEA445263
:1002D80012F5800F80F09A80BCF1004F08BF5FEAEA
:1002E800500C50F1000041EB045141EA050130BDCA
:1002F8005FEA4C0C404141EB010111F4801FA4F16D
:100308000104E9D191F0000F04BF01460020B1FAC1
:1003180081F308BF2033A3F10B03B3F120020CDAF9
:100328000C3208DD02F1140CC2F10C0201FA0CF0D7
:1003380021FA02F10CE002F11402D8BFC2F1200C3C
:1003480001FA02F120FA0CFCDCBF41EA0C019040F2
:10035800E41AA2BF01EB0451294330BD6FEA04043B
:100368001F3C1CDA0C340EDC04F11404C4F1200226
:1003780020FA04F001FA02F340EA030021FA04F338
:1003880045EA030130BDC4F10C04C4F1200220FA8F
:1003980002F001FA04F340EA0300294630BD21FACD
:1003A80004F0294630BD94F0000F83F4801306BF93
:1003B80081F480110134013D4EE77FEA645C18BF87
:1003C8007FEA655C29D094EA050F08BF90EA020F1E
:1003D80005D054EA000C04BF1946104630BD91EA16
:1003E800030F1EBF0021002030BD5FEA545C05D119
:1003F8004000494128BF41F0004130BD14F5800458
:100408003CBF01F5801130BD01F0004545F0FE41CB
:1004180041F470014FF0000030BD7FEA645C1ABF00
:10042800194610467FEA655C1CBF0B46024650EA37
:10043800013406BF52EA033591EA030F41F4002163
:1004480030BD00BF90F0000F04BF0021704730B5E9
:100458004FF4806404F132044FF000054FF00001BE
:1004680050E700BF90F0000F04BF0021704730B57F
:100478004FF4806404F1320410F0004548BF404254
:100488004FF000013EE700BF42004FEAE2014FEAA9
:1004980031014FEA02701FBF12F07F4393F07F4F84
:1004A80081F06051704792F0000F14BF93F07F4FB6
:1004B800704730B54FF4607401F0004521F00041F9
:1004C80020E700BF50EA010208BF704730B54FF07F
:1004D80000050AE050EA010208BF704730B511F084
:1004E800004502D5404261EB41014FF4806404F1BC
:1004F80032045FEA915C3FF4DCAE4FF003025FEA3E
:10050800DC0C18BF03325FEADC0C18BF033202EBC5
:10051800DC02C2F1200300FA03FC20FA02F001FA1F
:1005280003FE40EA0E0021FA02F11444C1E600BFBE
:1005380070B54FF0FF0C4CF4E06C1CEA11541DBF71
:100548001CEA135594EA0C0F95EA0C0F00F0DEF83C
:100558002C4481EA030621EA4C5123EA4C5350EA21
:10056800013518BF52EA033541F4801143F4801372
:1005780038D0A0FB02CE4FF00005E1FB02E506F003
:100588000042E0FB03E54FF00006E1FB03569CF058
:10059800000F18BF4EF0010EA4F1FF04B6F5007F5E
:1005A80064F5407404D25FEA4E0E6D4146EB0606D0
:1005B80042EAC62141EA55514FEAC52040EA5E5059
:1005C8004FEACE2EB4F1FD0C88BFBCF5E06F1ED803
:1005D800BEF1004F08BF5FEA500E50F1000041EB3A
:1005E800045170BD06F0004646EA010140EA0200E7
:1005F80081EA0301B4EB5C04C2BFD4EB0C0541EA09
:10060800045170BD41F480114FF0000E013C00F31D
:10061800AB8014F1360FDEBF002001F0004170BD41
:10062800C4F10004203C35DA0C341BDC04F114045A
:10063800C4F1200500FA05F320FA04F001FA05F2E6
:1006480040EA020001F0004221F0004110EBD370B3
:1006580021FA04F642EB06015EEA430E08BF20EADF
:10066800D37070BDC4F10C04C4F1200500FA04F382
:1006780020FA05F001FA04F240EA020001F0004114
:1006880010EBD37041F100015EEA430E08BF20EA87
:10069800D37070BDC4F1200500FA05F24EEA020ECF
:1006A80020FA04F301FA05F243EA020321FA04F0FE
:1006B80001F0004121FA04F220EA020000EBD370B5
:1006C8005EEA430E08BF20EAD37070BD94F0000FB5
:1006D8000FD101F00046400041EB010111F4801FE9
:1006E80008BF013CF7D041EA060195F0000F18BF9A
:1006F800704703F00046520043EB030313F4801FD6
:1007080008BF013DF7D043EA0603704794EA0C0F8F
:100718000CEA135518BF95EA0C0F0CD050EA4106A5
:1007280018BF52EA4306D1D181EA030101F0004122
:100738004FF0000070BD50EA410606BF104619464A
:1007480052EA430619D094EA0C0F02D150EA013656
:1007580013D195EA0C0F05D152EA03361CBF104697
:1007680019460AD181EA030101F0004141F0FE4136
:1007780041F470014FF0000070BD41F0FE4141F4BA
:10078800780170BD70B54FF0FF0C4CF4E06C1CEABA
:1007980011541DBF1CEA135594EA0C0F95EA0C0F6F
:1007A80000F0A7F8A4EB050481EA030E52EA03352A
:1007B8004FEA013100F088804FEA03334FF080554B
:1007C80045EA131343EA12634FEA022245EA111578
:1007D80045EA10654FEA00260EF000419D4208BF29
:1007E800964244F1FD0404F5407402D25B084FEAD6
:1007F8003202B61A65EB03055B084FEA32024FF482
:1008080080104FF4002CB6EB020E75EB030E22BFDE
:10081800B61A754640EA0C005B084FEA3202B6EB9E
:10082800020E75EB030E22BFB61A754640EA5C004D
:100838005B084FEA3202B6EB020E75EB030E22BFDD
:10084800B61A754640EA9C005B084FEA3202B6EBDE
:10085800020E75EB030E22BFB61A754640EADC009D
:1008680055EA060E18D04FEA051545EA16754FEAFF
:1008780006164FEAC30343EA52734FEAC2025FEA1D
:100888001C1CC0D111F4801F0BD141EA00014FF0AC
:1008980000004FF0004CB6E711F4801F04BF01437D
:1008A8000020B4F1FD0C88BFBCF5E06F3FF6AFAE99
:1008B800B5EB030C04BFB6EB020C5FEA500C50F129
:1008C800000041EB045170BD0EF0004E4EEA1131AC
:1008D80014EB5C04C2BFD4EB0C0541EA045170BDB3
:1008E80041F480114FF0000E013C90E645EA060EF7
:1008F8008DE60CEA135594EA0C0F08BF95EA0C0F25
:100908003FF43BAF94EA0C0F0AD150EA01347FF46C
:1009180034AF95EA0C0F7FF425AF104619462CE743
:1009280095EA0C0F06D152EA03353FF4FDAE1046A6
:10093800194622E750EA410618BF52EA43067FF4F7
:10094800C5AE50EA41047FF40DAF52EA43057FF487
:10095800EBAE12E753B94AB9002908BF00281CBFFB
:100968004FF0FF314FF0FF3000F07AB9ADF1080CCD
:100978006DE904CE00F006F8DDF804E0DDE90223B5
:1009880004B070472DE9F0478C460D460446089E92
:10099800002B51D18A4217466DD9B2FA82FEBEF1B8
:1009A800000F0BD0CEF1200C01FA0EF520FA0CFC4A
:1009B80002FA0EF74CEA050C00FA0EF44FEA174A51
:1009C800250CBCFBFAF81FFA87F90AFB18CC45EA94
:1009D8000C4508FB09F3AB420AD9ED1908F1FF32BF
:1009E80080F02381AB4240F22081A8F102083D4407
:1009F800ED1AA4B2B5FBFAF00AFB105544EA054417
:100A080000FB09F9A14509D9E41900F1FF3380F089
:100A18000A81A14540F2078102383C44A4EB09044D
:100A280040EA08400021002E61D024FA0EF4002389
:100A380034607360BDE8F0878B4207D9002E54D02C
:100A4800002186E821000846BDE8F087B3FA83F163
:100A5800002940F08E80AB4202D3824200F2FA8035
:100A6800841A65EB03050120AC46002E3FD086E8CA
:100A78001010BDE8F08712B90127B7FBF2F7B7FAF3
:100A880087FEBEF1000F34D1EB1B3A0C1FFA87FC2E
:100A98000121B3FBF2F8250C02FB183345EA0345A4
:100AA8000CFB08F3AB4207D9ED1908F1FF3002D26D
:100AB800AB4200F2D1808046ED1AA3B2B5FBF2F04A
:100AC80002FB105543EA05440CFB00FCA44507D97A
:100AD800E41900F1FF3302D2A44500F2B8801846A9
:100AE800A4EB0C0440EA08409DE731463046BDE8D7
:100AF800F087CEF1200405FA0EF307FA0EF720FA74
:100B080004F83A0C25FA04F448EA0308B4FBF2F1B5
:100B18004FEA184502FB11441FFA87FC45EA0445D1
:100B280001FB0CF3AB4200FA0EF409D9ED1901F1FF
:100B3800FF3080F08A80AB4240F2878002393D4422
:100B4800EB1A1FFA88F5B3FBF2F002FB103345EA03
:100B5800034500FB0CF3AB4207D9ED1900F1FF3850
:100B68006FD2AB426DD902383D44EB1A40EA0141DD
:100B78008FE7C1F1200722FA07F88B4005FA01F444
:100B880048EA030320FA07FE4FEA134CFD404EEAF9
:100B9800040EB5FBFCF94FEA1E440CFB19551FFA6D
:100BA80083F844EA054509FB08F4AC4202FA01F26D
:100BB80000FA01FA08D9ED1809F1FF3043D2AC4226
:100BC80041D9A9F102091D442D1B1FFA8EFEB5FB60
:100BD800FCF00CFB10554EEA054400FB08F8A04554
:100BE80007D9E41800F1FF3529D2A04527D90238E2
:100BF8001C4440EA0940A4EB0804A0FB02894C45C8
:100C0800C6464D4615D312D056B1BAEB0E0364EB67
:100C1800050404FA07F7CB401F43CC4037607460E3
:100C28000021BDE8F0871846F8E69046E0E6C245A0
:100C3800EAD2B8EB020E69EB03050138E4E728466F
:100C4800D7E7404691E78146BEE7014678E7023894
:100C58003C4445E7084608E7A8F102083D442BE76D
:100C6800704700BF80B582B000AF00237B600122CF
:100C780010211D4800F064FD1C4801F0DFF900BF99
:100C88001A4B1B685B6A082BFAD9002210211648F8
:100C980000F056FD154801F039FA00BF402112480E
:100CA80000F036FD0346002BF8D0114801F0C6F9D4
:100CB80003E00F4B1B685B6A7B6040210A4800F029
:100CC80027FD0346012BF4D0094801F01FFA084B11
:100CD8001B6800225A62054B1B6800225A627B6817
:100CE80018460837BD4680BD000C02403800002079
:100CF800800000200000000098B500AF00F018FA4E
:100D080000F040F800F038F900F09AF800F0E8F840
:100D1800FFF7A8FF03461846FFF794FB4FF00002C1
:100D2800154BFFF705FC03460C461846214610A351
:100D3800D3E90023FFF726FD03460C461846214653
:100D48004FF000020D4BFFF7F3FB03460C46184625
:100D580021464FF000024FF08043FFF713FD034692
:100D68000C46074A82E81800D2E700BFAFF30080BC
:100D78000000000080842E410000104000407540B3
:100D88003000002080B594B000AF07F12003302276
:100D98000021184601F0A2FC07F10C0300221A609A
:100DA8005A609A60DA601A610023BB60224A224BBB
:100DB8001B6C43F0805313641F4B1B6C03F0805370
:100DC800BB60BB6800237B601C4A1C4B1B6843F458
:100DD80080431360194B1B6803F480437B607B6876
:100DE80002233B620123FB6210233B630023BB63A6
:100DF80007F12003184600F0BDFC0346002B01D084
:100E080000F0F8F80F23FB6000233B6100237B61AF
:100E18000023BB610023FB6107F10C030021184686
:100E280000F020FF0346002B01D000F0E3F800BFDC
:100E38005037BD4680BD00BF0038024000700040FA
:100E480080B586B000AF07F1080300221A605A6027
:100E58009A60DA603B4600221A605A601E4B1F4AAD
:100E68001A601D4B10225A601B4B00229A601A4BC5
:100E78004FF6FF72DA60184B00221A61164B0022F7
:100E88005A61154B80229A61134801F087F803468E
:100E9800002B01D000F0AEF84FF48053BB6007F18F
:100EA800080319460C4801F058F90346002B01D0F5
:100EB80000F0A0F800233B6000237B603B46194606
:100EC800054801F041FB0346002B01D000F092F8E1
:100ED80000BF1837BD4680BD380000200000014023
:100EE80080B586B000AF07F1080300221A605A6087
:100EF8009A60DA603B4600221A605A601D4B4FF038
:100F080080421A601B4B40225A601A4B00229A609A
:100F1800184B4FF0FF32DA60164B00221A61154B5E
:100F280000229A61134801F039F80346002B01D0DA
:100F380000F060F84FF48053BB6007F108031946CE
:100F48000C4801F00AF90346002B01D000F052F8D2
:100F580000233B6000237B603B461946054801F0AF
:100F6800F3FA0346002B01D000F044F800BF18370D
:100F7800BD4680BD8000002080B586B000AF3B1D17
:100F880000221A605A609A60DA601A6100233B6096
:100F9800164A164B1B6B43F008031363134B1B6B6A
:100FA80003F008033B603B6800221021104800F062
:100FB800C7FB10237B600123BB600023FB60002379
:100FC8003B613B1D19460A4800F008FA40237B6044
:100FD8000023BB600023FB603B1D1946044800F05A
:100FE800FDF900BF1837BD4680BD00BF003802407C
:100FF800000C024080B400AF72B6FEE780B483B044
:1010080000AF00237B60104A0F4B5B6C43F48043B6
:1010180053640D4B5B6C03F480437B607B68002357
:101028003B60094A084B1B6C43F080531364064B22
:101038001B6C03F080533B603B6800BF0C37BD4618
:101048005DF8047B704700BF0038024080B485B06B
:1010580000AF78607B681B68154A93420ED1002365
:10106800FB60144A134B5B6C43F001035364114B50
:101078005B6C03F00103FB60FB6812E07B681B6894
:10108800B3F1804F0DD10023BB600A4A094B1B6C9A
:1010980043F001031364074B1B6C03F00103BB60AF
:1010A800BB6800BF1437BD465DF8047B704700BFBE
:1010B800000001400038024080B400AFFEE780B471
:1010C80000AFFEE780B400AFFEE780B400AFFEE7F4
:1010D80080B400AFFEE780B400AF00BFBD465DF846
:1010E800047B704780B400AF00BFBD465DF8047B49
:1010F800704780B400AF00BFBD465DF8047B704701
:1011080080B500AF00F066F800BF80BD80B400AFC6
:10111800064A064BD3F8883043F47003C2F8883087
:1011280000BFBD465DF8047B704700BF00ED00E0DE
:1011380080B500AF0E4A0E4B1B6843F40073136072
:101148000B4A0B4B1B6843F480631360084A084B37
:101158001B6843F480731360032000F00BF9002030
:1011680000F008F8FFF74AFF0023184680BD00BFCB
:10117800003C024080B582B000AF7860124B1A681C
:10118800124B1B7819464FF47A73B3FBF1F3B2FB99
:10119800F3F3184600F015F90346002B01D001239C
:1011A8000EE07B680F2B0AD8002279684FF0FF30D9
:1011B80000F0EBF8064A7B681360002300E0012387
:1011C80018460837BD4680BD0000002008000020F2
:1011D8000400002080B400AF064B1B781A46064B6B
:1011E8001B681344044A136000BFBD465DF8047BC6
:1011F800704700BF08000020C800002080B400AF7E
:10120800034B1B681846BD465DF8047B704700BF5A
:10121800C800002080B485B000AF78607B6803F018
:101228000703FB600C4BDB68BB60BA684FF6FF0333
:101238001340BB60FB681A02BB68134343F0BF63EB
:1012480043F40033BB60044ABB68D36000BF143763
:10125800BD465DF8047B704700ED00E080B400AF48
:10126800044BDB681B0A03F007031846BD465DF80C
:10127800047B704700ED00E080B483B000AF034604
:101288003960FB7197F90730002B0ADB0D4997F994
:1012980007303A68D2B21201D2B20B4483F8002365
:1012A8000AE00949FB7903F00F03043B3A68D2B21C
:1012B8001201D2B20B441A7600BF0C37BD465DF856
:1012C800047B704700E100E000ED00E080B489B0E5
:1012D80000AFF860B9607A60FB6803F00703FB6150
:1012E800FB69C3F10703042B28BF0423BB61FB6917
:1012F8000433062B02D9FB69033B00E000237B6122
:101308000122BB6902FA03F35A1EBB681A407B69C3
:101318009A4001217B6901FA03F3591E7B680B404F
:10132800134318462437BD465DF8047B7047000018
:1013380080B582B000AF78607B68013BB3F1807FF5
:1013480001D301230FE00A4A7B68013B53600F2158
:101358004FF0FF30FFF790FF054B00229A60044BD7
:1013680007221A60002318460837BD4680BD00BF13
:1013780010E000E080B582B000AF78607868FFF7D1
:1013880049FF00BF0837BD4680BD80B586B000AFB5
:101398000346B9607A60FB7300237B61FFF75EFF49
:1013A80078617A68B9687869FFF790FF024697F91B
:1013B8000F3011461846FFF75FFF00BF1837BD46CC
:1013C80080BD80B582B000AF78607868FFF7B0FF65
:1013D800034618460837BD4680BD000080B489B072
:1013E80000AF7860396000237B6100233B610023F4
:1013F800BB610023FB616BE10122FB6902FA03F385
:101408007B613B681A687B6913403B613A697B6979
:101418009A4240F05A813B685B6803F00303012B52
:1014280005D03B685B6803F00303022B30D17B686F
:101438009B68BB61FB695B00032202FA03F3DB4391
:10144800BA691340BB613B68DA68FB695B0002FA62
:1014580003F3BA691343BB617B68BA699A607B6816
:101468005B68BB610122FB6902FA03F3DB43BA69DB
:101478001340BB613B685B681B0903F00102FB6911
:1014880002FA03F3BA691343BB617B68BA695A600D
:101498003B685B6803F00303032B17D07B68DB68AA
:1014A800BB61FB695B00032202FA03F3DB43BA6901
:1014B8001340BB613B689A68FB695B0002FA03F35F
:1014C800BA691343BB617B68BA69DA603B685B68D9
:1014D80003F00303022B23D1FB69DA087B68083287
:1014E80053F82230BB61FB6903F007039B000F220E
:1014F80002FA03F3DB43BA691340BB613B681A691C
:10150800FB6903F007039B0002FA03F3BA6913436C
:10151800BB61FB69DA087B680832B96943F82210B5
:101528007B681B68BB61FB695B00032202FA03F35B
:10153800DB43BA691340BB613B685B6803F0030295
:10154800FB695B0002FA03F3BA691343BB617B686A
:10155800BA691A603B685B6803F44033002B00F0FB
:10156800B4800023FB605F4A5E4B5B6C43F48043AE
:1015780053645C4B5B6C03F48043FB60FB685A4A22
:10158800FB699B08023352F82330BB61FB6903F007
:1015980003039B000F2202FA03F3DB43BA691340EB
:1015A800BB617B68514A93422BD07B68504A934277
:1015B80025D07B684F4A93421FD07B684E4A93429E
:1015C80019D07B684D4A934213D07B684C4A9342AA
:1015D8000DD07B684B4A934207D07B684A4A9342B6
:1015E80001D107230EE008230CE006230AE00523B7
:1015F80008E0042306E0032304E0022302E00123B9
:1016080000E00023FA6902F0030292009340BA69ED
:101618001343BB613449FB699B080233BA6941F83B
:1016280023203A4B1B68BB613B69DB43BA69134013
:10163800BB613B685B6803F48033002B03D0BA6955
:101648003B691343BB61314ABB6913602F4B5B682D
:10165800BB613B69DB43BA691340BB613B685B68AC
:1016680003F40033002B03D0BA693B691343BB6111
:10167800264ABB695360254B9B68BB613B69DB43CA
:10168800BA691340BB613B685B6803F48013002BA5
:1016980003D0BA693B691343BB611C4ABB699360B9
:1016A8001A4BDB68BB613B69DB43BA691340BB611A
:1016B8003B685B6803F40013002B03D0BA693B69ED
:1016C8001343BB61114ABB69D360FB690133FB61FA
:1016D800FB690F2B7FF690AE00BF2437BD465DF83F
:1016E800047B704700380240003801400000024087
:1016F8000004024000080240000C024000100240B2
:101708000014024000180240001C0240003C014046
:1017180080B485B000AF78600B467B807B681A691F
:101728007B881340002B02D00123FB7301E00023C8
:10173800FB73FB7B18461437BD465DF8047B704786
:1017480080B483B000AF78600B467B8013467B7013
:101758007B78002B03D07A887B689A6103E07B88CA
:101768001A047B689A6100BF0C37BD465DF8047B9C
:101778007047000080B586B000AF78607B68002BAA
:1017880001D1012364E27B681B6803F00103002B8D
:1017980075D0A34B9B6803F00C03042B0CD0A04B13
:1017A8009B6803F00C03082B12D19D4B5B6803F474
:1017B8008003B3F5800F0BD1994B1B6803F40033FA
:1017C800002B5BD07B685B68002B57D101233FE27D
:1017D8007B685B68B3F5803F06D1914A904B1B68E4
:1017E80043F4803313601DE07B685B68B3F5A02F7A
:1017F8000CD18B4A8A4B1B6843F480231360884AB8
:10180800874B1B6843F4803313600BE0844A844B96
:101818001B6823F480331360814A814B1B6823F4CF
:10182800802313607B685B68002B13D0FFF7E6FC0E
:10183800386108E0FFF7E2FC02463B69D31A642BE3
:1018480001D9032304E2764B1B6803F40033002B11
:10185800F0D014E0FFF7D2FC386108E0FFF7CEFCC7
:1018680002463B69D31A642B01D90323F0E16C4B80
:101878001B6803F40033002BF0D100E000BF7B6845
:101888001B6803F00203002B63D0654B9B6803F0D1
:101898000C03002B0BD0624B9B6803F00C03082B46
:1018A8001CD15F4B5B6803F48003002B16D15C4BA3
:1018B8001B6803F00203002B05D07B68DB68012B53
:1018C80001D00123C4E15649554B1B6823F0F802A7
:1018D8007B681B69DB0013430B603AE07B68DB68BD
:1018E800002B20D04F4B01221A60FFF787FC38618C
:1018F80008E0FFF783FC02463B69D31A022B01D9A3
:101908000323A5E1464B1B6803F00203002BF0D02C
:101918004349434B1B6823F0F8027B681B69DB00D3
:1019280013430B6015E03F4B00221A60FFF766FC7B
:10193800386108E0FFF762FC02463B69D31A022BC4
:1019480001D9032384E1364B1B6803F00203002B03
:10195800F0D17B681B6803F00803002B30D07B684C
:101968005B69002B16D0304B01221A60FFF746FC4A
:10197800386108E0FFF742FC02463B69D31A022BA4
:1019880001D9032364E1264B5B6F03F00203002BAC
:10199800F0D015E0244B00221A60FFF72FFC3861C5
:1019A80008E0FFF72BFC02463B69D31A022B01D94A
:1019B80003234DE11A4B5B6F03F00203002BF0D1B8
:1019C8007B681B6803F00403002B00F0A080002351
:1019D800FB75134B1B6C03F08053002B0FD10023B6
:1019E800BB600F4A0E4B1B6C43F0805313640C4BC7
:1019F8001B6C03F08053BB60BB680123FB750B4B6A
:101A08001B6803F48073002B21D1084A074B1B681D
:101A180043F480731360FFF7F1FB386111E000BFF6
:101A28000038024000004742800E474200700040E4
:101A3800FFF7E4FB02463B69D31A022B01D90323C3
:101A480006E1854B1B6803F48073002BF0D07B689C
:101A58009B68012B06D1814A804B1B6F43F0010321
:101A680013671CE07B689B68052B0CD17B4A7B4B7A
:101A78001B6F43F004031367784A784B1B6F43F0DE
:101A8800010313670BE0754A744B1B6F23F00103C6
:101A98001367724A714B1B6F23F0040313677B684B
:101AA8009B68002B15D0FFF7A9FB38610AE0FFF708
:101AB800A5FB02463B69D31A41F28832934201D909
:101AC8000323C5E0654B1B6F03F00203002BEED028
:101AD80014E0FFF793FB38610AE0FFF78FFB02463B
:101AE8003B69D31A41F28832934201D90323AFE00C
:101AF8005A4B1B6F03F00203002BEED1FB7D012B29
:101B080005D1564A554B1B6C23F0805313647B68F0
:101B18009B69002B00F09B80504B9B6803F00C03E3
:101B2800082B5CD07B689B69022B41D14C4B00226F
:101B38001A60FFF763FB386108E0FFF75FFB0246B6
:101B48003B69D31A022B01D9032381E0434B1B685D
:101B580003F00073002BF0D140497B68DA697B6899
:101B68001B6A1A437B685B6A9B011A437B689B6A02
:101B78005B08013B1B041A437B68DB6A1B061343A3
:101B88004B60374B01221A60FFF738FB386108E0D9
:101B9800FFF734FB02463B69D31A022B01D9032312
:101BA80056E02E4B1B6803F00073002BF0D04EE07C
:101BB8002B4B00221A60FFF721FB386108E0FFF782
:101BC8001DFB02463B69D31A022B01D903233FE0D0
:101BD800224B1B6803F00073002BF0D137E07B68C1
:101BE8009B69012B01D1012332E01C4B5B68FB6030
:101BF8007B689B69012B28D0FB6803F480027B6813
:101C0800DB699A4221D1FB6803F03F027B681B6ABB
:101C18009A421AD1FA6847F6C07313407A68526A32
:101C28009201934211D1FB6803F440327B689B6AAE
:101C38005B08013B1B049A4207D1FB6803F0706202
:101C48007B68DB6A1B069A4201D0012300E000236F
:101C580018461837BD4680BD007000400038024065
:101C68006000474280B584B000AF786039607B6817
:101C7800002B01D10123CCE0684B1B6803F007025D
:101C88003B689A420CD2654B3A68D2B21A70634BE1
:101C98001B6803F007023B689A4201D00123B8E0B1
:101CA8007B681B6803F00203002B20D07B681B684D
:101CB80003F00403002B05D0594A594B9B6843F4A1
:101CC800E05393607B681B6803F00803002B05D082
:101CD800534A534B9B6843F4604393605049504BBD
:101CE8009B6823F0F0027B689B6813438B607B68DA
:101CF8001B6803F00103002B44D07B685B68012B51
:101D080007D1474B1B6803F40033002B19D101237B
:101D18007FE07B685B68022B03D07B685B68032BE2
:101D280007D13F4B1B6803F00073002B09D1012337
:101D38006FE03B4B1B6803F00203002B01D101232A
:101D480067E03749364B9B6823F003027B685B6882
:101D580013438B60FFF752FAF8600AE0FFF74EFA78
:101D68000246FB68D31A41F28832934201D9032311
:101D78004FE02B4B9B6803F00C027B685B689B0071
:101D88009A42EBD1254B1B6803F007023B689A4245
:101D98000CD9224B3A68D2B21A70204B1B6803F058
:101DA80007023B689A4201D0012332E07B681B6836
:101DB80003F00403002B08D01949194B9B6823F43E
:101DC800E0527B68DB6813438B607B681B6803F019
:101DD8000803002B09D01249114B9B6823F4604279
:101DE8007B681B69DB0013438B6000F021F8014618
:101DF8000B4B9B681B0903F00F030A4AD35C21FABB
:101E080003F3094A1360094B1B681846FFF7B2F938
:101E1800002318461037BD4680BD00BF003C024075
:101E2800003802400C2700080000002004000020B1
:101E38002DE9F04F87B000AF0022FA6000227A61E6
:101E48000022BA6000223A61514A926802F00C02FC
:101E5800042A07D0082A08D0002A40F090804D4B69
:101E68003B618FE04C4B3B618CE0494A526802F081
:101E78003F02FA60464A526802F48002002A23D0E0
:101E8800434B5B689B094FF0000440F2FF114FF091
:101E9800000203EA010304EA02043F4A02FB04F1D8
:101EA800002202FB03F20A443B49A3FB0101531839
:101EB8001946FB684FF000041A462346FEF74AFD10
:101EC80003460C467B614CE0314A52689209114640
:101ED8004FF0000240F2FF154FF0000605EA010539
:101EE80006EA0206294632464FEA421B4BEAD16B04
:101EF8004FEA411A51465A46AA46B34655465E46E7
:101F08004D1B62EB060629463246940144EA916469
:101F18008B015B1A64EB02044FEAC40949EA53795E
:101F28004FEAC30843464C4655465E46ED1846EB15
:101F380004062B463446A2027A607A6842EA935233
:101F48007A609B023B6097E8180018462146FB68B8
:101F58004FF000041A462346FEF7FCFC03460C46E5
:101F68007B610B4B5B681B0C03F0030301335B00C5
:101F7800BB607A69BB68B2FBF3F33B6102E0054BD7
:101F88003B6100BF3B6918461C37BD46BDE8F08F72
:101F9800003802400024F40040787D0180B582B00A
:101FA80000AF78607B68002B01D1012341E07B689A
:101FB80093F83D30DBB2002B06D17B68002283F812
:101FC8003C207868FFF742F87B68022283F83D20BE
:101FD8007B681A687B6804331946104600F07AF962
:101FE8007B68012283F846207B68012283F83E2023
:101FF8007B68012283F83F207B68012283F8402018
:102008007B68012283F841207B68012283F8422003
:102018007B68012283F843207B68012283F84420EF
:102028007B68012283F845207B68012283F83D20E4
:10203800002318460837BD4680BD000080B485B02F
:1020480000AF78607B6893F83D30DBB2012B01D09C
:10205800012346E07B68022283F83D207B681B68E9
:10206800234A934222D07B681B68B3F1804F1DD06E
:102078007B681B681F4A934218D07B681B681E4AFE
:10208800934213D07B681B681C4A93420ED07B682E
:102098001B681B4A934209D07B681B68194A934204
:1020A80004D07B681B68184A934211D17B681B686F
:1020B8009B6803F00703FB60FB68062B10D07B6866
:1020C8001B687A681268126842F001021A6007E019
:1020D8007B681B687A681268126842F001021A600D
:1020E800002318461437BD465DF8047B704700BFCF
:1020F800000001400004004000080040000C0040BF
:1021080000040140004001400018004080B483B042
:1021180000AF78607B681B681A6A41F2111313409C
:10212800002B0FD17B681B681A6A40F244431340A6
:10213800002B07D17B681B687A681268126822F046
:1021480001021A607B68012283F83D2000231846AB
:102158000C37BD465DF8047B704780B584B000AF8E
:10216800786039600023FB737B6893F83C30012B5F
:1021780001D10223A9E07B68012283F83C207B6817
:10218800022283F83D207B681B689B68BB60BB68A4
:1021980023F07703BB60BB6823F47F43BB607B6895
:1021A8001B68BA689A603B681B68402B67D0402B55
:1021B8000BD8102B73D0102B02D8002B6FD077E0E0
:1021C800202B6CD0302B6AD072E0702B0DD0702B86
:1021D80004D8502B33D0602B41D069E0B3F5805F31
:1021E80069D0B3F5005F17D062E07B6818683B6878
:1021F80099683B685A683B68DB6800F085F97B683A
:102208001B689B68BB60BB6843F07703BB607B6857
:102218001B68BA689A604FE07B6818683B689968E1
:102228003B685A683B68DB6800F06EF97B681B689E
:102238007A681268926842F480429A603CE07B684F
:1022480018683B6859683B68DB681A4600F0E2F892
:102258007B681B685021184600F03BF92CE07B682E
:1022680018683B6859683B68DB681A4600F001F952
:102278007B681B686021184600F02BF91CE07B681E
:1022880018683B6859683B68DB681A4600F0C2F872
:102298007B681B684021184600F01BF90CE07B683E
:1022A8001A683B681B681946104600F012F903E0EB
:1022B8000123FB7300E000BF7B68012283F83D2007
:1022C8007B68002283F83C20FB7B18461037BD460C
:1022D80080BD000080B485B000AF786039607B684D
:1022E8001B68FB607B68404A934213D07B68B3F15C
:1022F800804F0FD07B683D4A93420BD07B683C4AA5
:10230800934207D07B683B4A934203D07B683A4AA2
:10231800934208D1FB6823F07003FB603B685B685D
:10232800FA681343FB607B682F4A93422BD07B6883
:10233800B3F1804F27D07B682C4A934223D07B6827
:102348002B4A93421FD07B682A4A93421BD07B6852
:10235800294A934217D07B68284A934213D07B6856
:10236800274A93420FD07B68264A93420BD07B685A
:10237800254A934207D07B68244A934203D07B685E
:10238800234A934208D1FB6823F44073FB603B68FF
:10239800DB68FA681343FB60FB6823F080023B6844
:1023A8005B691343FB607B68FA681A603B689A684C
:1023B8007B68DA623B681A687B689A627B680A4ABB
:1023C800934203D07B680C4A934203D13B681A6955
:1023D8007B681A637B6801225A6100BF1437BD46C7
:1023E8005DF8047B704700BF000001400004004016
:1023F80000080040000C004000040140004001407B
:10240800004401400048014000180040001C004002
:102418000020004080B487B000AFF860B9607A60EF
:10242800FB681B6A7B61FB681B6A23F00102FB687F
:102438001A62FB689B693B613B6923F0F0033B61CF
:102448007B681B013A6913433B617B6923F00A03EC
:102458007B617A69BB6813437B61FB683A699A615F
:10246800FB687A691A6200BF1C37BD465DF8047BB9
:10247800704780B487B000AFF860B9607A60FB68D5
:102488001B6A23F01002FB681A62FB689B697B6178
:10249800FB681B6A3B617B6923F470437B617B6843
:1024A8001B037A6913437B613B6923F0A0033B61FB
:1024B800BB681B013A6913433B61FB687A699A61FF
:1024C800FB683A691A6200BF1C37BD465DF8047B99
:1024D800704780B485B000AF786039607B689B68CE
:1024E800FB60FB6823F07003FB603A68FB681343EA
:1024F80043F00703FB607B68FA689A6000BF1437F3
:10250800BD465DF8047B704780B487B000AFF860C3
:10251800B9607A603B60FB689B687B617B6923F4E8
:102528007F437B613B681A027B681A43BB6813438D
:102538007A6913437B61FB687A699A6000BF1C372C
:10254800BD465DF8047B704780B485B000AF786005
:1025580039607B6893F83C30012B01D102235AE0A3
:102568007B68012283F83C207B68022283F83D20A7
:102578007B681B685B68FB607B681B689B68BB604B
:10258800FB6823F07003FB603B681B68FA68134321
:10259800FB607B681B68FA685A607B681B68214A85
:1025A800934222D07B681B68B3F1804F1DD07B68B3
:1025B8001B681D4A934218D07B681B681B4A9342CC
:1025C80013D07B681B681A4A93420ED07B681B683D
:1025D800184A934209D07B681B68174A934204D073
:1025E8007B681B68154A93420CD1BB6823F08003B3
:1025F800BB603B685B68BA681343BB607B681B6859
:10260800BA689A607B68012283F83D207B680022C3
:1026180083F83C20002318461437BD465DF8047B38
:10262800704700BF0000014000040040000800405F
:10263800000C004000040140004001400018004028
:10264800DFF834D00D480E490E4A002302E0D45872
:10265800C4500433C4188C42F9D30B4A0B4C0023E2
:1026680001E013600432A242FBD3FEF74FFD00F0F5
:1026780011F8FEF741FB704700000220000000201F
:102688000C0000202C27000810000020CC0000209F
:10269800FEE7000070B50D4E0D4CA41BA4100025DC
:1026A800A54209D10B4E0C4C00F020F8A41BA41035
:1026B8000025A54205D170BD56F82530984701354B
:1026C800EEE756F8253098470135F2E72427000849
:1026D8002427000824270008282700080244034666
:1026E800934200D1704703F8011BF9E7F8B500BF22
:1026F800F8BC08BC9E467047F8B500BFF8BC08BCDB
:042708009E46704732
:10270C000000000000000000010203040607080995
:08271C0070E2FF7F01000000E4
:04272400AD010008FB
:04272800890100081B
:0C272C000024F400100000000100000078
:040000050800264980
:00000001FF
