:020000040800F2
:1000000000000220353600083D15000843150008A1
:10001000491500084F15000855150008000000009C
:100020000000000000000000000000005B15000858
:100030006915000800000000771500088515000804
:1000400085360008853600088536000885360008A4
:100050008536000885360008853600088536000894
:100060008536000885360008853600088536000884
:100070008536000885360008853600088536000874
:100080008536000885360008853600088536000864
:100090008536000885360008853600088536000854
:1000A0008536000885360008853600088536000844
:1000B0008536000885360008853600088536000834
:1000C0008536000885360008853600088536000824
:1000D0008536000885360008853600088536000814
:1000E0008536000885360008853600088536000804
:1000F00085360008853600088536000885360008F4
:1001000085360008853600088536000885360008E3
:1001100085360008853600088536000885360008D3
:1001200085360008853600088536000885360008C3
:1001300085360008853600088536000885360008B3
:1001400085360008853600088536000885360008A3
:100150008536000885360008853600088536000893
:100160008536000885360008853600088536000883
:100170008536000885360008853600080000000036
:080180008536000885360008F1
:1001880010B5054C237833B9044B13B10448AFF3C9
:1001980000800123237010BD0C0000200000000027
:1001A800E036000808B5034B1BB103490348AFF319
:1001B800008008BD0000000010000020E0360008A4
:1001C80081F0004102E000BF83F0004330B54FEA00
:1001D80041044FEA430594EA050F08BF90EA020F6D
:1001E8001FBF54EA000C55EA020C7FEA645C7FEA00
:1001F800655C00F0E2804FEA5454D4EB5555B8BF23
:100208006D420CDD2C4480EA020281EA030382EA93
:10021800000083EA010180EA020281EA0303362D25
:1002280088BF30BD11F0004F4FEA01314FF4801CF8
:100238004CEA113102D0404261EB410113F0004F0A
:100248004FEA03334CEA133302D0524263EB4303C1
:1002580094EA050F00F0A780A4F10104D5F1200E5F
:100268000DDB02FA0EFC22FA05F2801841F10001BA
:1002780003FA0EF2801843FA05F359410EE0A5F18E
:1002880020050EF1200E012A03FA0EFC28BF4CF0BF
:10029800020C43FA05F3C01851EBE37101F0004575
:1002A80007D54FF0000EDCF1000C7EEB00006EEB82
:1002B8000101B1F5801F1BD3B1F5001F0CD349080C
:1002C8005FEA30004FEA3C0C04F101044FEA445263
:1002D80012F5800F80F09A80BCF1004F08BF5FEAEA
:1002E800500C50F1000041EB045141EA050130BDCA
:1002F8005FEA4C0C404141EB010111F4801FA4F16D
:100308000104E9D191F0000F04BF01460020B1FAC1
:1003180081F308BF2033A3F10B03B3F120020CDAF9
:100328000C3208DD02F1140CC2F10C0201FA0CF0D7
:1003380021FA02F10CE002F11402D8BFC2F1200C3C
:1003480001FA02F120FA0CFCDCBF41EA0C019040F2
:10035800E41AA2BF01EB0451294330BD6FEA04043B
:100368001F3C1CDA0C340EDC04F11404C4F1200226
:1003780020FA04F001FA02F340EA030021FA04F338
:1003880045EA030130BDC4F10C04C4F1200220FA8F
:1003980002F001FA04F340EA0300294630BD21FACD
:1003A80004F0294630BD94F0000F83F4801306BF93
:1003B80081F480110134013D4EE77FEA645C18BF87
:1003C8007FEA655C29D094EA050F08BF90EA020F1E
:1003D80005D054EA000C04BF1946104630BD91EA16
:1003E800030F1EBF0021002030BD5FEA545C05D119
:1003F8004000494128BF41F0004130BD14F5800458
:100408003CBF01F5801130BD01F0004545F0FE41CB
:1004180041F470014FF0000030BD7FEA645C1ABF00
:10042800194610467FEA655C1CBF0B46024650EA37
:10043800013406BF52EA033591EA030F41F4002163
:1004480030BD00BF90F0000F04BF0021704730B5E9
:100458004FF4806404F132044FF000054FF00001BE
:1004680050E700BF90F0000F04BF0021704730B57F
:100478004FF4806404F1320410F0004548BF404254
:100488004FF000013EE700BF42004FEAE2014FEAA9
:1004980031014FEA02701FBF12F07F4393F07F4F84
:1004A80081F06051704792F0000F14BF93F07F4FB6
:1004B800704730B54FF4607401F0004521F00041F9
:1004C80020E700BF50EA010208BF704730B54FF07F
:1004D80000050AE050EA010208BF704730B511F084
:1004E800004502D5404261EB41014FF4806404F1BC
:1004F80032045FEA915C3FF4DCAE4FF003025FEA3E
:10050800DC0C18BF03325FEADC0C18BF033202EBC5
:10051800DC02C2F1200300FA03FC20FA02F001FA1F
:1005280003FE40EA0E0021FA02F11444C1E600BFBE
:1005380070B54FF0FF0C4CF4E06C1CEA11541DBF71
:100548001CEA135594EA0C0F95EA0C0F00F0DEF83C
:100558002C4481EA030621EA4C5123EA4C5350EA21
:10056800013518BF52EA033541F4801143F4801372
:1005780038D0A0FB02CE4FF00005E1FB02E506F003
:100588000042E0FB03E54FF00006E1FB03569CF058
:10059800000F18BF4EF0010EA4F1FF04B6F5007F5E
:1005A80064F5407404D25FEA4E0E6D4146EB0606D0
:1005B80042EAC62141EA55514FEAC52040EA5E5059
:1005C8004FEACE2EB4F1FD0C88BFBCF5E06F1ED803
:1005D800BEF1004F08BF5FEA500E50F1000041EB3A
:1005E800045170BD06F0004646EA010140EA0200E7
:1005F80081EA0301B4EB5C04C2BFD4EB0C0541EA09
:10060800045170BD41F480114FF0000E013C00F31D
:10061800AB8014F1360FDEBF002001F0004170BD41
:10062800C4F10004203C35DA0C341BDC04F114045A
:10063800C4F1200500FA05F320FA04F001FA05F2E6
:1006480040EA020001F0004221F0004110EBD370B3
:1006580021FA04F642EB06015EEA430E08BF20EADF
:10066800D37070BDC4F10C04C4F1200500FA04F382
:1006780020FA05F001FA04F240EA020001F0004114
:1006880010EBD37041F100015EEA430E08BF20EA87
:10069800D37070BDC4F1200500FA05F24EEA020ECF
:1006A80020FA04F301FA05F243EA020321FA04F0FE
:1006B80001F0004121FA04F220EA020000EBD370B5
:1006C8005EEA430E08BF20EAD37070BD94F0000FB5
:1006D8000FD101F00046400041EB010111F4801FE9
:1006E80008BF013CF7D041EA060195F0000F18BF9A
:1006F800704703F00046520043EB030313F4801FD6
:1007080008BF013DF7D043EA0603704794EA0C0F8F
:100718000CEA135518BF95EA0C0F0CD050EA4106A5
:1007280018BF52EA4306D1D181EA030101F0004122
:100738004FF0000070BD50EA410606BF104619464A
:1007480052EA430619D094EA0C0F02D150EA013656
:1007580013D195EA0C0F05D152EA03361CBF104697
:1007680019460AD181EA030101F0004141F0FE4136
:1007780041F470014FF0000070BD41F0FE4141F4BA
:10078800780170BD70B54FF0FF0C4CF4E06C1CEABA
:1007980011541DBF1CEA135594EA0C0F95EA0C0F6F
:1007A80000F0A7F8A4EB050481EA030E52EA03352A
:1007B8004FEA013100F088804FEA03334FF080554B
:1007C80045EA131343EA12634FEA022245EA111578
:1007D80045EA10654FEA00260EF000419D4208BF29
:1007E800964244F1FD0404F5407402D25B084FEAD6
:1007F8003202B61A65EB03055B084FEA32024FF482
:1008080080104FF4002CB6EB020E75EB030E22BFDE
:10081800B61A754640EA0C005B084FEA3202B6EB9E
:10082800020E75EB030E22BFB61A754640EA5C004D
:100838005B084FEA3202B6EB020E75EB030E22BFDD
:10084800B61A754640EA9C005B084FEA3202B6EBDE
:10085800020E75EB030E22BFB61A754640EADC009D
:1008680055EA060E18D04FEA051545EA16754FEAFF
:1008780006164FEAC30343EA52734FEAC2025FEA1D
:100888001C1CC0D111F4801F0BD141EA00014FF0AC
:1008980000004FF0004CB6E711F4801F04BF01437D
:1008A8000020B4F1FD0C88BFBCF5E06F3FF6AFAE99
:1008B800B5EB030C04BFB6EB020C5FEA500C50F129
:1008C800000041EB045170BD0EF0004E4EEA1131AC
:1008D80014EB5C04C2BFD4EB0C0541EA045170BDB3
:1008E80041F480114FF0000E013C90E645EA060EF7
:1008F8008DE60CEA135594EA0C0F08BF95EA0C0F25
:100908003FF43BAF94EA0C0F0AD150EA01347FF46C
:1009180034AF95EA0C0F7FF425AF104619462CE743
:1009280095EA0C0F06D152EA03353FF4FDAE1046A6
:10093800194622E750EA410618BF52EA43067FF4F7
:10094800C5AE50EA41047FF40DAF52EA43057FF487
:10095800EBAE12E74FEA410212F5001215D211D59B
:100968006FF47873B3EB625212D94FEAC12343F0A4
:10097800004343EA505311F0004F23FA02F018BF26
:10098800404270474FF00000704750EA013005D1EF
:1009980011F0004008BF6FF0004070474FF00000B2
:1009A800704700BF53B94AB9002908BF00281CBFC7
:1009B8004FF0FF314FF0FF3000F07AB9ADF1080C7D
:1009C8006DE904CE00F006F8DDF804E0DDE9022365
:1009D80004B070472DE9F0478C460D460446089E42
:1009E800002B51D18A4217466DD9B2FA82FEBEF168
:1009F800000F0BD0CEF1200C01FA0EF520FA0CFCFA
:100A080002FA0EF74CEA050C00FA0EF44FEA174A00
:100A1800250CBCFBFAF81FFA87F90AFB18CC45EA43
:100A28000C4508FB09F3AB420AD9ED1908F1FF326E
:100A380080F02381AB4240F22081A8F102083D44B6
:100A4800ED1AA4B2B5FBFAF00AFB105544EA0544C6
:100A580000FB09F9A14509D9E41900F1FF3380F039
:100A68000A81A14540F2078102383C44A4EB0904FD
:100A780040EA08400021002E61D024FA0EF4002339
:100A880034607360BDE8F0878B4207D9002E54D0DC
:100A9800002186E821000846BDE8F087B3FA83F113
:100AA800002940F08E80AB4202D3824200F2FA80E5
:100AB800841A65EB03050120AC46002E3FD086E87A
:100AC8001010BDE8F08712B90127B7FBF2F7B7FAA3
:100AD80087FEBEF1000F34D1EB1B3A0C1FFA87FCDE
:100AE8000121B3FBF2F8250C02FB183345EA034554
:100AF8000CFB08F3AB4207D9ED1908F1FF3002D21D
:100B0800AB4200F2D1808046ED1AA3B2B5FBF2F0F9
:100B180002FB105543EA05440CFB00FCA44507D929
:100B2800E41900F1FF3302D2A44500F2B880184658
:100B3800A4EB0C0440EA08409DE731463046BDE886
:100B4800F087CEF1200405FA0EF307FA0EF720FA23
:100B580004F83A0C25FA04F448EA0308B4FBF2F165
:100B68004FEA184502FB11441FFA87FC45EA044581
:100B780001FB0CF3AB4200FA0EF409D9ED1901F1AF
:100B8800FF3080F08A80AB4240F2878002393D44D2
:100B9800EB1A1FFA88F5B3FBF2F002FB103345EAB3
:100BA800034500FB0CF3AB4207D9ED1900F1FF3800
:100BB8006FD2AB426DD902383D44EB1A40EA01418D
:100BC8008FE7C1F1200722FA07F88B4005FA01F4F4
:100BD80048EA030320FA07FE4FEA134CFD404EEAA9
:100BE800040EB5FBFCF94FEA1E440CFB19551FFA1D
:100BF80083F844EA054509FB08F4AC4202FA01F21D
:100C080000FA01FA08D9ED1809F1FF3043D2AC42D5
:100C180041D9A9F102091D442D1B1FFA8EFEB5FB0F
:100C2800FCF00CFB10554EEA054400FB08F8A04503
:100C380007D9E41800F1FF3529D2A04527D9023891
:100C48001C4440EA0940A4EB0804A0FB02894C4577
:100C5800C6464D4615D312D056B1BAEB0E0364EB17
:100C6800050404FA07F7CB401F43CC403760746093
:100C78000021BDE8F0871846F8E69046E0E6C24550
:100C8800EAD2B8EB020E69EB03050138E4E728461F
:100C9800D7E7404691E78146BEE7014678E7023844
:100CA8003C4445E7084608E7A8F102083D442BE71D
:100CB800704700BF80B500AF64230122EE210848C9
:100CC80001F0F8FB0346002B05D101224FF47041D7
:100CD800044800F07DFF00F007F800BF80BD00BFAA
:100CE80070000020000C024080B584B004AF1E23C1
:100CF8000293162301934E4B00930123AA22EF215E
:100D08004C4801F0B1F94A4B93F900301B021AB272
:100D1800474B93F901301BB213431AB2464B1A8062
:100D2800434B93F902301B021AB2414B93F903303B
:100D38001BB213431AB2414B1A803D4B93F904304E
:100D48001B021AB23A4B93F905301BB213431AB27D
:100D58003B4B1A80364B93F906301B021AB2344BC0
:100D680093F907301BB213431BB29AB2354B1A8062
:100D78002F4B93F908301B021AB22D4B93F9093007
:100D88001BB213431BB29AB22F4B1A80284B93F90C
:100D98000A301B021AB2264B93F90B301BB21343CD
:100DA8001BB29AB2294B1A80214B93F90C301B02C3
:100DB8001AB21F4B93F90D301BB213431AB2244BCE
:100DC8001A801B4B93F90E301B021AB2184B93F979
:100DD8000F301BB213431AB21E4B1A80144B93F9EF
:100DE80010301B021AB2124B93F911301BB2134385
:100DF8001AB2194B1A800E4B93F912301B021AB211
:100E08000B4B93F913301BB213431AB2134B1A80CE
:100E1800074B93F914301B021AB2054B93F915309E
:100E28001BB213431AB20E4B1A8000BFBD4680BDD9
:100E38003C000020700000202E0000205A000020F6
:100E48005C00002054000020380000203000002002
:100E5800660000205E000020560000206A00002086
:100E68002C00002080B586B004AF2E233B71354B93
:100E78000293012301933B1D00930123F422EE21E9
:100E8800314800F0F7FF052000F002FC2D4B0293DB
:100E9800022301933B4600930123F622EF212A48BF
:100EA80001F0E2F8052000F0F3FB3B781B021AB2D0
:100EB8007B781BB213431AB2244B1A80234BB3F925
:100EC80000301A46224B1B881BB2D31A214A1288BB
:100ED80012B202FB03F3002B02DA03F5FF437F3360
:100EE800DB131AB21C4B1A801C4BB3F90030DA0220
:100EF800194BB3F900301946194BB3F900300B44BC
:100F080092FBF3F31AB2174B1A80134BB3F9003064
:100F18009AB2144BB3F900309BB213449BB21AB285
:100F2800114B1A80104BB3F9003008330F4A82FB7B
:100F380003129211DB17D31A1BB218460837BD46A5
:100F480080BD00BFA0860100700000203400002092
:100F58003000002038000020580000206A000020DF
:100F68002C000020360000205200002067666666CC
:100F780090B587B004AFF4233B71A94B02930123CA
:100F880001933B1D00930123F422EE21A54800F0B4
:100F980071FF052000F07CFBA14B02930323019312
:100FA8003B4600930123F622EF219E4801F05CF8AE
:100FB800052000F06DFB3B781A047B781B02134375
:100FC800BA7813435B111AB2974B1A80974BB3F94F
:100FD80000309BB2A3F57A639BB21AB2944B1A8085
:100FE800944BB3F900301A46914BB3F9003003FB28
:100FF80002F38F4AB2F9002002FB03F3002B02DA56
:101008008D4A1A441346DB151AB28C4B1A808C4B46
:10101800B3F900301A46864BB3F9003003FB02F3EC
:10102800002B01DA03F2FF73DB121AB2854B1A8028
:10103800824BB3F900309AB2824BB3F900309BB2BD
:1010480013449BB21AB2804B1A80804BB3F900301C
:101058009B007D4AB2F900201344DB000233002BC9
:1010680000DA03339B101AB2794B1A80794BB3F923
:1010780000301A466E4BB3F9003003FB02F3002B25
:1010880002DA03F5FF531F335B131AB26B4B1A8056
:10109800714BB3F900301A46654BB3F9003003FBC6
:1010A80002F3634AB2F9002002FB03F3002B02DAD1
:1010B80003F18053013B1B171AB2624B1A805F4B36
:1010C800B3F900301A465F4BB3F9003013440233CA
:1010D800002B00DA03339B101AB25B4B1A805F4B6C
:1010E8001B881BB21A46584BB3F900309BB2A3F5C4
:1010F80000439BB203FB02F3002B02DA03F5FF4324
:101108007F33DB139AB2564B1A80474BB3F9003042
:101118009BB21A464E4BB3F90030D31A9BB21A460B
:101128005201D21A920013441A4691001A460B46ED
:1011380013441A4691001A460B4613445B009AB2B0
:10114800484B1A80474B1B885B009BB21BB21A4660
:10115800434B1B881BB292FBF3F3FB80B7F90630B5
:10116800002B00DAFF331B121BB29AB2B7F9063014
:10117800002B00DAFF331B121BB29BB212FB03F3E6
:101188009BB21AB22D4B1A802C4BB3F900301A4679
:1011980040F6DE3303FB02F3002B02DA03F57F434C
:1011A800FF331B141AB2254B1A80B7F906302E4AA2
:1011B80002FB03F3002B02DA03F57F43FF331B1412
:1011C8001AB2204B1A801D4BB3F900301A461D4B3A
:1011D800B3F90030134403F6CF63002B00DA0F3362
:1011E8001B119AB2FB8813449BB2FB80B7F90630F7
:1011F8001846FFF737F908A3D3E90023FFF798F952
:1012080003460C4618462146FFF7A4FB03461BB2CB
:1012180018460C37BD4690BD11DE8CA480B2E43E62
:10122800A086010070000020680000205200002005
:10123800320000205E000020FFFF7F0058000020E1
:101248005A00002036000020600000202E000020F8
:101258006C0000205C000020660000205400002084
:10126800620000206400002043E3FFFF80B500AF68
:1012780000F09CF900F01AF800F0A4F800F074F8F7
:10128800FFF718FDFFF730FDFFF7ECFD03461AB234
:10129800044B1A80FFF76CFE03461AB2024B1A8001
:1012A800F0E700BF280000202A00002080B594B095
:1012B80000AF07F1200330220021184602F004FA9B
:1012C80007F10C0300221A605A609A60DA601A610A
:1012D8000023BB60224A224B1B6C43F080531364EB
:1012E8001F4B1B6C03F08053BB60BB6800237B6003
:1012F8001C4A1C4B1B6843F480431360194B1B6842
:1013080003F480437B607B6802233B620123FB621A
:1013180010233B630023BB6307F12003184601F049
:1013280051FD0346002B01D000F090F80F23FB601D
:1013380000233B6100237B610023BB610023FB6129
:1013480007F10C030021184601F0B4FF0346002BF7
:1013580001D000F07BF800BF5037BD4680BD00BF0C
:10136800003802400070004080B500AF124B134AAD
:101378001A60114B124A5A600F4B00229A600E4BAA
:101388000022DA600C4B4FF480421A610A4B0022AB
:101398005A61094B00229A61074B0022DA61064B19
:1013A80000221A62044800F02DFC0346002B01D0ED
:1013B80000F04CF800BF80BD7000002000580040CD
:1013C800801A060080B588B000AF07F10C03002230
:1013D8001A605A609A60DA601A610023BB60194A81
:1013E800184B1B6B43F002031363164B1B6B03F084
:1013F8000203BB60BB6800237B60124A114B1B6B66
:1014080043F0080313630F4B1B6B03F008037B6067
:101418007B6800224FF470410B4800F0D9FB4FF471
:101428007043FB6001233B6100237B610023BB61A8
:1014380007F10C031946044800F030FA00BF2037C2
:10144800BD4680BD00380240000C024080B400AFA9
:1014580072B6FEE780B483B000AF00237B60104A09
:101468000F4B5B6C43F4804353640D4B5B6C03F48C
:1014780080437B607B6800233B60094A084B1B6CF8
:1014880043F080531364064B1B6C03F080533B609E
:101498003B6800BF0C37BD465DF8047B704700BF52
:1014A8000038024080B58AB000AF786007F11403B5
:1014B80000221A605A609A60DA601A617B681B68B9
:1014C800194A93422CD100233B61184A174B1B6BD6
:1014D80043F002031363154B1B6B03F002033B61DC
:1014E8003B694FF440637B611223BB610123FB61BD
:1014F80003233B6204237B6207F1140319460C485B
:1015080000F0CCF90023FB60084A084B1B6C43F43D
:1015180080031364054B1B6C03F48003FB60FB68BA
:1015280000BF2837BD4680BD005800400038024043
:101538000004024080B400AFFEE780B400AFFEE7CD
:1015480080B400AFFEE780B400AFFEE780B400AF20
:10155800FEE780B400AF00BFBD465DF8047B70476E
:1015680080B400AF00BFBD465DF8047B704780B40F
:1015780000AF00BFBD465DF8047B704780B500AF83
:1015880000F066F800BF80BD80B400AF064A064B85
:10159800D3F8883043F47003C2F8883000BFBD46E2
:1015A8005DF8047B704700BF00ED00E080B500AF38
:1015B8000E4A0E4B1B6843F4007313600B4A0B4B27
:1015C8001B6843F480631360084A084B1B6843F4A4
:1015D80080731360032000F02DF9002000F008F854
:1015E800FFF738FF0023184680BD00BF003C0240CB
:1015F80080B582B000AF7860124B1A68124B1B7826
:1016080019464FF47A73B3FBF1F3B2FBF3F31846C0
:1016180000F037F90346002B01D001230EE07B6868
:101628000F2B0AD8002279684FF0FF3000F00DF92F
:10163800064A7B681360002300E001231846083738
:10164800BD4680BD000000200800002004000020E6
:1016580080B400AF064B1B781A46064B1B68134430
:10166800044A136000BFBD465DF8047B704700BFA5
:1016780008000020C400002080B400AF034B1B68A2
:101688001846BD465DF8047B704700BFC4000020C3
:1016980080B584B000AF7860FFF7EEFFB8607B6874
:1016A800FB60FB68B3F1FF3F05D0094B1B781A4676
:1016B800FB681344FB6000BFFFF7DEFF0246BB6810
:1016C800D21AFB689A42F7D300BF1037BD4680BDD7
:1016D8000800002080B485B000AF78607B6803F014
:1016E8000703FB600C4BDB68BB60BA684FF6FF036F
:1016F8001340BB60FB681A02BB68134343F0BF6327
:1017080043F40033BB60044ABB68D36000BF14379E
:10171800BD465DF8047B704700ED00E080B400AF83
:10172800044BDB681B0A03F007031846BD465DF847
:10173800047B704700ED00E080B483B000AF03463F
:101748003960FB7197F90730002B0ADB0D4997F9CF
:1017580007303A68D2B21201D2B20B4483F80023A0
:101768000AE00949FB7903F00F03043B3A68D2B257
:101778001201D2B20B441A7600BF0C37BD465DF891
:10178800047B704700E100E000ED00E080B489B020
:1017980000AFF860B9607A60FB6803F00703FB618B
:1017A800FB69C3F10703042B28BF0423BB61FB6952
:1017B8000433062B02D9FB69033B00E000237B615D
:1017C8000122BB6902FA03F35A1EBB681A407B69FF
:1017D8009A4001217B6901FA03F3591E7B680B408B
:1017E800134318462437BD465DF8047B7047000054
:1017F80080B582B000AF78607B68013BB3F1807F31
:1018080001D301230FE00A4A7B68013B53600F2193
:101818004FF0FF30FFF790FF054B00229A60044B12
:1018280007221A60002318460837BD4680BD00BF4E
:1018380010E000E080B582B000AF78607868FFF70C
:1018480049FF00BF0837BD4680BD80B586B000AFF0
:101858000346B9607A60FB7300237B61FFF75EFF84
:1018680078617A68B9687869FFF790FF024697F956
:101878000F3011461846FFF75FFF00BF1837BD4607
:1018880080BD80B582B000AF78607868FFF7B0FFA0
:10189800034618460837BD4680BD000080B489B0AD
:1018A80000AF7860396000237B6100233B6100232F
:1018B800BB610023FB616BE10122FB6902FA03F3C0
:1018C8007B613B681A687B6913403B613A697B69B5
:1018D8009A4240F05A813B685B6803F00303012B8E
:1018E80005D03B685B6803F00303022B30D17B68AB
:1018F8009B68BB61FB695B00032202FA03F3DB43CD
:10190800BA691340BB613B68DA68FB695B0002FA9D
:1019180003F3BA691343BB617B68BA699A607B6851
:101928005B68BB610122FB6902FA03F3DB43BA6916
:101938001340BB613B685B681B0903F00102FB694C
:1019480002FA03F3BA691343BB617B68BA695A6048
:101958003B685B6803F00303032B17D07B68DB68E5
:10196800BB61FB695B00032202FA03F3DB43BA693C
:101978001340BB613B689A68FB695B0002FA03F39A
:10198800BA691343BB617B68BA69DA603B685B6814
:1019980003F00303022B23D1FB69DA087B680832C2
:1019A80053F82230BB61FB6903F007039B000F2249
:1019B80002FA03F3DB43BA691340BB613B681A6957
:1019C800FB6903F007039B0002FA03F3BA691343A8
:1019D800BB61FB69DA087B680832B96943F82210F1
:1019E8007B681B68BB61FB695B00032202FA03F397
:1019F800DB43BA691340BB613B685B6803F00302D1
:101A0800FB695B0002FA03F3BA691343BB617B68A5
:101A1800BA691A603B685B6803F44033002B00F036
:101A2800B4800023FB605F4A5E4B5B6C43F48043E9
:101A380053645C4B5B6C03F48043FB60FB685A4A5D
:101A4800FB699B08023352F82330BB61FB6903F042
:101A580003039B000F2202FA03F3DB43BA69134026
:101A6800BB617B68514A93422BD07B68504A9342B2
:101A780025D07B684F4A93421FD07B684E4A9342D9
:101A880019D07B684D4A934213D07B684C4A9342E5
:101A98000DD07B684B4A934207D07B684A4A9342F1
:101AA80001D107230EE008230CE006230AE00523F2
:101AB80008E0042306E0032304E0022302E00123F4
:101AC80000E00023FA6902F0030292009340BA6929
:101AD8001343BB613449FB699B080233BA6941F877
:101AE80023203A4B1B68BB613B69DB43BA6913404F
:101AF800BB613B685B6803F48033002B03D0BA6991
:101B08003B691343BB61314ABB6913602F4B5B6868
:101B1800BB613B69DB43BA691340BB613B685B68E7
:101B280003F40033002B03D0BA693B691343BB614C
:101B3800264ABB695360254B9B68BB613B69DB4305
:101B4800BA691340BB613B685B6803F48013002BE0
:101B580003D0BA693B691343BB611C4ABB699360F4
:101B68001A4BDB68BB613B69DB43BA691340BB6155
:101B78003B685B6803F40013002B03D0BA693B6928
:101B88001343BB61114ABB69D360FB690133FB6135
:101B9800FB690F2B7FF690AE00BF2437BD465DF87A
:101BA800047B7047003802400038014000000240C2
:101BB8000004024000080240000C024000100240ED
:101BC8000014024000180240001C0240003C014082
:101BD80080B483B000AF78600B467B8013467B707F
:101BE8007B78002B03D07A887B689A6103E07B8836
:101BF8001A047B689A6100BF0C37BD465DF8047B08
:101C08007047000090B585B000AF78607B68002B06
:101C180001D101231FE17B6893F83D30DBB2002B33
:101C280006D17B68002283F83C207868FFF73AFCED
:101C38007B68242283F83D207B681B687A681268D9
:101C4800126822F001021A607B681B687A681268C1
:101C5800126842F400421A607B681B687A6812684E
:101C6800126822F400421A6001F0CCFCF8607B682C
:101C78005B687B4A934207D8FB687A4A934294BFD1
:101C880001230023DBB206E0FB68774A934294BF46
:101C980001230023DBB2002B01D00123DBE0FB682A
:101CA800724AA2FB03239B0CBB607B681B687A68A3
:101CB8001268526822F03F01BA680A435A607B688A
:101CC8001A687B681B681B6A23F03F017B685B68A6
:101CD8006348834202D8BB68013309E0BB684FF40C
:101CE800967000FB03F36248A0FB03039B090133D2
:101CF8000B4313627B6818687B681B68DB6923F4F5
:101D08004F4222F0FF027B685B6855498B420DD831
:101D1800FB68591E7B685B685B00B1FBF3F301331A
:101D2800C3F30B03042B38BF04234FE07B689B6885
:101D3800002B11D1FB685C1E7B6859680B465B0061
:101D48000B44B4FBF3F30133C3F30B03002B0CBFB9
:101D580001230023DBB212E0FB685C1E7B68596834
:101D68000B469B000B4499000B44B4FBF3F301337F
:101D7800C3F30B03002B0CBF01230023DBB2002BA2
:101D880001D0012322E07B689B68002B0ED1FB6801
:101D98005C1E7B6859680B465B000B44B4FBF3F38D
:101DA8000133C3F30B0343F400430FE0FB685C1EED
:101DB8007B6859680B469B000B4499000B44B4FBA5
:101DC800F3F30133C3F30B0343F440431343C361F9
:101DD8007B681B687A681268126822F0C0017A680A
:101DE800D0697A68126A02430A431A607B681A68E3
:101DF8007B681B689B6823F4034323F0FF0379681F
:101E080008697968C96801430B4393607B681B685C
:101E18007A681268D26822F0FF017A6850697A6895
:101E2800926902430A43DA607B681B687A68126821
:101E3800126842F001021A607B6800221A647B680B
:101E4800202283F83D207B6800221A637B680022E9
:101E580083F83E20002318461437BD4690BD00BFC6
:101E6800A08601007F841E00FF083D0083DE1B431F
:101E7800D34D621080B588B002AFF86008461146AD
:101E88001A4603467B810B463B811346FB80FFF7CE
:101E9800F3FB7861FB6893F83D30DBB2202B40F010
:101EA800D9807B690093192301226D49F86800F0F5
:101EB800ABFD0346002B01D00223CCE0FB6893F86E
:101EC8003C30012B01D10223C5E0FB68012283F8D5
:101ED8003C20FB681B681B6803F00103012B07D03B
:101EE800FB681B68FA681268126842F001021A60FF
:101EF800FB681B68FA681268126822F400621A60AC
:101F0800FB68212283F83D20FB68402283F83E20AD
:101F1800FB6800221A64FB683A6A5A62FB68BA8C4A
:101F28005A85FB685B8D9AB2FB681A85FB684D4A37
:101F3800DA62F8883A8979897B690193BB6A0093E8
:101F48000346F86800F0E4FB0346002B52D0012357
:101F580081E07A69B96AF86800F02CFE0346002B24
:101F68000DD0FB681B6C042B07D1FB681B68FA6853
:101F78001268126842F400721A6001236BE0FB6871
:101F88001B68FA68526A12781A61FB685B6A5A1C05
:101F9800FB685A62FB681B8D013B9AB2FB681A8585
:101FA800FB685B8D9BB2013B9AB2FB685A85FB6864
:101FB8001B685B6903F00403042B1BD1FB681B8DB2
:101FC800002B17D0FB681B68FA68526A12781A61EE
:101FD800FB685B6A5A1CFB685A62FB681B8D013BF5
:101FE8009AB2FB681A85FB685B8D9BB2013B9AB27B
:101FF800FB685A85FB681B8D002BAAD17A69B96AE0
:10200800F86800F018FE0346002B0DD0FB681B6C27
:10201800042B07D1FB681B68FA681268126842F43F
:1020280000721A60012316E0FB681B68FA681268E0
:10203800126842F400721A60FB68202283F83D207F
:10204800FB68002283F83E20FB68002283F83C20CE
:10205800002300E0022318461837BD4680BD00BFA4
:10206800020010000000FFFF80B58CB002AFF860DE
:10207800084611461A4603467B810B463B811346A8
:10208800FB80FFF7F9FA7862FB6893F83D30DBB222
:10209800202B40F008827B6A0093192301227B4998
:1020A800F86800F0B1FC0346002B01D00223FBE1E5
:1020B800FB6893F83C30012B01D10223F4E1FB6863
:1020C800012283F83C20FB681B681B6803F00103AE
:1020D800012B07D0FB681B68FA681268126842F087
:1020E80001021A60FB681B68FA681268126822F419
:1020F80000621A60FB68222283F83D20FB684022B8
:1021080083F83E20FB6800221A64FB683A6B5A6227
:10211800FB68BA8E5A85FB685B8D9AB2FB681A8594
:10212800FB685B4ADA62F8883A8979897B6A0193A5
:10213800BB6B00930346F86800F07EFB0346002B58
:1021480001D00123B0E1FB681B8D002B13D10023C4
:102158003B62FB681B685B693B62FB681B689B69A9
:102168003B623B6AFB681B68FA681268126842F4B3
:1021780000721A6084E1FB681B8D012B1BD1FB6880
:102188001B68FA681268126822F480621A600023D9
:10219800FB61FB681B685B69FB61FB681B689B69EB
:1021A800FB61FB69FB681B68FA681268126842F4F5
:1021B80000721A6064E1FB681B8D022B1BD1FB685F
:1021C8001B68FA681268126822F480621A60FB6859
:1021D8001B68FA681268126842F400621A600023E9
:1021E800BB61FB681B685B69BB61FB681B689B691B
:1021F800BB61BB6944E100237B61FB681B685B69C9
:102208007B61FB681B689B697B617B6938E1FB68C4
:102218001B8D032B00F2F180FB681B8D012B23D152
:102228007A6AB96BF86800F047FD0346002B01D0C5
:10223800012339E1FB685B6AFA6812681269D2B255
:102248001A70FB685B6A5A1CFB685A62FB681B8D34
:10225800013B9AB2FB681A85FB685B8D9BB2013B18
:102268009AB2FB685A850BE1FB681B8D022B4ED195
:102278007B6A0093BB6B00220649F86800F0C4FB38
:102288000346002B08D001230EE100BF0200100016
:102298000000FFFF04000100FB681B68FA68126871
:1022A800126842F400721A60FB685B6AFA68126886
:1022B8001269D2B21A70FB685B6A5A1CFB685A62D0
:1022C800FB681B8D013B9AB2FB681A85FB685B8D26
:1022D8009BB2013B9AB2FB685A85FB685B6AFA6855
:1022E80012681269D2B21A70FB685B6A5A1CFB68E2
:1022F8005A62FB681B8D013B9AB2FB681A85FB6822
:102308005B8D9BB2013B9AB2FB685A85B8E07B6A49
:102318000093BB6B00226649F86800F075FB034622
:10232800002B01D00123BFE0FB681B68FA68126824
:10233800126822F480621A60FB685B6AFA681268A5
:102348001269D2B21A70FB685B6A5A1CFB685A623F
:10235800FB681B8D013B9AB2FB681A85FB685B8D95
:102368009BB2013B9AB2FB685A857B6A0093BB6BB0
:1023780000224F49F86800F047FB0346002B01D0C4
:10238800012391E0FB681B68FA681268126842F43E
:1023980000721A60FB685B6AFA6812681269D2B246
:1023A8001A70FB685B6A5A1CFB685A62FB681B8DD3
:1023B800013B9AB2FB681A85FB685B8D9BB2013BB7
:1023C8009AB2FB685A85FB685B6AFA6812681269F8
:1023D800D2B21A70FB685B6A5A1CFB685A62FB68C7
:1023E8001B8D013B9AB2FB681A85FB685B8D9BB21B
:1023F800013B9AB2FB685A8542E07A6AB96BF86881
:1024080000F05AFC0346002B01D001234CE0FB6886
:102418005B6AFA6812681269D2B21A70FB685B6A62
:102428005A1CFB685A62FB681B8D013B9AB2FB6819
:102438001A85FB685B8D9BB2013B9AB2FB685A8593
:10244800FB681B685B6903F00403042B18D1FB6865
:102458005B6AFA6812681269D2B21A70FB685B6A22
:102468005A1CFB685A62FB681B8D013B9AB2FB68D9
:102478001A85FB685B8D9BB2013B9AB2FB685A8553
:10248800FB681B8D002B7FF4C2AEFB68202283F80B
:102498003D20FB68002283F83E20FB68002283F879
:1024A8003C20002300E0022318462837BD4680BDA3
:1024B8000400010080B58AB002AFF8607A603B6022
:1024C8000B467B81FFF7D8F8F8610123BB61FB68F5
:1024D80093F83D30DBB2202B40F01081FB6900936C
:1024E800192301228849F86800F08EFA0346002B68
:1024F80001D0022303E1FB6893F83C30012B01D1A2
:102508000223FCE0FB68012283F83C20FB681B687F
:102518001B6803F00103012B07D0FB681B68FA68EE
:102528001268126842F001021A60FB681B68FA68B8
:102538001268126822F400621A60FB68242283F889
:102548003D20FB6800221A64FB68704ADA62FB6867
:102558001B68FA681268126842F480721A60FB6994
:1025680000933B6800224FF00111F86800F04CFA24
:102578000346002B0DD0FB681B681B6803F48073AF
:10258800B3F5807F03D1FB684FF400721A6403230C
:10259800B5E0FB681B687A89D2B202F0FE021A61C4
:1025A800FFF76AF8F861FB681B685B6903F00203D0
:1025B800022B0CBF01230023DBB2FB75FB681B68F1
:1025C8005B6903F48063B3F5806F0CBF01230023BC
:1025D800DBB2BB7525E0FFF74FF80246FB69D21A5C
:1025E8003B689A4202D83B68002B03D1FB68A022C3
:1025F80083F83D20FB681B685B6903F00203022B2C
:102608000CBF01230023DBB2FB75FB681B685B6909
:1026180003F48063B3F5806F0CBF01230023DBB2A2
:10262800BB75FB6893F83D30DBB2A02B05D0FB7D72
:10263800002B02D1BB7D002BCDD0FB68202283F874
:102648003D20FB681B685B6903F00203022B29D15C
:10265800FB681B68FA681268126842F400721A6014
:1026680000233B61FB681B685B693B61FB681B6877
:102678009B693B613B69FB6900931923012222494D
:10268800F86800F0C1F90346002B01D0012336E0B9
:10269800FB68202283F83D20FB68002283F83C2059
:1026A80000232CE0FB681B68FA681268126842F481
:1026B80000721A60FB681B686FF480625A61FB69DC
:1026C8000093192301221049F86800F09DF9034688
:1026D800002B01D0012312E0BB690133BB61BA6949
:1026E8007B689A42FFF433AFFB68202283F83D20D1
:1026F800FB68002283F83C20012300E002231846EF
:102708002037BD4680BD00BF020010000000FFFF5B
:1027180080B588B002AFF860084611461A460346ED
:102728007B810B463B811346FB80FB681B68FA687C
:102738001268126842F480721A607B6A00933B6ADE
:1027480000224FF00111F86800F05EF90346002BF3
:102758000DD0FB681B681B6803F48073B3F5807F9A
:1027680003D1FB684FF400721A6403235EE0FB6830
:102778001B687A89D2B202F0FE021A617B6A3A6A51
:102788002C49F86800F097F90346002B01D0012383
:102798004CE000237B61FB681B685B697B61FB681D
:1027A8001B689B697B617B697A6A396AF86800F003
:1027B80001FA0346002B0DD0FB681B6C042B07D1D4
:1027C800FB681B68FA681268126842F400721A60A3
:1027D80001232BE0FB88012B05D1FB681B683A8994
:1027E800D2B21A6121E0FB681B683A89120A92B2D8
:1027F800D2B21A617A6A396AF86800F0DBF90346DE
:10280800002B0DD0FB681B6C042B07D1FB681B68E1
:10281800FA681268126842F400721A60012305E02F
:10282800FB681B683A89D2B21A6100231846183728
:10283800BD4680BD0200010080B588B002AFF860D7
:10284800084611461A4603467B810B463B811346D0
:10285800FB80FB681B68FA681268126842F48062A1
:102868001A60FB681B68FA681268126842F4807282
:102878001A607B6A00933B6A00224FF00111F868E6
:1028880000F0C2F80346002B0DD0FB681B681B68DC
:1028980003F48073B3F5807F03D1FB684FF40072B3
:1028A8001A640323A9E0FB681B687A89D2B202F094
:1028B800FE021A617B6A3A6A5249F86800F0FBF82E
:1028C8000346002B01D0012397E000237B61FB68BE
:1028D8001B685B697B61FB681B689B697B617B6923
:1028E8007A6A396AF86800F065F90346002B0DD05A
:1028F800FB681B6C042B07D1FB681B68FA6812681D
:10290800126842F400721A60012376E0FB88012BFA
:1029180005D1FB681B683A89D2B21A6121E0FB68CD
:102928001B683A89120A92B2D2B21A617A6A396A73
:10293800F86800F03FF90346002B0DD0FB681B6CCC
:10294800042B07D1FB681B68FA681268126842F406
:1029580000721A60012350E0FB681B683A89D2B202
:102968001A617A6A396AF86800F024F90346002B7C
:102978000DD0FB681B6C042B07D1FB681B68FA6839
:102988001268126842F400721A60012335E0FB688D
:102998001B68FA681268126842F480721A607B6ACF
:1029A80000933B6A00224FF00111F86800F02CF800
:1029B8000346002B0DD0FB681B681B6803F480736B
:1029C800B3F5807F03D1FB684FF400721A640323C8
:1029D80013E0FB681B687A89D2B242F00102D2B2D6
:1029E8001A617B6A3A6A0749F86800F064F8034696
:1029F800002B01D0012300E0002318461837BD46FC
:102A080080BD00BF0200010080B584B000AFF8604F
:102A1800B9603B601346FB7125E03B68B3F1FF3FAB
:102A280021D0FEF729FE0246BB69D21A3B689A42BA
:102A380002D83B68002B16D1FB6800221A63FB689A
:102A4800202283F83D20FB68002283F83E20FB68A3
:102A58001B6C43F02002FB681A64FB68002283F8B1
:102A68003C20012323E0BB681B0CDBB2012B0DD1FA
:102A7800FB681B685B69DA43BB6813409BB2002B99
:102A88000CBF01230023DBB21A460CE0FB681B686D
:102A98009B69DA43BB6813409BB2002B0CBF012330
:102AA8000023DBB21A46FB799A42B6D000231846B7
:102AB8001037BD4680BD80B584B000AFF860B960FE
:102AC8007A603B6051E0FB681B685B6903F48063D4
:102AD800B3F5806F23D1FB681B68FA681268126827
:102AE80042F400721A60FB681B686FF480625A61D6
:102AF800FB6800221A63FB68202283F83D20FB68EC
:102B0800002283F83E20FB681B6C43F00402FB683C
:102B18001A64FB68002283F83C20012346E07B68A6
:102B2800B3F1FF3F21D0FEF7A7FD02463B68D21A5A
:102B38007B689A4202D87B68002B16D1FB6800227A
:102B48001A63FB68202283F83D20FB68002283F883
:102B58003E20FB681B6C43F02002FB681A64FB688C
:102B6800002283F83C20012320E0BB681B0CDBB269
:102B7800012B0CD1FB681B685B69DA43BB68134007
:102B88009BB2002B14BF01230023DBB20BE0FB68D0
:102B98001B689B69DA43BB6813409BB2002B14BFC8
:102BA80001230023DBB2002B8DD1002318461037F8
:102BB800BD4680BD80B584B000AFF860B9607A606A
:102BC8002DE0F86800F0CEF80346002B01D0012371
:102BD8002DE0BB68B3F1FF3F21D0FEF74DFD024663
:102BE8007B68D21ABB689A4202D8BB68002B16D100
:102BF800FB6800221A63FB68202283F83D20FB68EB
:102C0800002283F83E20FB681B6C43F02002FB681F
:102C18001A64FB68002283F83C20012307E0FB6864
:102C28001B685B6903F08003802BCAD10023184618
:102C38001037BD4680BD80B584B000AFF860B9607C
:102C48007A602DE0F86800F08DF80346002B01D07B
:102C580001232DE0BB68B3F1FF3F21D0FEF70CFD47
:102C680002467B68D21ABB689A4202D8BB68002B1E
:102C780016D1FB6800221A63FB68202283F83D20E6
:102C8800FB68002283F83E20FB681B6C43F020029F
:102C9800FB681A64FB68002283F83C20012307E0E4
:102CA800FB681B685B6903F00403042BCAD100238B
:102CB80018461037BD4680BD80B584B000AFF860B7
:102CC800B9607A6042E0FB681B685B6903F0100337
:102CD800102B19D1FB681B686FF010025A61FB6852
:102CE80000221A63FB68202283F83D20FB6800223B
:102CF80083F83E20FB681A6CFB681A64FB680022A4
:102D080083F83C20012329E0FEF7B6FC02467B68E5
:102D1800D21ABB689A4202D8BB68002B16D1FB684E
:102D280000221A63FB68202283F83D20FB680022FA
:102D380083F83E20FB681B6C43F02002FB681A6492
:102D4800FB68002283F83C20012307E0FB681B682E
:102D58005B6903F04003402BB5D1002318461037B8
:102D6800BD4680BD80B483B000AF78607B681B68C7
:102D78005B6903F48063B3F5806F1BD17B681B68C4
:102D88006FF480625A617B6800221A637B68202294
:102D980083F83D207B68002283F83E207B681B6C0B
:102DA80043F004027B681A647B68002283F83C20A5
:102DB800012300E0002318460C37BD465DF8047B6C
:102DC8007047000080B586B000AF78607B68002B44
:102DD80001D1012364E27B681B6803F00103002B27
:102DE80075D0A34B9B6803F00C03042B0CD0A04BAD
:102DF8009B6803F00C03082B12D19D4B5B6803F40E
:102E08008003B3F5800F0BD1994B1B6803F4003393
:102E1800002B5BD07B685B68002B57D101233FE216
:102E28007B685B68B3F5803F06D1914A904B1B687D
:102E380043F4803313601DE07B685B68B3F5A02F13
:102E48000CD18B4A8A4B1B6843F480231360884A51
:102E5800874B1B6843F4803313600BE0844A844B30
:102E68001B6823F480331360814A814B1B6823F469
:102E7800802313607B685B68002B13D0FEF7FCFB94
:102E8800386108E0FEF7F8FB02463B69D31A642B69
:102E980001D9032304E2764B1B6803F40033002BAB
:102EA800F0D014E0FEF7E8FB386108E0FEF7E4FB39
:102EB80002463B69D31A642B01D90323F0E16C4B1A
:102EC8001B6803F40033002BF0D100E000BF7B68DF
:102ED8001B6803F00203002B63D0654B9B6803F06B
:102EE8000C03002B0BD0624B9B6803F00C03082BE0
:102EF8001CD15F4B5B6803F48003002B16D15C4B3D
:102F08001B6803F00203002B05D07B68DB68012BEC
:102F180001D00123C4E15649554B1B6823F0F80240
:102F28007B681B69DB0013430B603AE07B68DB6856
:102F3800002B20D04F4B01221A60FEF79DFB386111
:102F480008E0FEF799FB02463B69D31A022B01D928
:102F58000323A5E1464B1B6803F00203002BF0D0C6
:102F68004349434B1B6823F0F8027B681B69DB006D
:102F780013430B6015E03F4B00221A60FEF77CFB01
:102F8800386108E0FEF778FB02463B69D31A022B4A
:102F980001D9032384E1364B1B6803F00203002B9D
:102FA800F0D17B681B6803F00803002B30D07B68E6
:102FB8005B69002B16D0304B01221A60FEF75CFBD0
:102FC800386108E0FEF758FB02463B69D31A022B2A
:102FD80001D9032364E1264B5B6F03F00203002B46
:102FE800F0D015E0244B00221A60FEF745FB38614B
:102FF80008E0FEF741FB02463B69D31A022B01D9D0
:1030080003234DE11A4B5B6F03F00203002BF0D151
:103018007B681B6803F00403002B00F0A0800023EA
:10302800FB75134B1B6C03F08053002B0FD100234F
:10303800BB600F4A0E4B1B6C43F0805313640C4B60
:103048001B6C03F08053BB60BB680123FB750B4B03
:103058001B6803F48073002B21D1084A074B1B68B7
:1030680043F480731360FEF707FB386111E000BF7B
:103078000038024000004742800E4742007000407E
:10308800FEF7FAFA02463B69D31A022B01D9032349
:1030980006E1854B1B6803F48073002BF0D07B6836
:1030A8009B68012B06D1814A804B1B6F43F00103BB
:1030B80013671CE07B689B68052B0CD17B4A7B4B14
:1030C8001B6F43F004031367784A784B1B6F43F078
:1030D800010313670BE0754A744B1B6F23F0010360
:1030E8001367724A714B1B6F23F0040313677B68E5
:1030F8009B68002B15D0FEF7BFFA38610AE0FEF78F
:10310800BBFA02463B69D31A41F28832934201D98D
:103118000323C5E0654B1B6F03F00203002BEED0C1
:1031280014E0FEF7A9FA38610AE0FEF7A5FA0246AC
:103138003B69D31A41F28832934201D90323AFE0A5
:103148005A4B1B6F03F00203002BEED1FB7D012BC2
:1031580005D1564A554B1B6C23F0805313647B688A
:103168009B69002B00F09B80504B9B6803F00C037D
:10317800082B5CD07B689B69022B41D14C4B002209
:103188001A60FEF779FA386108E0FEF775FA024628
:103198003B69D31A022B01D9032381E0434B1B68F7
:1031A80003F00073002BF0D140497B68DA697B6833
:1031B8001B6A1A437B685B6A9B011A437B689B6A9C
:1031C8005B08013B1B041A437B68DB6A1B0613433D
:1031D8004B60374B01221A60FEF74EFA386108E05F
:1031E800FEF74AFA02463B69D31A022B01D9032398
:1031F80056E02E4B1B6803F00073002BF0D04EE016
:103208002B4B00221A60FEF737FA386108E0FEF708
:1032180033FA02463B69D31A022B01D903233FE054
:10322800224B1B6803F00073002BF0D137E07B685A
:103238009B69012B01D1012332E01C4B5B68FB60C9
:103248007B689B69012B28D0FB6803F480027B68AC
:10325800DB699A4221D1FB6803F03F027B681B6A55
:103268009A421AD1FA6847F6C07313407A68526ACC
:103278009201934211D1FB6803F440327B689B6A48
:103288005B08013B1B049A4207D1FB6803F070629C
:103298007B68DB6A1B069A4201D0012300E0002309
:1032A80018461837BD4680BD0070004000380240FF
:1032B8006000474280B584B000AF786039607B68B1
:1032C800002B01D10123CCE0684B1B6803F00702F7
:1032D8003B689A420CD2654B3A68D2B21A70634B7B
:1032E8001B6803F007023B689A4201D00123B8E04B
:1032F8007B681B6803F00203002B20D07B681B68E7
:1033080003F00403002B05D0594A594B9B6843F43A
:10331800E05393607B681B6803F00803002B05D01B
:10332800534A534B9B6843F4604393605049504B56
:103338009B6823F0F0027B689B6813438B607B6873
:103348001B6803F00103002B44D07B685B68012BEA
:1033580007D1474B1B6803F40033002B19D1012315
:103368007FE07B685B68022B03D07B685B68032B7C
:1033780007D13F4B1B6803F00073002B09D10123D1
:103388006FE03B4B1B6803F00203002B01D10123C4
:1033980067E03749364B9B6823F003027B685B681C
:1033A80013438B60FEF768F9F8600AE0FEF764F9EA
:1033B8000246FB68D31A41F28832934201D90323AB
:1033C8004FE02B4B9B6803F00C027B685B689B000B
:1033D8009A42EBD1254B1B6803F007023B689A42DF
:1033E8000CD9224B3A68D2B21A70204B1B6803F0F2
:1033F80007023B689A4201D0012332E07B681B68D0
:1034080003F00403002B08D01949194B9B6823F4D7
:10341800E0527B68DB6813438B607B681B6803F0B2
:103428000803002B09D01249114B9B6823F4604212
:103438007B681B69DB0013438B6000F021F80146B1
:103448000B4B9B681B0903F00F030A4AD35C21FA54
:1034580003F3094A1360094B1B681846FEF7C8F8BE
:10346800002318461037BD4680BD00BF003C02400F
:1034780000380240F8360008000000200400002050
:103488002DE9F04F87B000AF0022FA6000227A6180
:103498000022BA6000223A61514A926802F00C0296
:1034A800042A07D0082A08D0002A40F090804D4B03
:1034B8003B618FE04C4B3B618CE0494A526802F01B
:1034C8003F02FA60464A526802F48002002A23D07A
:1034D800434B5B689B094FF0000440F2FF114FF02B
:1034E800000203EA010304EA02043F4A02FB04F172
:1034F800002202FB03F20A443B49A3FB01015318D3
:103508001946FB684FF000041A462346FDF74AFAAD
:1035180003460C467B614CE0314A526892091146D9
:103528004FF0000240F2FF154FF0000605EA0105D2
:1035380006EA0206294632464FEA421B4BEAD16B9D
:103548004FEA411A51465A46AA46B34655465E4680
:103558004D1B62EB060629463246940144EA916403
:103568008B015B1A64EB02044FEAC40949EA5379F8
:103578004FEAC30843464C4655465E46ED1846EBAF
:1035880004062B463446A2027A607A6842EA9352CD
:103598007A609B023B6097E8180018462146FB6852
:1035A8004FF000041A462346FDF7FCF903460C4683
:1035B8007B610B4B5B681B0C03F0030301335B005F
:1035C800BB607A69BB68B2FBF3F33B6102E0054B71
:1035D8003B6100BF3B6918461C37BD46BDE8F08F0C
:1035E800003802400024F40040787D0180B400AF28
:1035F800034B1B681846BD465DF8047B704700BF47
:103608000000002080B500AFFFF7F0FF0146054B32
:103618009B689B0A03F00703034AD35C21FA03F370
:10362800184680BD0038024008370008DFF834D05B
:103638000D480E490E4A002302E0D458C450043302
:10364800C4188C42F9D30B4A0B4C002301E01360D9
:103658000432A242FBD3FDF797FF00F011F8FDF703
:1036680005FE704700000220000000200C0000202A
:10367800203700080C000020C8000020FEE70000EA
:1036880070B50D4E0D4CA41BA4100025A54209D100
:103698000B4E0C4C00F020F8A41BA4100025A542EA
:1036A80005D170BD56F8253098470135EEE756F834
:1036B800253098470135F2E7183700081837000811
:1036C800183700081C37000802440346934200D10B
:1036D800704703F8011BF9E7F8B500BFF8BC08BC50
:1036E8009E467047F8B500BFF8BC08BC9E467047B8
:1036F800000000000000000001020304060708099A
:083708000000000001020304AF
:08371000CCD2FF7F0100000094
:04371800AD010008F7
:04371C008901000817
:0C3720000024F400100000000100000074
:040000050800363584
:00000001FF
