:020000040800F2
:1000000000000220451D0008350900083B090008D2
:1000100041090008470900084D09000800000000D8
:10002000000000000000000000000000530900086C
:1000300061090008000000006F0900087D09000840
:10004000951D0008951D0008951D0008951D0008C8
:10005000951D0008951D0008951D0008951D0008B8
:10006000951D0008951D0008951D0008951D0008A8
:10007000951D0008951D0008951D0008951D000898
:10008000951D0008951D0008951D0008951D000888
:10009000951D0008951D0008951D0008951D000878
:1000A000951D0008951D0008951D0008951D000868
:1000B000951D0008951D0008951D0008951D000858
:1000C000951D0008951D0008951D0008951D000848
:1000D000951D0008951D0008951D0008951D000838
:1000E000951D0008951D0008951D0008951D000828
:1000F000951D0008951D0008951D0008951D000818
:10010000951D0008951D0008951D0008951D000807
:10011000951D0008951D0008951D0008951D0008F7
:10012000951D0008951D0008951D0008951D0008E7
:10013000951D0008951D0008951D0008951D0008D7
:10014000951D0008951D0008951D0008951D0008C7
:10015000951D0008951D0008951D0008951D0008B7
:10016000951D0008951D0008951D0008951D0008A7
:10017000951D0008951D0008951D00080000000051
:08018000951D0008951D000803
:1001880010B5054C237833B9044B13B10448AFF3C9
:1001980000800123237010BD0C0000200000000027
:1001A800F01D000808B5034B1BB103490348AFF322
:1001B800008008BD0000000010000020F01D0008AD
:1001C80053B94AB9002908BF00281CBF4FF0FF31B6
:1001D8004FF0FF3000F07AB9ADF1080C6DE904CEAC
:1001E80000F006F8DDF804E0DDE9022304B070470A
:1001F8002DE9F0478C460D460446089E002B51D148
:100208008A4217466DD9B2FA82FEBEF1000F0BD0B2
:10021800CEF1200C01FA0EF520FA0CFC02FA0EF7CA
:100228004CEA050C00FA0EF44FEA174A250CBCFB01
:10023800FAF81FFA87F90AFB18CC45EA0C4508FBBF
:1002480009F3AB420AD9ED1908F1FF3280F0238196
:10025800AB4240F22081A8F102083D44ED1AA4B255
:10026800B5FBFAF00AFB105544EA054400FB09F90E
:10027800A14509D9E41900F1FF3380F00A81A145AD
:1002880040F2078102383C44A4EB090440EA0840E4
:100298000021002E61D024FA0EF40023346073602C
:1002A800BDE8F0878B4207D9002E54D0002186E89C
:1002B80021000846BDE8F087B3FA83F1002940F031
:1002C8008E80AB4202D3824200F2FA80841A65EB38
:1002D80003050120AC46002E3FD086E81010BDE88B
:1002E800F08712B90127B7FBF2F7B7FA87FEBEF11C
:1002F800000F34D1EB1B3A0C1FFA87FC0121B3FB2A
:10030800F2F8250C02FB183345EA03450CFB08F309
:10031800AB4207D9ED1908F1FF3002D2AB4200F227
:10032800D1808046ED1AA3B2B5FBF2F002FB10555E
:1003380043EA05440CFB00FCA44507D9E41900F185
:10034800FF3302D2A44500F2B8801846A4EB0C048F
:1003580040EA08409DE731463046BDE8F087CEF1D7
:10036800200405FA0EF307FA0EF720FA04F83A0CFF
:1003780025FA04F448EA0308B4FBF2F14FEA1845F9
:1003880002FB11441FFA87FC45EA044501FB0CF304
:10039800AB4200FA0EF409D9ED1901F1FF3080F0F3
:1003A8008A80AB4240F2878002393D44EB1A1FFA3B
:1003B80088F5B3FBF2F002FB103345EA034500FB76
:1003C8000CF3AB4207D9ED1900F1FF386FD2AB42FD
:1003D8006DD902383D44EB1A40EA01418FE7C1F17B
:1003E800200722FA07F88B4005FA01F448EA0303CC
:1003F80020FA07FE4FEA134CFD404EEA040EB5FB07
:10040800FCF94FEA1E440CFB19551FFA83F844EA1D
:10041800054509FB08F4AC4202FA01F200FA01FAB8
:1004280008D9ED1809F1FF3043D2AC4241D9A9F1FE
:1004380002091D442D1B1FFA8EFEB5FBFCF00CFBB8
:1004480010554EEA054400FB08F8A04507D9E41802
:1004580000F1FF3529D2A04527D902381C4440EACB
:100468000940A4EB0804A0FB02894C45C6464D464A
:1004780015D312D056B1BAEB0E0364EB050404FA97
:1004880007F7CB401F43CC40376074600021BDE8BC
:10049800F0871846F8E69046E0E6C245EAD2B8EB9F
:1004A800020E69EB03050138E4E72846D7E7404622
:1004B80091E78146BEE7014678E702383C4445E7C4
:1004C800084608E7A8F102083D442BE7704700BF3B
:1004D80080B582B000AF00F065FA00F013F800F0C4
:1004E800A5F800F06DF800F00BF900237B6079683F
:1004F800786800F031F97B6801337B60372000F0C1
:10050800C3FAF4E780B594B000AF07F120033022B6
:100518000021184601F060FC07F10C0300221A6064
:100528005A609A60DA601A610023BB60224A224B43
:100538001B6C43F0805313641F4B1B6C03F08053F8
:10054800BB60BB6800237B601C4A1C4B1B6843F4E0
:1005580080431360194B1B6803F480437B607B68FE
:1005680002233B620123FB6210233B630023BB632E
:1005780007F12003184600F041FD0346002B01D087
:1005880000F0BAF80F23FB6000233B6100237B6176
:100598000023BB610023FB6107F10C03002118460F
:1005A80000F0A4FF0346002B01D000F0A5F800BF1F
:1005B8005037BD4680BD00BF003802400070004083
:1005C80080B500AF174B184A1A60164B4FF4827269
:1005D8005A60144B00229A60124B0022DA60114BC9
:1005E80002221A610F4B01225A610E4B4FF400721E
:1005F8009A610C4B0822DA610A4B00221A62094BF5
:1006080000225A62074B00229A62064B0A22DA62DB
:10061800044801F007F90346002B01D000F06CF8FC
:1006280000BF80BD280000200030014080B588B0A0
:1006380000AF07F10C0300221A605A609A60DA6072
:100648001A610023BB60294A284B1B6B43F0010346
:100658001363264B1B6B03F00103BB60BB680023CD
:100668007B60224A214B1B6B43F0040313631F4B2F
:100678001B6B03F004037B607B6800233B601B4A11
:100688001A4B1B6B43F002031363184B1B6B03F0ED
:1006980002033B603B6800223021154800F094FCBF
:1006A80000220721134800F08FFC3023FB60012350
:1006B8003B6100237B610023BB6107F10C031946F2
:1006C8000B4800F0E7FA0723FB6001233B61002396
:1006D8007B610023BB6107F10C031946054800F054
:1006E800D9FA00BF2037BD4680BD00BF00380240A0
:1006F800000802400004024080B400AF72B6FEE772
:1007080080B500AF00F014F8212000F075F8B8208B
:1007180000F072F8042000F06FF8142000F06CF874
:10072800202000F069F80C2000F066F800BF80BDBA
:1007380080B500AF00220221064800F045FC642085
:1007480000F0A2F901220221024800F03DFC00BF9E
:1007580080BD00BF0004024080B582B000AF0346F0
:100768000A46FB711346BB71BB7943F04003DBB209
:10077800BB71FB7963F07F03FB71002204211B48E6
:1007880000F022FC01222021194800F01DFCFB7911
:1007980019460A230122174801F0CCF80122042146
:1007A800124800F011FC00222021114800F00CFC36
:1007B800002204210D4800F007FC002220210C48EB
:1007C80000F002FCB91D0A2301220A4801F0B2F820
:1007D80001220421054800F0F7FB012220210448EA
:1007E80000F0F2FB00BF0837BD4680BD00040240A0
:1007F800000802402800002080B582B000AF034600
:10080800FB71002204210E4800F0DEFB01222021AA
:100818000C4800F0D9FBF91D0A2301220A4801F00F
:1008280089F801220421064800F0CEFB002220218D
:10083800044800F0C9FB00BF0837BD4680BD00BFB3
:1008480000040240000802402800002080B483B061
:1008580000AF00237B60104A0F4B5B6C43F480436E
:1008680053640D4B5B6C03F480437B607B6800230F
:100878003B60094A084B1B6C43F080531364064BDA
:100888001B6C03F080533B603B6800BF0C37BD46D0
:100898005DF8047B704700BF0038024080B58AB01D
:1008A80000AF786007F1140300221A605A609A605A
:1008B800DA601A617B681B68194A93422BD10023BE
:1008C8003B61184A174B5B6C43F480535364154BD8
:1008D8005B6C03F480533B613B690023FB60114A66
:1008E800104B1B6B43F0010313630E4B1B6B03F0A0
:1008F8000103FB60FB68E0237B610223BB610023EB
:10090800FB6103233B6205237B6207F1140319464D
:10091800054800F0BFF900BF2837BD4680BD00BFBD
:1009280000300140003802400000024080B400AFAF
:10093800FEE780B400AFFEE780B400AFFEE780B406
:1009480000AFFEE780B400AFFEE780B400AF00BFA1
:10095800BD465DF8047B704780B400AF00BFBD465C
:100968005DF8047B704780B400AF00BFBD465DF8FA
:10097800047B704780B500AF00F066F800BF80BD0B
:1009880080B400AF064A064BD3F8883043F47003AE
:10099800C2F8883000BFBD465DF8047B704700BFD1
:1009A80000ED00E080B500AF0E4A0E4B1B6843F423
:1009B800007313600B4A0B4B1B6843F4806313608E
:1009C800084A084B1B6843F480731360032000F047
:1009D8002DF9002000F008F8FFF738FF002318462B
:1009E80080BD00BF003C024080B582B000AF786097
:1009F800124B1A68124B1B7819464FF47A73B3FBE3
:100A0800F1F3B2FBF3F3184600F037F90346002B75
:100A180001D001230EE07B680F2B0AD800227968E9
:100A28004FF0FF3000F00DF9064A7B681360002391
:100A380000E0012318460837BD4680BD00000020AD
:100A4800080000200400002080B400AF064B1B788B
:100A58001A46064B1B681344044A136000BFBD4680
:100A68005DF8047B704700BF08000020800000206C
:100A780080B400AF034B1B681846BD465DF8047B85
:100A8800704700BF8000002080B584B000AF786058
:100A9800FFF7EEFFB8607B68FB60FB68B3F1FF3FD0
:100AA80005D0094B1B781A46FB681344FB6000BF4E
:100AB800FFF7DEFF0246BB68D21AFB689A42F7D3FB
:100AC80000BF1037BD4680BD0800002080B485B047
:100AD80000AF78607B6803F00703FB600C4BDB68B2
:100AE800BB60BA684FF6FF031340BB60FB681A028D
:100AF800BB68134343F0BF6343F40033BB60044A4D
:100B0800BB68D36000BF1437BD465DF8047B7047EF
:100B180000ED00E080B400AF044BDB681B0A03F073
:100B280007031846BD465DF8047B704700ED00E0FA
:100B380080B483B000AF03463960FB7197F9073082
:100B4800002B0ADB0D4997F907303A68D2B2120137
:100B5800D2B20B4483F800230AE00949FB7903F079
:100B68000F03043B3A68D2B21201D2B20B441A7690
:100B780000BF0C37BD465DF8047B704700E100E01C
:100B880000ED00E080B489B000AFF860B9607A6029
:100B9800FB6803F00703FB61FB69C3F10703042B40
:100BA80028BF0423BB61FB690433062B02D9FB6908
:100BB800033B00E000237B610122BB6902FA03F3D7
:100BC8005A1EBB681A407B699A4001217B6901FA69
:100BD80003F3591E7B680B40134318462437BD4660
:100BE8005DF8047B7047000080B582B000AF786084
:100BF8007B68013BB3F1807F01D301230FE00A4AF0
:100C08007B68013B53600F214FF0FF30FFF790FFE7
:100C1800054B00229A60044B07221A6000231846ED
:100C28000837BD4680BD00BF10E000E080B582B047
:100C380000AF78607868FFF749FF00BF0837BD4606
:100C480080BD80B586B000AF0346B9607A60FB739B
:100C580000237B61FFF75EFF78617A68B96878697D
:100C6800FFF790FF024697F90F3011461846FFF735
:100C78005FFF00BF1837BD4680BD80B582B000AFAA
:100C880078607868FFF7B0FF034618460837BD4616
:100C980080BD000080B489B000AF7860396000235F
:100CA8007B6100233B610023BB610023FB616BE197
:100CB8000122FB6902FA03F37B613B681A687B69CE
:100CC80013403B613A697B699A4240F05A813B681C
:100CD8005B6803F00303012B05D03B685B6803F0F6
:100CE8000303022B30D17B689B68BB61FB695B0007
:100CF800032202FA03F3DB43BA691340BB613B6882
:100D0800DA68FB695B0002FA03F3BA691343BB6153
:100D18007B68BA699A607B685B68BB610122FB6982
:100D280002FA03F3DB43BA691340BB613B685B68B3
:100D38001B0903F00102FB6902FA03F3BA691343C2
:100D4800BB617B68BA695A603B685B6803F0030360
:100D5800032B17D07B68DB68BB61FB695B00032250
:100D680002FA03F3DB43BA691340BB613B689A6834
:100D7800FB695B0002FA03F3BA691343BB617B6842
:100D8800BA69DA603B685B6803F00303022B23D17E
:100D9800FB69DA087B68083253F82230BB61FB69CB
:100DA80003F007039B000F2202FA03F3DB43BA693F
:100DB8001340BB613B681A69FB6903F007039B009A
:100DC80002FA03F3BA691343BB61FB69DA087B686B
:100DD8000832B96943F822107B681B68BB61FB695C
:100DE8005B00032202FA03F3DB43BA691340BB61D9
:100DF8003B685B6803F00302FB695B0002FA03F3DC
:100E0800BA691343BB617B68BA691A603B685B685F
:100E180003F44033002B00F0B4800023FB605F4AEA
:100E28005E4B5B6C43F4804353645C4B5B6C03F434
:100E38008043FB60FB685A4AFB699B08023352F8FF
:100E48002330BB61FB6903F003039B000F2202FA06
:100E580003F3DB43BA691340BB617B68514A934291
:100E68002BD07B68504A934225D07B684F4A9342E7
:100E78001FD07B684E4A934219D07B684D4A9342F3
:100E880013D07B684C4A93420DD07B684B4A9342FF
:100E980007D07B684A4A934201D107230EE0082312
:100EA8000CE006230AE0052308E0042306E00323F8
:100EB80004E0022302E0012300E00023FA6902F0C3
:100EC800030292009340BA691343BB613449FB693A
:100ED8009B080233BA6941F823203A4B1B68BB616F
:100EE8003B69DB43BA691340BB613B685B6803F449
:100EF8008033002B03D0BA693B691343BB61314A85
:100F0800BB6913602F4B5B68BB613B69DB43BA6904
:100F18001340BB613B685B6803F40033002B03D0CC
:100F2800BA693B691343BB61264ABB695360254BC9
:100F38009B68BB613B69DB43BA691340BB613B6893
:100F48005B6803F48013002B03D0BA693B69134331
:100F5800BB611C4ABB6993601A4BDB68BB613B6988
:100F6800DB43BA691340BB613B685B6803F4001359
:100F7800002B03D0BA693B691343BB61114ABB69B3
:100F8800D360FB690133FB61FB690F2B7FF690AEE1
:100F980000BF2437BD465DF8047B70470038024027
:100FA80000380140000002400004024000080240EE
:100FB800000C0240001002400014024000180240D9
:100FC800001C0240003C014080B483B000AF786050
:100FD8000B467B8013467B707B78002B03D07A8886
:100FE8007B689A6103E07B881A047B689A6100BF7A
:100FF8000C37BD465DF8047B7047000080B586B0AD
:1010080000AF78607B68002B01D1012364E27B6824
:101018001B6803F00103002B75D0A34B9B6803F0FA
:101028000C03042B0CD0A04B9B6803F00C03082B7B
:1010380012D19D4B5B6803F48003B3F5800F0BD18D
:10104800994B1B6803F40033002B5BD07B685B680B
:10105800002B57D101233FE27B685B68B3F5803FE3
:1010680006D1914A904B1B6843F4803313601DE00E
:101078007B685B68B3F5A02F0CD18B4A8A4B1B6841
:1010880043F480231360884A874B1B6843F48033FA
:1010980013600BE0844A844B1B6823F4803313608D
:1010A800814A814B1B6823F4802313607B685B684B
:1010B800002B13D0FFF7DCFC386108E0FFF7D8FC01
:1010C80002463B69D31A642B01D9032304E2764B09
:1010D8001B6803F40033002BF0D014E0FFF7C8FCC2
:1010E800386108E0FFF7C4FC02463B69D31A642B59
:1010F80001D90323F0E16C4B1B6803F40033002B88
:10110800F0D100E000BF7B681B6803F00203002BEE
:1011180063D0654B9B6803F00C03002B0BD0624B2C
:101128009B6803F00C03082B1CD15F4B5B6803F42E
:101138008003002B16D15C4B1B6803F00203002BC5
:1011480005D07B68DB68012B01D00123C4E1564937
:10115800554B1B6823F0F8027B681B69DB001343BF
:101168000B603AE07B68DB68002B20D04F4B0122F4
:101178001A60FFF77DFC386108E0FFF779FC02464A
:101188003B69D31A022B01D90323A5E1464B1B68FF
:1011980003F00203002BF0D04349434B1B6823F0B4
:1011A800F8027B681B69DB0013430B6015E03F4BBB
:1011B80000221A60FFF75CFC386108E0FFF758FC72
:1011C80002463B69D31A022B01D9032384E1364B2B
:1011D8001B6803F00203002BF0D17B681B6803F047
:1011E8000803002B30D07B685B69002B16D0304B8E
:1011F80001221A60FFF73CFC386108E0FFF738FC71
:1012080002463B69D31A022B01D9032364E1264B1A
:101218005B6F03F00203002BF0D015E0244B002293
:101228001A60FFF725FC386108E0FFF721FC024649
:101238003B69D31A022B01D903234DE11A4B5B6F8B
:1012480003F00203002BF0D17B681B6803F0040352
:10125800002B00F0A0800023FB75134B1B6C03F0E0
:101268008053002B0FD10023BB600F4A0E4B1B6C21
:1012780043F0805313640C4B1B6C03F08053BB602A
:10128800BB680123FB750B4B1B6803F48073002BB1
:1012980021D1084A074B1B6843F480731360FFF79A
:1012A800E7FB386111E000BF003802400000474208
:1012B800800E474200700040FFF7DAFB02463B69A8
:1012C800D31A022B01D9032306E1854B1B6803F4CB
:1012D8008073002BF0D07B689B68012B06D1814A74
:1012E800804B1B6F43F0010313671CE07B689B680E
:1012F800052B0CD17B4A7B4B1B6F43F00403136710
:10130800784A784B1B6F43F0010313670BE0754A6B
:10131800744B1B6F23F001031367724A714B1B6FE9
:1013280023F0040313677B689B68002B15D0FFF735
:101338009FFB38610AE0FFF79BFB02463B69D31A23
:1013480041F28832934201D90323C5E0654B1B6FF4
:1013580003F00203002BEED014E0FFF789FB38619D
:101368000AE0FFF785FB02463B69D31A41F288324F
:10137800934201D90323AFE05A4B1B6F03F00203DA
:10138800002BEED1FB7D012B05D1564A554B1B6C2A
:1013980023F0805313647B689B69002B00F09B80CB
:1013A800504B9B6803F00C03082B5CD07B689B694F
:1013B800022B41D14C4B00221A60FFF759FB3861D0
:1013C80008E0FFF755FB02463B69D31A022B01D907
:1013D800032381E0434B1B6803F00073002BF0D11B
:1013E80040497B68DA697B681B6A1A437B685B6AD9
:1013F8009B011A437B689B6A5B08013B1B041A43E9
:101408007B68DB6A1B0613434B60374B01221A606B
:10141800FFF72EFB386108E0FFF72AFB02463B691D
:10142800D31A022B01D9032356E02E4B1B6803F075
:101438000073002BF0D04EE02B4B00221A60FFF710
:1014480017FB386108E0FFF713FB02463B69D31A24
:10145800022B01D903233FE0224B1B6803F00073E2
:10146800002BF0D137E07B689B69012B01D1012368
:1014780032E01C4B5B68FB607B689B69012B28D0C2
:10148800FB6803F480027B68DB699A4221D1FB6820
:1014980003F03F027B681B6A9A421AD1FA6847F642
:1014A800C07313407A68526A9201934211D1FB6863
:1014B80003F440327B689B6A5B08013B1B049A4239
:1014C80007D1FB6803F070627B68DB6A1B069A42EF
:1014D80001D0012300E0002318461837BD4680BD1F
:1014E80000700040003802406000474280B584B078
:1014F80000AF786039607B68002B01D10123CCE014
:10150800684B1B6803F007023B689A420CD2654B94
:101518003A68D2B21A70634B1B6803F007023B6843
:101528009A4201D00123B8E07B681B6803F00203EC
:10153800002B20D07B681B6803F00403002B05D028
:10154800594A594B9B6843F4E05393607B681B6886
:1015580003F00803002B05D0534A534B9B6843F410
:10156800604393605049504B9B6823F0F0027B68BE
:101578009B6813438B607B681B6803F00103002B97
:1015880044D07B685B68012B07D1474B1B6803F489
:101598000033002B19D101237FE07B685B68022BA5
:1015A80003D07B685B68032B07D13F4B1B6803F0B4
:1015B8000073002B09D101236FE03B4B1B6803F03C
:1015C8000203002B01D1012367E03749364B9B68A2
:1015D80023F003027B685B6813438B60FFF748FACC
:1015E800F8600AE0FFF744FA0246FB68D31A41F2B2
:1015F8008832934201D903234FE02B4B9B6803F0B9
:101608000C027B685B689B009A42EBD1254B1B68F8
:1016180003F007023B689A420CD9224B3A68D2B2CF
:101628001A70204B1B6803F007023B689A4201D0EE
:10163800012332E07B681B6803F00403002B08D009
:101648001949194B9B6823F4E0527B68DB68134304
:101658008B607B681B6803F00803002B09D01249D4
:10166800114B9B6823F460427B681B69DB001343C2
:101678008B6000F021F801460B4B9B681B0903F0B7
:101688000F030A4AD35C21FA03F3094A1360094B92
:101698001B681846FFF7A8F9002318461037BD46FF
:1016A80080BD00BF003C024000380240081E000810
:1016B80000000020040000202DE9F04F87B000AFA3
:1016C8000022FA6000227A610022BA6000223A61A0
:1016D800514A926802F00C02042A07D0082A08D05E
:1016E800002A40F090804D4B3B618FE04C4B3B61B2
:1016F8008CE0494A526802F03F02FA60464A526852
:1017080002F48002002A23D0434B5B689B094FF008
:10171800000440F2FF114FF0000203EA010304EA5B
:1017280002043F4A02FB04F1002202FB03F20A44CE
:101738003B49A3FB010153181946FB684FF000040D
:101748001A462346FEF73CFD03460C467B614CE0F7
:10175800314A5268920911464FF0000240F2FF15D3
:101768004FF0000605EA010506EA02062946324658
:101778004FEA421B4BEAD16B4FEA411A51465A468F
:10178800AA46B34655465E464D1B62EB06062946F9
:101798003246940144EA91648B015B1A64EB0204BB
:1017A8004FEAC40949EA53794FEAC30843464C460D
:1017B80055465E46ED1846EB04062B463446A20213
:1017C8007A607A6842EA93527A609B023B6097E8B3
:1017D800180018462146FB684FF000041A462346B5
:1017E800FEF7EEFC03460C467B610B4B5B681B0C5B
:1017F80003F0030301335B00BB607A69BB68B2FB8B
:10180800F3F33B6102E0054B3B6100BF3B691846BF
:101818001C37BD46BDE8F08F003802400024F400B4
:1018280040787D0180B582B000AF78607B68002B7E
:1018380001D101237AE07B685B6A002B08D17B68C1
:101848005B68B3F5827F09D07B680022DA6105E026
:101858007B6800221A617B6800225A617B6800223B
:101868009A627B6893F85130DBB2002B06D17B6813
:10187800002283F850207868FFF710F87B6802226E
:1018880083F851207B681B687A681268126822F016
:1018980040021A607B681B687A68526802F4827199
:1018A8007A68926802F4044211437A68D26802F4B2
:1018B800006211437A68126902F0020211437A68E1
:1018C800526902F0010211437A68926902F40072C7
:1018D80011437A68D26902F0380211437A68126AB1
:1018E80002F0800211437A68926A02F400520A43B5
:1018F8001A607B681B687A689269120C02F004010E
:101908007A68526A02F010020A435A607B681B68C0
:101918007A681268D26922F40062DA617B68002270
:101928005A657B68012283F851200023184608373E
:10193800BD4680BD80B588B000AFF860B9603B6037
:101948001346FB800023FB77FB6893F85030012B8C
:1019580001D1022324E1FB68012283F85020FFF71C
:1019680087F8B861FB88FB82FB6893F85130DBB2DB
:10197800012B02D00223FB7709E1BB68002B02D0C0
:10198800FB88002B02D10123FB7700E1FB680322CF
:1019980083F85120FB6800225A65FB68BA681A630D
:1019A800FB68FA889A86FB68FA88DA86FB68002260
:1019B8009A63FB6800229A87FB680022DA87FB6833
:1019C80000225A64FB6800221A64FB689B68B3F51E
:1019D800004F0FD1FB681B68FA681268126822F082
:1019E80040021A60FB681B68FA681268126842F4C1
:1019F80080421A60FB681B681B6803F04003402B99
:101A080007D0FB681B68FA681268126842F0400247
:101A18001A60FB68DB68B3F5006F4BD1FB685B6845
:101A2800002B02D0FB8A012B3ED1FB681B68FA68A9
:101A3800126B1288DA60FB681B6B9A1CFB681A63CE
:101A4800FB68DB8E9BB2013B9AB2FB68DA862BE01F
:101A5800FB681B689B6803F00203022B12D1FB682A
:101A68001B68FA68126B1288DA60FB681B6B9A1C99
:101A7800FB681A63FB68DB8E9BB2013B9AB2FB687A
:101A8800DA8611E0FEF7F4FF0246BB69D21A3B681A
:101A98009A4203D33B68B3F1FF3F02D13B68002B66
:101AA80002D10323FB7772E0FB68DB8E9BB2002B2D
:101AB800CED14CE0FB685B68002B02D0FB8A012B7F
:101AC80040D1FB681B680C33FA68126B12781A70E5
:101AD800FB681B6B5A1CFB681A63FB68DB8E9BB2A6
:101AE800013B9AB2FB68DA862CE0FB681B689B68AE
:101AF80003F00203022B13D1FB681B680C33FA684E
:101B0800126B12781A70FB681B6B5A1CFB681A63FD
:101B1800FB68DB8E9BB2013B9AB2FB68DA8611E068
:101B2800FEF7A6FF0246BB69D21A3B689A4203D366
:101B38003B68B3F1FF3F02D13B68002B02D103237E
:101B4800FB7724E0FB68DB8E9BB2002BCDD1BA6912
:101B58003968F86800F0B0F80346002B02D0FB683B
:101B680020225A65FB689B68002B0AD100233B6141
:101B7800FB681B68DB683B61FB681B689B683B6113
:101B88003B69FB685B6D002B01D00123FB77FB6889
:101B9800012283F85120FB68002283F85020FB7F44
:101BA80018462037BD4680BD80B588B000AFF860C4
:101BB800B9603B601346FB71FEF75AFF0246BB6AE9
:101BC8009A1A3B681344FB61FEF752FFB861394B20
:101BD8001B685B011B0DFA6902FB03F37B6154E090
:101BE8003B68B3F1FF3F50D0FEF742FF0246BB69A6
:101BF800D21AFB699A4202D2FB69002B3DD1FB68DD
:101C08001B68FA681268526822F0E0025A60FB68A2
:101C18005B68B3F5827F11D1FB689B68B3F5004F11
:101C280004D0FB689B68B3F5806F07D1FB681B681D
:101C3800FA681268126822F040021A60FB689B6A10
:101C4800B3F5005F0FD1FB681B68FA681268126869
:101C580022F400521A60FB681B68FA68126812685E
:101C680042F400521A60FB68012283F85120FB6895
:101C7800002283F85020032317E07B69002B01D151
:101C88000023FB617B69013B7B61FB681B689A68E9
:101C9800BB681A40BB689A420CBF01230023DBB221
:101CA8001A46FB799A429BD1002318462037BD4635
:101CB80080BD00BF0000002080B588B002AFF8608A
:101CC800B9607A601B4B1B681B4AA2FB03235B0DA0
:101CD8004FF47A7202FB03F37B61FB685B68B3F530
:101CE800827F12D17B680093BB6800228021F8684C
:101CF800FFF75AFF0346002B16D0FB685B6D43F0D5
:101D08002002FB685A6503230FE07B69002B0AD089
:101D18007B69013B7B61FB681B689B6803F0800360
:101D2800802BF2D000E000BF002318461837BD46CC
:101D380080BD00BF00000020819F5E16DFF834D010
:101D48000D480E490E4A002302E0D458C45004330B
:101D5800C4188C42F9D30B4A0B4C002301E01360E2
:101D68000432A242FBD3FEF70BFE00F011F8FEF797
:101D7800AFFB704700000220000000200C0000208C
:101D8800281E00080C00002084000020FEE7000048
:101D980070B50D4E0D4CA41BA4100025A54209D109
:101DA8000B4E0C4C00F020F8A41BA4100025A542F3
:101DB80005D170BD56F8253098470135EEE756F83D
:101DC800253098470135F2E7201E0008201E00083C
:101DD800201E0008241E000802440346934200D136
:101DE800704703F8011BF9E7F8B500BFF8BC08BC59
:101DF8009E467047F8B500BFF8BC08BC9E467047C1
:101E080000000000000000000102030406070809A2
:081E1800E0E3FF7F0100000080
:041E2000AD01000808
:041E24008901000828
:0C1E28000024F400100000000100000085
:0400000508001D458D
:00000001FF
