:020000040800F2
:1000000000000220791F0008390800083F08000896
:10001000450800084B0800085108000800000000CF
:100020000000000000000000000000005708000869
:100030006508000800000000730800088108000837
:10004000C91F0008C91F0008C91F0008C91F0008F0
:10005000C91F0008C91F0008C91F0008C91F0008E0
:10006000C91F0008C91F0008C91F0008C91F0008D0
:10007000C91F0008C91F0008C91F0008C91F0008C0
:10008000C91F0008C91F0008C91F0008C91F0008B0
:10009000C91F0008C91F0008C91F0008C91F0008A0
:1000A000C91F0008C91F0008C91F0008C91F000890
:1000B000C91F0008C91F0008C91F0008C91F000880
:1000C000C91F0008C91F0008C91F0008C91F000870
:1000D000C91F0008C91F0008C91F0008C91F000860
:1000E000C91F0008C91F0008C91F0008C91F000850
:1000F000C91F0008C91F0008C91F0008C91F000840
:10010000C91F0008C91F0008C91F0008C91F00082F
:10011000C91F0008C91F0008C91F0008C91F00081F
:10012000C91F0008C91F0008C91F0008C91F00080F
:10013000C91F0008C91F0008C91F0008C91F0008FF
:10014000C91F0008C91F0008C91F0008C91F0008EF
:10015000C91F0008C91F0008C91F0008C91F0008DF
:10016000C91F0008C91F0008C91F0008C91F0008CF
:10017000C91F0008C91F0008C91F000800000000AF
:08018000C91F0008C91F000897
:1001880010B5054C237833B9044B13B10448AFF3C9
:1001980000800123237010BD0C0000200000000027
:1001A8002420000808B5034B1BB103490348AFF3EB
:1001B800008008BD00000000100000202420000876
:1001C80053B94AB9002908BF00281CBF4FF0FF31B6
:1001D8004FF0FF3000F07AB9ADF1080C6DE904CEAC
:1001E80000F006F8DDF804E0DDE9022304B070470A
:1001F8002DE9F0478C460D460446089E002B51D148
:100208008A4217466DD9B2FA82FEBEF1000F0BD0B2
:10021800CEF1200C01FA0EF520FA0CFC02FA0EF7CA
:100228004CEA050C00FA0EF44FEA174A250CBCFB01
:10023800FAF81FFA87F90AFB18CC45EA0C4508FBBF
:1002480009F3AB420AD9ED1908F1FF3280F0238196
:10025800AB4240F22081A8F102083D44ED1AA4B255
:10026800B5FBFAF00AFB105544EA054400FB09F90E
:10027800A14509D9E41900F1FF3380F00A81A145AD
:1002880040F2078102383C44A4EB090440EA0840E4
:100298000021002E61D024FA0EF40023346073602C
:1002A800BDE8F0878B4207D9002E54D0002186E89C
:1002B80021000846BDE8F087B3FA83F1002940F031
:1002C8008E80AB4202D3824200F2FA80841A65EB38
:1002D80003050120AC46002E3FD086E81010BDE88B
:1002E800F08712B90127B7FBF2F7B7FA87FEBEF11C
:1002F800000F34D1EB1B3A0C1FFA87FC0121B3FB2A
:10030800F2F8250C02FB183345EA03450CFB08F309
:10031800AB4207D9ED1908F1FF3002D2AB4200F227
:10032800D1808046ED1AA3B2B5FBF2F002FB10555E
:1003380043EA05440CFB00FCA44507D9E41900F185
:10034800FF3302D2A44500F2B8801846A4EB0C048F
:1003580040EA08409DE731463046BDE8F087CEF1D7
:10036800200405FA0EF307FA0EF720FA04F83A0CFF
:1003780025FA04F448EA0308B4FBF2F14FEA1845F9
:1003880002FB11441FFA87FC45EA044501FB0CF304
:10039800AB4200FA0EF409D9ED1901F1FF3080F0F3
:1003A8008A80AB4240F2878002393D44EB1A1FFA3B
:1003B80088F5B3FBF2F002FB103345EA034500FB76
:1003C8000CF3AB4207D9ED1900F1FF386FD2AB42FD
:1003D8006DD902383D44EB1A40EA01418FE7C1F17B
:1003E800200722FA07F88B4005FA01F448EA0303CC
:1003F80020FA07FE4FEA134CFD404EEA040EB5FB07
:10040800FCF94FEA1E440CFB19551FFA83F844EA1D
:10041800054509FB08F4AC4202FA01F200FA01FAB8
:1004280008D9ED1809F1FF3043D2AC4241D9A9F1FE
:1004380002091D442D1B1FFA8EFEB5FBFCF00CFBB8
:1004480010554EEA054400FB08F8A04507D9E41802
:1004580000F1FF3529D2A04527D902381C4440EACB
:100468000940A4EB0804A0FB02894C45C6464D464A
:1004780015D312D056B1BAEB0E0364EB050404FA97
:1004880007F7CB401F43CC40376074600021BDE8BC
:10049800F0871846F8E69046E0E6C245EAD2B8EB9F
:1004A800020E69EB03050138E4E72846D7E7404622
:1004B80091E78146BEE7014678E702383C4445E7C4
:1004C800084608E7A8F102083D442BE7704700BF3B
:1004D80080B500AF022000F00BF8282000F008F8E3
:1004E8000D2000F005F8802000F002F800BF80BD64
:1004F80080B586B002AF0346FB71FB7923F00F038A
:10050800FB73FB791B01BB73FB7B43F00C03DBB272
:100518003B72FB7B43F00803DBB27B72BB7B43F08F
:100528000C03DBB2BB72BB7B43F00803DBB2FB728C
:1005380007F108026423009304234E21034800F0C6
:10054800DBFD00BF1037BD4680BD00BF280000207E
:1005580080B586B002AF0346FB71FB7923F00F0329
:10056800FB73FB791B01BB73FB7B43F00D03DBB211
:100578003B72FB7B43F00903DBB27B72BB7B43F02E
:100588000D03DBB2BB72BB7B43F00903DBB2FB722A
:1005980007F108026423009304234E21034800F066
:1005A800ABFD00BF1037BD4680BD00BF280000204E
:1005B80080B582B000AF786006E07B685A1C7A602C
:1005C8001B781846FFF7C4FF7B681B78002BF4D113
:1005D80000BF0837BD4680BD80B500AF00F064F9A4
:1005E80000F00CF800F096F800F066F8FFF770FFDE
:1005F8000148FFF7DDFFFEE73C20000880B594B016
:1006080000AF07F1200330220021184601F0FEFC5C
:1006180007F10C0300221A605A609A60DA601A61C6
:100628000023BB60224A224B1B6C43F080531364A7
:100638001F4B1B6C03F08053BB60BB6800237B60BF
:100648001C4A1C4B1B6843F480431360194B1B68FE
:1006580003F480437B607B6802233B620123FB62D7
:1006680010233B630023BB6307F12003184601F006
:100678004BF80346002B01D000F066F80F23FB600F
:1006880000233B6100237B610023BB610023FB61E6
:1006980007F10C030021184601F0AEFA0346002BBF
:1006A80001D000F051F800BF5037BD4680BD00BFF3
:1006B800003802400070004080B500AF124B134A6A
:1006C8001A60114B124A5A600F4B00229A600E4B67
:1006D8000022DA600C4B4FF480421A610A4B002268
:1006E8005A61094B00229A61074B4022DA61064B96
:1006F80000221A62044800F0C7FB0346002B01D011
:1007080000F022F800BF80BD2800002000580040FB
:10071800801A060080B483B000AF00237B60094ACA
:10072800084B1B6B43F002031363064B1B6B03F070
:1007380002037B607B6800BF0C37BD465DF8047B15
:10074800704700BF0038024080B400AF72B6FEE7C1
:1007580080B483B000AF00237B60104A0F4B5B6C02
:1007680043F4804353640D4B5B6C03F480437B601C
:100778007B6800233B60094A084B1B6C43F080539D
:100788001364064B1B6C03F080533B603B6800BF4F
:100798000C37BD465DF8047B704700BF0038024047
:1007A80080B58AB000AF786007F1140300221A60A0
:1007B8005A609A60DA601A617B681B68194A93422A
:1007C8002CD100233B61184A174B1B6B43F00203E3
:1007D8001363154B1B6B03F002033B613B694FF43A
:1007E80040637B611223BB610123FB6103233B62EE
:1007F80004237B6207F1140319460C4800F0AAF998
:100808000023FB60084A084B1B6C43F48003136405
:10081800054B1B6C03F48003FB60FB6800BF2837A3
:10082800BD4680BD00580040003802400004024028
:1008380080B400AFFEE780B400AFFEE780B400AF3D
:10084800FEE780B400AFFEE780B400AFFEE780B4F7
:1008580000AF00BFBD465DF8047B704780B400AFB1
:1008680000BFBD465DF8047B704780B400AF00BF91
:10087800BD465DF8047B704780B500AF00F066F8B0
:1008880000BF80BD80B400AF064A064BD3F888305D
:1008980043F47003C2F8883000BFBD465DF8047B9E
:1008A800704700BF00ED00E080B500AF0E4A0E4B68
:1008B8001B6843F4007313600B4A0B4B1B6843F42B
:1008C80080631360084A084B1B6843F48073136005
:1008D800032000F00BF9002000F008F8FFF738FFBC
:1008E8000023184680BD00BF003C024080B582B09E
:1008F80000AF7860124B1A68124B1B7819464FF4F8
:100908007A73B3FBF1F3B2FBF3F3184600F015F971
:100918000346002B01D001230EE07B680F2B0AD879
:10092800002279684FF0FF3000F0EBF8064A7B6848
:100938001360002300E0012318460837BD4680BD38
:1009480000000020080000200400002080B400AF50
:10095800064B1B781A46064B1B681344044A13605F
:1009680000BFBD465DF8047B704700BF080000204B
:100978007C00002080B400AF034B1B681846BD46BE
:100988005DF8047B704700BF7C00002080B485B010
:1009980000AF78607B6803F00703FB600C4BDB68F3
:1009A800BB60BA684FF6FF031340BB60FB681A02CE
:1009B800BB68134343F0BF6343F40033BB60044A8E
:1009C800BB68D36000BF1437BD465DF8047B704731
:1009D80000ED00E080B400AF044BDB681B0A03F0B5
:1009E80007031846BD465DF8047B704700ED00E03C
:1009F80080B483B000AF03463960FB7197F90730C4
:100A0800002B0ADB0D4997F907303A68D2B2120178
:100A1800D2B20B4483F800230AE00949FB7903F0BA
:100A28000F03043B3A68D2B21201D2B20B441A76D1
:100A380000BF0C37BD465DF8047B704700E100E05D
:100A480000ED00E080B489B000AFF860B9607A606A
:100A5800FB6803F00703FB61FB69C3F10703042B81
:100A680028BF0423BB61FB690433062B02D9FB6949
:100A7800033B00E000237B610122BB6902FA03F318
:100A88005A1EBB681A407B699A4001217B6901FAAA
:100A980003F3591E7B680B40134318462437BD46A1
:100AA8005DF8047B7047000080B582B000AF7860C5
:100AB8007B68013BB3F1807F01D301230FE00A4A31
:100AC8007B68013B53600F214FF0FF30FFF790FF29
:100AD800054B00229A60044B07221A60002318462F
:100AE8000837BD4680BD00BF10E000E080B582B089
:100AF80000AF78607868FFF749FF00BF0837BD4648
:100B080080BD80B586B000AF0346B9607A60FB73DC
:100B180000237B61FFF75EFF78617A68B9687869BE
:100B2800FFF790FF024697F90F3011461846FFF776
:100B38005FFF00BF1837BD4680BD80B582B000AFEB
:100B480078607868FFF7B0FF034618460837BD4657
:100B580080BD000080B489B000AF786039600023A0
:100B68007B6100233B610023BB610023FB616BE1D8
:100B78000122FB6902FA03F37B613B681A687B690F
:100B880013403B613A697B699A4240F05A813B685D
:100B98005B6803F00303012B05D03B685B6803F037
:100BA8000303022B30D17B689B68BB61FB695B0048
:100BB800032202FA03F3DB43BA691340BB613B68C3
:100BC800DA68FB695B0002FA03F3BA691343BB6195
:100BD8007B68BA699A607B685B68BB610122FB69C4
:100BE80002FA03F3DB43BA691340BB613B685B68F5
:100BF8001B0903F00102FB6902FA03F3BA69134304
:100C0800BB617B68BA695A603B685B6803F00303A1
:100C1800032B17D07B68DB68BB61FB695B00032291
:100C280002FA03F3DB43BA691340BB613B689A6875
:100C3800FB695B0002FA03F3BA691343BB617B6883
:100C4800BA69DA603B685B6803F00303022B23D1BF
:100C5800FB69DA087B68083253F82230BB61FB690C
:100C680003F007039B000F2202FA03F3DB43BA6980
:100C78001340BB613B681A69FB6903F007039B00DB
:100C880002FA03F3BA691343BB61FB69DA087B68AC
:100C98000832B96943F822107B681B68BB61FB699D
:100CA8005B00032202FA03F3DB43BA691340BB611A
:100CB8003B685B6803F00302FB695B0002FA03F31D
:100CC800BA691343BB617B68BA691A603B685B68A1
:100CD80003F44033002B00F0B4800023FB605F4A2C
:100CE8005E4B5B6C43F4804353645C4B5B6C03F476
:100CF8008043FB60FB685A4AFB699B08023352F841
:100D08002330BB61FB6903F003039B000F2202FA47
:100D180003F3DB43BA691340BB617B68514A9342D2
:100D28002BD07B68504A934225D07B684F4A934228
:100D38001FD07B684E4A934219D07B684D4A934234
:100D480013D07B684C4A93420DD07B684B4A934240
:100D580007D07B684A4A934201D107230EE0082353
:100D68000CE006230AE0052308E0042306E0032339
:100D780004E0022302E0012300E00023FA6902F004
:100D8800030292009340BA691343BB613449FB697B
:100D98009B080233BA6941F823203A4B1B68BB61B0
:100DA8003B69DB43BA691340BB613B685B6803F48A
:100DB8008033002B03D0BA693B691343BB61314AC6
:100DC800BB6913602F4B5B68BB613B69DB43BA6946
:100DD8001340BB613B685B6803F40033002B03D00E
:100DE800BA693B691343BB61264ABB695360254B0B
:100DF8009B68BB613B69DB43BA691340BB613B68D5
:100E08005B6803F48013002B03D0BA693B69134372
:100E1800BB611C4ABB6993601A4BDB68BB613B69C9
:100E2800DB43BA691340BB613B685B6803F400139A
:100E3800002B03D0BA693B691343BB61114ABB69F4
:100E4800D360FB690133FB61FB690F2B7FF690AE22
:100E580000BF2437BD465DF8047B70470038024068
:100E6800003801400000024000040240000802402F
:100E7800000C02400010024000140240001802401A
:100E8800001C0240003C014090B585B000AF78607E
:100E98007B68002B01D101231FE17B6893F83D306B
:100EA800DBB2002B06D17B68002283F83C207868EF
:100EB800FFF776FC7B68242283F83D207B681B685B
:100EC8007A681268126822F001021A607B681B684F
:100ED8007A681268126842F400421A607B681B68DC
:100EE8007A681268126822F400421A6001F02CF83D
:100EF800F8607B685B687B4A934207D8FB687A4A4C
:100F0800934294BF01230023DBB206E0FB68774AD3
:100F1800934294BF01230023DBB2002B01D00123AD
:100F2800DBE0FB68724AA2FB03239B0CBB607B6877
:100F38001B687A681268526822F03F01BA680A434F
:100F48005A607B681A687B681B681B6A23F03F013C
:100F58007B685B686348834202D8BB68013309E059
:100F6800BB684FF4967000FB03F36248A0FB0303D1
:100F78009B0901330B4313627B6818687B681B6805
:100F8800DB6923F44F4222F0FF027B685B68554916
:100F98008B420DD8FB68591E7B685B685B00B1FB10
:100FA800F3F30133C3F30B03042B38BF04234FE0DF
:100FB8007B689B68002B11D1FB685C1E7B685968B5
:100FC8000B465B000B44B4FBF3F30133C3F30B0391
:100FD800002B0CBF01230023DBB212E0FB685C1E70
:100FE8007B6859680B469B000B4499000B44B4FB83
:100FF800F3F30133C3F30B03002B0CBF01230023CE
:10100800DBB2002B01D0012322E07B689B68002B18
:101018000ED1FB685C1E7B6859680B465B000B446D
:10102800B4FBF3F30133C3F30B0343F400430FE0C2
:10103800FB685C1E7B6859680B469B000B44990053
:101048000B44B4FBF3F30133C3F30B0343F4404302
:101058001343C3617B681B687A681268126822F0C0
:10106800C0017A68D0697A68126A02430A431A6032
:101078007B681A687B681B689B6823F4034323F02A
:10108800FF03796808697968C96801430B4393606D
:101098007B681B687A681268D26822F0FF017A6858
:1010A80050697A68926902430A43DA607B681B6870
:1010B8007A681268126842F001021A607B6800229E
:1010C8001A647B68202283F83D207B6800221A631B
:1010D8007B68002283F83E20002318461437BD465B
:1010E80090BD00BFA08601007F841E00FF083D0060
:1010F80083DE1B43D34D621080B588B002AFF86021
:101108007A601A460B467B8113463B81FFF732FC17
:101118007861FB6893F83D30DBB2202B40F0E0802B
:101128007B690093192301227049F86800F064F97B
:101138000346002B01D00223D3E0FB6893F83C3030
:10114800012B01D10223CCE0FB68012283F83C206B
:10115800FB681B681B6803F00103012B07D0FB68C1
:101168001B68FA681268126842F001021A60FB688C
:101178001B68FA681268126822F400621A60FB6839
:10118800212283F83D20FB68102283F83E20FB686B
:1011980000221A64FB687A685A62FB683A895A85A1
:1011A800FB685B8D9AB2FB681A85FB68504ADA6265
:1011B80079897B693A6AF86800F09CF80346002B45
:1011C80001D001238DE000233B61FB681B685B694C
:1011D8003B61FB681B689B693B613B6966E07A6918
:1011E800396AF86800F0DEF90346002B0DD0FB6879
:1011F8001B6C042B07D1FB681B68FA68126812681D
:1012080042F400721A6001236BE0FB681B68FA68FD
:10121800526A12781A61FB685B6A5A1CFB685A6248
:10122800FB685B8D9BB2013B9AB2FB685A85FB68F1
:101238001B8D013B9AB2FB681A85FB681B685B69CA
:1012480003F00403042B1BD1FB681B8D002B17D064
:10125800FB681B68FA68526A12781A61FB685B6A55
:101268005A1CFB685A62FB685B8D9BB2013B9AB2C1
:10127800FB685A85FB681B8D013B9AB2FB681A858F
:101288007A69396AF86800F0CEF90346002B0DD068
:10129800FB681B6C042B07D1FB681B68FA68126893
:1012A800126842F400721A6001231AE0FB681B8D71
:1012B800002B94D1FB681B68FA681268126842F424
:1012C80000721A60FB68202283F83D20FB68002228
:1012D80083F83E20FB68002283F83C20002300E0CE
:1012E800022318461837BD4680BD00BF0200100013
:1012F8000000FFFF80B588B002AFF8607A603B60FD
:101308000B467B81FB68DB6A7B617B69082B06D017
:101318007B69012B03D07B6913F5803F08D1FB68FB
:101328001B68FA681268126842F480721A600BE04F
:10133800FB681B6B122B07D1FB681B68FA681268E5
:10134800126842F480721A603B6800937B6800223E
:101358004FF00111F86800F04FF80346002B0DD04C
:10136800FB681B681B6803F48073B3F5807F03D1A7
:10137800FB684FF400721A64032334E0FB681B69AE
:10138800B3F5804F07D1FB681B687A89D2B202F0A7
:10139800FE021A611BE0FB681B687A89D211D2B27F
:1013A80002F00602D2B262F00F02D2B21A613B68B2
:1013B8007A680F49F86800F076F80346002B01D0E8
:1013C800012310E0FB681B687A89D2B21A613B6876
:1013D8007A680849F86800F066F80346002B01D0DF
:1013E800012300E0002318461837BD4680BD00BF22
:1013F800080001000200010080B584B000AFF86069
:10140800B9603B601346FB7125E03B68B3F1FF3FD1
:1014180021D0FFF7AFFA0246BB69D21A3B689A425D
:1014280002D83B68002B16D1FB6800221A63FB68C0
:10143800202283F83D20FB68002283F83E20FB68C9
:101448001B6C43F02002FB681A64FB68002283F8D7
:101458003C20012323E0BB681B0CDBB2012B0DD120
:10146800FB681B685B69DA43BB6813409BB2002BBF
:101478000CBF01230023DBB21A460CE0FB681B6893
:101488009B69DA43BB6813409BB2002B0CBF012356
:101498000023DBB21A46FB799A42B6D000231846DD
:1014A8001037BD4680BD80B584B000AFF860B96024
:1014B8007A603B6051E0FB681B685B6903F48063FA
:1014C800B3F5806F23D1FB681B68FA68126812684D
:1014D80042F400721A60FB681B686FF480625A61FC
:1014E800FB6800221A63FB68202283F83D20FB6812
:1014F800002283F83E20FB681B6C43F00402FB6863
:101508001A64FB68002283F83C20012346E07B68CC
:10151800B3F1FF3F21D0FFF72DFA02463B68D21AFC
:101528007B689A4202D87B68002B16D1FB680022A0
:101538001A63FB68202283F83D20FB68002283F8A9
:101548003E20FB681B6C43F02002FB681A64FB68B2
:10155800002283F83C20012320E0BB681B0CDBB28F
:10156800012B0CD1FB681B685B69DA43BB6813402D
:101578009BB2002B14BF01230023DBB20BE0FB68F6
:101588001B689B69DA43BB6813409BB2002B14BFEE
:1015980001230023DBB2002B8DD10023184610371E
:1015A800BD4680BD80B584B000AFF860B9607A6090
:1015B8002DE0F86800F078F80346002B01D00123ED
:1015C8002DE0BB68B3F1FF3F21D0FFF7D3F9024606
:1015D8007B68D21ABB689A4202D8BB68002B16D126
:1015E800FB6800221A63FB68202283F83D20FB6811
:1015F800002283F83E20FB681B6C43F02002FB6846
:101608001A64FB68002283F83C20012307E0FB688A
:101618001B685B6903F08003802BCAD1002318463E
:101628001037BD4680BD80B584B000AFF860B960A2
:101638007A602DE0F86800F037F80346002B01D0F7
:1016480001232DE0BB68B3F1FF3F21D0FFF792F9EA
:1016580002467B68D21ABB689A4202D8BB68002B44
:1016680016D1FB6800221A63FB68202283F83D200C
:10167800FB68002283F83E20FB681B6C43F02002C5
:10168800FB681A64FB68002283F83C20012307E00A
:10169800FB681B685B6903F00403042BCAD10023B1
:1016A80018461037BD4680BD80B483B000AF78605F
:1016B8007B681B685B6903F48063B3F5806F1BD19B
:1016C8007B681B686FF480625A617B6800221A632A
:1016D8007B68202283F83D207B68002283F83E2027
:1016E8007B681B6C43F004027B681A647B680022E9
:1016F80083F83C20012300E0002318460C37BD4640
:101708005DF8047B7047000080B586B000AF786054
:101718007B68002B01D1012364E27B681B6803F01E
:101728000103002B75D0A34B9B6803F00C03042B1B
:101738000CD0A04B9B6803F00C03082B12D19D4BD7
:101748005B6803F48003B3F5800F0BD1994B1B68DA
:1017580003F40033002B5BD07B685B68002B57D108
:1017680001233FE27B685B68B3F5803F06D1914A6D
:10177800904B1B6843F4803313601DE07B685B6803
:10178800B3F5A02F0CD18B4A8A4B1B6843F48023F6
:101798001360884A874B1B6843F4803313600BE05F
:1017A800844A844B1B6823F480331360814A814B3D
:1017B8001B6823F4802313607B685B68002B13D0BD
:1017C800FFF7D8F8386108E0FFF7D4F802463B691C
:1017D800D31A642B01D9032304E2764B1B6803F464
:1017E8000033002BF0D014E0FFF7C4F8386108E0AC
:1017F800FFF7C0F802463B69D31A642B01D90323CB
:10180800F0E16C4B1B6803F40033002BF0D100E0CF
:1018180000BF7B681B6803F00203002B63D0654B95
:101828009B6803F00C03002B0BD0624B9B6803F002
:101838000C03082B1CD15F4B5B6803F48003002B5F
:1018480016D15C4B1B6803F00203002B05D07B68A4
:10185800DB68012B01D00123C4E15649554B1B68B5
:1018680023F0F8027B681B69DB0013430B603AE046
:101878007B68DB68002B20D04F4B01221A60FFF7F2
:1018880079F8386108E0FFF775F802463B69D31A22
:10189800022B01D90323A5E1464B1B6803F0020381
:1018A800002BF0D04349434B1B6823F0F8027B68B8
:1018B8001B69DB0013430B6015E03F4B00221A60E5
:1018C800FFF758F8386108E0FFF754F802463B691B
:1018D800D31A022B01D9032384E1364B1B6803F08A
:1018E8000203002BF0D17B681B6803F00803002B70
:1018F80030D07B685B69002B16D0304B01221A6010
:10190800FFF738F8386108E0FFF734F802463B691A
:10191800D31A022B01D9032364E1264B5B6F03F032
:101928000203002BF0D015E0244B00221A60FFF7C9
:1019380021F8386108E0FFF71DF802463B69D31A21
:10194800022B01D903234DE11A4B5B6F03F002030D
:10195800002BF0D17B681B6803F00403002B00F018
:10196800A0800023FB75134B1B6C03F08053002BE6
:101978000FD10023BB600F4A0E4B1B6C43F0805302
:1019880013640C4B1B6C03F08053BB60BB680123D2
:10199800FB750B4B1B6803F48073002B21D1084A9D
:1019A800074B1B6843F480731360FEF7E3FF38614D
:1019B80011E000BF0038024000004742800E474255
:1019C80000700040FEF7D6FF02463B69D31A022B8F
:1019D80001D9032306E1854B1B6803F48073002BB0
:1019E800F0D07B689B68012B06D1814A804B1B6F26
:1019F80043F0010313671CE07B689B68052B0CD13F
:101A08007B4A7B4B1B6F43F004031367784A784B80
:101A18001B6F43F0010313670BE0754A744B1B6F90
:101A280023F001031367724A714B1B6F23F0040301
:101A380013677B689B68002B15D0FEF79BFF386106
:101A48000AE0FEF797FF02463B69D31A41F2883253
:101A5800934201D90323C5E0654B1B6F03F00203D2
:101A6800002BEED014E0FEF785FF38610AE0FEF7A0
:101A780081FF02463B69D31A41F28832934201D969
:101A88000323AFE05A4B1B6F03F00203002BEED188
:101A9800FB7D012B05D1564A554B1B6C23F0805317
:101AA80013647B689B69002B00F09B80504B9B68FC
:101AB80003F00C03082B5CD07B689B69022B41D197
:101AC8004C4B00221A60FEF755FF386108E0FEF71C
:101AD80051FF02463B69D31A022B01D9032381E047
:101AE800434B1B6803F00073002BF0D140497B681F
:101AF800DA697B681B6A1A437B685B6A9B011A4335
:101B08007B689B6A5B08013B1B041A437B68DB6AA2
:101B18001B0613434B60374B01221A60FEF72AFF5E
:101B2800386108E0FEF726FF02463B69D31A022B0C
:101B380001D9032356E02E4B1B6803F00073002BDA
:101B4800F0D04EE02B4B00221A60FEF713FF3861ED
:101B580008E0FEF70FFF02463B69D31A022B01D9B2
:101B680003233FE0224B1B6803F00073002BF0D1E6
:101B780037E07B689B69012B01D1012332E01C4BC4
:101B88005B68FB607B689B69012B28D0FB6803F4CA
:101B980080027B68DB699A4221D1FB6803F03F022F
:101BA8007B681B6A9A421AD1FA6847F6C0731340D9
:101BB8007A68526A9201934211D1FB6803F4403269
:101BC8007B689B6A5B08013B1B049A4207D1FB6850
:101BD80003F070627B68DB6A1B069A4201D001231E
:101BE80000E0002318461837BD4680BD007000404D
:101BF800003802406000474280B584B000AF78608A
:101C080039607B68002B01D10123CCE0684B1B684D
:101C180003F007023B689A420CD2654B3A68D2B28D
:101C28001A70634B1B6803F007023B689A4201D0A5
:101C38000123B8E07B681B6803F00203002B20D067
:101C48007B681B6803F00403002B05D0594A594BE5
:101C58009B6843F4E05393607B681B6803F00803B8
:101C6800002B05D0534A534B9B6843F46043936061
:101C78005049504B9B6823F0F0027B689B681343E4
:101C88008B607B681B6803F00103002B44D07B68E2
:101C98005B68012B07D1474B1B6803F40033002B0B
:101CA80019D101237FE07B685B68022B03D07B6836
:101CB8005B68032B07D13F4B1B6803F00073002BB5
:101CC80009D101236FE03B4B1B6803F00203002B93
:101CD80001D1012367E03749364B9B6823F00302A3
:101CE8007B685B6813438B60FEF744FEF8600AE08C
:101CF800FEF740FE0246FB68D31A41F2883293424F
:101D080001D903234FE02B4B9B6803F00C027B683F
:101D18005B689B009A42EBD1254B1B6803F00702D6
:101D28003B689A420CD9224B3A68D2B21A70204BBF
:101D38001B6803F007023B689A4201D0012332E096
:101D48007B681B6803F00403002B08D01949194B62
:101D58009B6823F4E0527B68DB6813438B607B68E5
:101D68001B6803F00803002B09D01249114B9B682C
:101D780023F460427B681B69DB0013438B6000F02F
:101D880021F801460B4B9B681B0903F00F030A4A15
:101D9800D35C21FA03F3094A1360094B1B68184600
:101DA800FEF7A4FD002318461037BD4680BD00BFCE
:101DB800003C024000380240442000080000002097
:101DC800040000202DE9F04F87B000AF0022FA6030
:101DD80000227A610022BA6000223A61514A926870
:101DE80002F00C02042A07D0082A08D0002A40F082
:101DF80090804D4B3B618FE04C4B3B618CE0494AF6
:101E0800526802F03F02FA60464A526802F48002C1
:101E1800002A23D0434B5B689B094FF0000440F233
:101E2800FF114FF0000203EA010304EA02043F4AEB
:101E380002FB04F1002202FB03F20A443B49A3FB24
:101E4800010153181946FB684FF000041A4623464F
:101E5800FEF7B6F903460C467B614CE0314A5268FE
:101E6800920911464FF0000240F2FF154FF00006AC
:101E780005EA010506EA0206294632464FEA421BF0
:101E88004BEAD16B4FEA411A51465A46AA46B34625
:101E980055465E464D1B62EB0606294632469401BE
:101EA80044EA91648B015B1A64EB02044FEAC409AB
:101EB80049EA53794FEAC30843464C4655465E46BD
:101EC800ED1846EB04062B463446A2027A607A687F
:101ED80042EA93527A609B023B6097E818001846E2
:101EE8002146FB684FF000041A462346FEF768F9BE
:101EF80003460C467B610B4B5B681B0C03F003032A
:101F080001335B00BB607A69BB68B2FBF3F33B61EA
:101F180002E0054B3B6100BF3B6918461C37BD46D4
:101F2800BDE8F08F003802400024F40040787D01BD
:101F380080B400AF034B1B681846BD465DF8047BB0
:101F4800704700BF0000002080B500AFFFF7F0FF2A
:101F58000146054B9B689B0A03F00703034AD35CC1
:101F680021FA03F3184680BD0038024054200008C7
:101F7800DFF834D00D480E490E4A002302E0D45849
:101F8800C4500433C4188C42F9D30B4A0B4C0023B9
:101F980001E013600432A242FBD3FEF773FC00F0A9
:101FA80011F8FEF719FB704700000220000000201E
:101FB8000C0000206C2000080C000020800000208D
:101FC800FEE7000070B50D4E0D4CA41BA4100025B3
:101FD800A54209D10B4E0C4C00F020F8A41BA4100C
:101FE8000025A54205D170BD56F825309847013522
:101FF800EEE756F8253098470135F2E764200008E7
:102008006420000864200008682000080244034691
:10201800934200D1704703F8011BF9E7F8B500BFF8
:10202800F8BC08BC9E467047F8B500BFF8BC08BCB1
:042038009E46704709
:10203C004B4F43414B00000000000000000000002B
:10204C000102030406070809000000000102030452
:08205C009CE1FF7F0100000080
:04206400AD010008C2
:0420680089010008E2
:0C206C000024F40010000000010000003F
:0400000508001F7957
:00000001FF
